:020000040800F2
:1000000000000220D1220008B9210008BB2100080D
:10001000BD210008BF210008C12100080000000028
:10002000000000000000000000000000C3210008E4
:10003000C521000800000000C7210008C9210008F0
:100040002123000821230008212300082123000880
:100050002123000821230008212300082123000870
:100060002123000821230008212300082123000860
:100070002123000821230008212300082123000850
:100080002123000821230008212300082123000840
:100090002123000821230008212300082123000830
:1000A0002123000821230008212300082123000820
:1000B000212300082123000821230008D121000862
:1000C000E121000821230008212300082123000842
:1000D00021230008212300082123000821230008F0
:1000E00021230008212300082123000821230008E0
:1000F00021230008212300082123000821230008D0
:1001000021230008212300082123000821230008BF
:1001100021230008212300082123000821230008AF
:10012000F1210008212300082123000801220008F2
:10013000212300082123000821230008212300088F
:10014000212300082123000821230008212300087F
:10015000212300082123000821230008212300086F
:10016000212300082123000821230008212300085F
:10017000212300082123000821230008000000009B
:080180002123000821230008DF
:1001900010B5054C237833B9044B13B10448AFF3C1
:1001A00000800123237010BDC8060020000000005D
:1001B0004C98000808B5034B1BB103490348AFF343
:1001C000008008BD00000000CC0600204C9800080C
:1001D00081F0004102E000BF83F0004330B54FEAF8
:1001E00041044FEA430594EA050F08BF90EA020F65
:1001F0001FBF54EA000C55EA020C7FEA645C7FEAF8
:10020000655C00F0E2804FEA5454D4EB5555B8BF1A
:100210006D420CDD2C4480EA020281EA030382EA8B
:10022000000083EA010180EA020281EA0303362D1D
:1002300088BF30BD11F0004F4FEA01314FF4801CF0
:100240004CEA113102D0404261EB410113F0004F02
:100250004FEA03334CEA133302D0524263EB4303B9
:1002600094EA050F00F0A780A4F10104D5F1200E57
:100270000DDB02FA0EFC22FA05F2801841F10001B2
:1002800003FA0EF2801843FA05F359410EE0A5F186
:1002900020050EF1200E012A03FA0EFC28BF4CF0B7
:1002A000020C43FA05F3C01851EBE37101F000456D
:1002B00007D54FF0000EDCF1000C7EEB00006EEB7A
:1002C0000101B1F5801F1BD3B1F5001F0CD3490804
:1002D0005FEA30004FEA3C0C04F101044FEA44525B
:1002E00012F5800F80F09A80BCF1004F08BF5FEAE2
:1002F000500C50F1000041EB045141EA050130BDC2
:100300005FEA4C0C404141EB0101013C28BFB1F5D3
:10031000801FE9D291F0000F04BF01460020B1FA1E
:1003200081F308BF2033A3F10B03B3F120020CDAF1
:100330000C3208DD02F1140CC2F10C0201FA0CF0CF
:1003400021FA02F10CE002F11402D8BFC2F1200C34
:1003500001FA02F120FA0CFCDCBF41EA0C019040EA
:10036000E41AA2BF01EB0451294330BD6FEA040433
:100370001F3C1CDA0C340EDC04F11404C4F120021E
:1003800020FA04F001FA02F340EA030021FA04F330
:1003900045EA030130BDC4F10C04C4F1200220FA87
:1003A00002F001FA04F340EA0300294630BD21FAC5
:1003B00004F0294630BD94F0000F83F4801306BF8B
:1003C00081F480110134013D4EE77FEA645C18BF7F
:1003D0007FEA655C29D094EA050F08BF90EA020F16
:1003E00005D054EA000C04BF1946104630BD91EA0E
:1003F000030F1EBF0021002030BD5FEA545C05D111
:100400004000494128BF41F0004130BD14F580044F
:100410003CBF01F5801130BD01F0004545F0FE41C3
:1004200041F470014FF0000030BD7FEA645C1ABFF8
:10043000194610467FEA655C1CBF0B46024650EA2F
:10044000013406BF52EA033591EA030F41F400215B
:1004500030BD00BF90F0000F04BF0021704730B5E1
:100460004FF4806404F132044FF000054FF00001B6
:1004700050E700BF90F0000F04BF0021704730B577
:100480004FF4806404F1320410F0004548BF40424C
:100490004FF000013EE700BF42004FEAE2014FEAA1
:1004A00031014FEA02701FBF12F07F4393F07F4F7C
:1004B00081F06051704732F07F4208BF704793F07F
:1004C0007F4F04BF41F40021704730B54FF4607492
:1004D00001F0004521F000411CE700BF50EA010295
:1004E00008BF704730B54FF000050AE050EA01023E
:1004F00008BF704730B511F0004502D5404261EBAE
:1005000041014FF4806404F132045FEA915C3FF4EE
:10051000D8AE4FF003025FEADC0C18BF03325FEA8B
:10052000DC0C18BF033202EBDC02C2F1200300FA3C
:1005300003FC20FA02F001FA03FE40EA0E0021FA61
:1005400002F11444BDE600BF70B54FF0FF0C4CF44F
:10055000E06C1CEA11541DBF1CEA135594EA0C0F01
:1005600095EA0C0F00F0DEF82C4481EA030621EA3C
:100570004C5123EA4C5350EA013518BF52EA033577
:1005800041F4801143F4801338D0A0FB02CE4FF029
:100590000005E1FB02E506F00042E0FB03E54FF059
:1005A0000006E1FB03569CF0000F18BF4EF0010E51
:1005B000A4F1FF04B6F5007F64F5407404D25FEA4D
:1005C0004E0E6D4146EB060642EAC62141EA555100
:1005D0004FEAC52040EA5E504FEACE2EB4F1FD0C42
:1005E00088BFBCF5E06F1ED8BEF1004F08BF5FEAC0
:1005F000500E50F1000041EB045170BD06F0004672
:1006000046EA010140EA020081EA0301B4EB5C041E
:10061000C2BFD4EB0C0541EA045170BD41F4801116
:100620004FF0000E013C00F3AB8014F1360FDEBF3B
:10063000002001F0004170BDC4F10004203C35DA17
:100640000C341BDC04F11404C4F1200500FA05F39A
:1006500020FA04F001FA05F240EA020001F000423B
:1006600021F0004110EBD37021FA04F642EB0601B1
:100670005EEA430E08BF20EAD37070BDC4F10C04DB
:10068000C4F1200500FA04F320FA05F001FA04F29F
:1006900040EA020001F0004110EBD37041F100018B
:1006A0005EEA430E08BF20EAD37070BDC4F1200596
:1006B00000FA05F24EEA020E20FA04F301FA05F2FE
:1006C00043EA020321FA04F001F0004121FA04F2A6
:1006D00020EA020000EBD3705EEA430E08BF20EA76
:1006E000D37070BD94F0000F0FD101F000464000B0
:1006F00041EB010111F4801F08BF013CF7D041EA32
:10070000060195F0000F18BF704703F00046520035
:1007100043EB030313F4801F08BF013DF7D043EA06
:100720000603704794EA0C0F0CEA135518BF95EABC
:100730000C0F0CD050EA410618BF52EA4306D1D143
:1007400081EA030101F000414FF0000070BD50EA62
:10075000410606BF1046194652EA430619D094EAEC
:100760000C0F02D150EA013613D195EA0C0F05D1D6
:1007700052EA03361CBF104619460AD181EA03012A
:1007800001F0004141F0FE4141F470014FF00000E2
:1007900070BD41F0FE4141F4780170BD70B54FF07D
:1007A000FF0C4CF4E06C1CEA11541DBF1CEA1355FD
:1007B00094EA0C0F95EA0C0F00F0A7F8A4EB0504DF
:1007C00081EA030E52EA03354FEA013100F08880D6
:1007D0004FEA03334FF0805545EA131343EA12639F
:1007E0004FEA022245EA111545EA10654FEA002654
:1007F0000EF000419D4208BF964244F1FD0404F50D
:10080000407402D25B084FEA3202B61A65EB030568
:100810005B084FEA32024FF480104FF4002CB6EB25
:10082000020E75EB030E22BFB61A754640EA0C00A5
:100830005B084FEA3202B6EB020E75EB030E22BFE5
:10084000B61A754640EA5C005B084FEA3202B6EB26
:10085000020E75EB030E22BFB61A754640EA9C00E5
:100860005B084FEA3202B6EB020E75EB030E22BFB5
:10087000B61A754640EADC0055EA060E18D04FEA73
:10088000051545EA16754FEA06164FEAC30343EA13
:1008900052734FEAC2025FEA1C1CC0D111F4801FE0
:1008A0000BD141EA00014FF000004FF0004CB6E7D9
:1008B00011F4801F04BF01430020B4F1FD0C88BF78
:1008C000BCF5E06F3FF6AFAEB5EB030C04BFB6EB83
:1008D000020C5FEA500C50F1000041EB045170BD76
:1008E0000EF0004E4EEA113114EB5C04C2BFD4EBA3
:1008F0000C0541EA045170BD41F480114FF0000E27
:10090000013C90E645EA060E8DE60CEA135594EAA2
:100910000C0F08BF95EA0C0F3FF43BAF94EA0C0FA5
:100920000AD150EA01347FF434AF95EA0C0F7FF41A
:1009300025AF104619462CE795EA0C0F06D152EA6E
:1009400003353FF4FDAE1046194622E750EA410652
:1009500018BF52EA43067FF4C5AE50EA41047FF463
:100960000DAF52EA43057FF4EBAE12E74FEA4102C6
:10097000B2F1E04324BFB3F5001CDCF1FE5C0DD9FD
:1009800001F0004C4FEAC0024CEA5070B2F1004F47
:1009900040EB830008BF20F00100704711F0804F4A
:1009A00021D113F13872BCBF01F00040704741F40F
:1009B00080114FEA5252C2F11802C2F1200C10FA13
:1009C0000CF320FA02F018BF40F001004FEAC123F7
:1009D0004FEAD32303FA0CFC40EA0C0023FA02F39B
:1009E0004FEA4303CCE77FEA625307D150EA013371
:1009F0001EBF4FF0FE4040F44000704701F0004041
:100A000040F0FE4040F40000704700BF80F000401E
:100A100002E000BF81F0004142001FBF5FEA4103D6
:100A200092EA030F7FEA226C7FEA236C6AD04FEAD6
:100A30001262D2EB1363C1BFD2184140484041401B
:100A4000B8BF5B42192B88BF704710F0004F40F4CD
:100A5000000020F07F4018BF404211F0004F41F4E9
:100A6000000121F07F4118BF494292EA030F3FD0B5
:100A7000A2F1010241FA03FC10EB0C00C3F12003C8
:100A800001FA03F100F0004302D5494260EB400057
:100A9000B0F5000F13D3B0F1807F06D340084FEAC2
:100AA000310102F10102FE2A51D2B1F1004F40EBB7
:100AB000C25008BF20F0010040EA0300704749001F
:100AC00040EB0000013A28BFB0F5000FEDD2B0FABC
:100AD00080FCACF1080CB2EB0C0200FA0CF0AABFDF
:100AE00000EBC25052421843BCBFD040184370477D
:100AF00092F0000F81F4000106BF80F40000013283
:100B0000013BB5E74FEA41037FEA226C18BF7FEA59
:100B1000236C21D092EA030F04D092F0000F08BF9B
:100B20000846704790EA010F1CBF0020704712F082
:100B30007F4F04D1400028BF40F00040704712F1C1
:100B400000723CBF00F50000704700F0004343F026
:100B5000FE4040F4000070477FEA226216BF08465C
:100B60007FEA23630146420206BF5FEA412390EA1F
:100B7000010F40F4800070474FF0000304E000BF15
:100B800010F0004348BF40425FEA000C08BF7047C6
:100B900043F0964301464FF000001CE050EA01028A
:100BA00008BF70474FF000030AE000BF50EA01029F
:100BB00008BF704711F0004302D5404261EB41018C
:100BC0005FEA010C02BF84460146002043F0B643B1
:100BD00008BFA3F18053A3F50003BCFA8CF2083AD6
:100BE000A3EBC25310DB01FA02FC634400FA02FCDF
:100BF000C2F12002BCF1004F20FA02F243EB0200E6
:100C000008BF20F00100704702F1200201FA02FC47
:100C1000C2F1200250EA4C0021FA02F243EB02003A
:100C200008BF20EADC70704753B94AB9002908BFF1
:100C300000281CBF4FF0FF314FF0FF3000F06AB9C1
:100C4000ADF1080C6DE904CE00F006F8DDF804E023
:100C5000DDE9022304B070472DE9F047089D0C46FA
:100C6000002B4ED194468C458646B2FA82F262D968
:100C70004AB1C2F12003914020FA03F30CFA02FCBE
:100C8000194300FA02FE4FEA1C471FFA8CF6B1FB2B
:100C9000F7F44FEA1E4307FB141143EA014304FB38
:100CA00006F199420AD91CEB030304F1FF3080F0EE
:100CB0001281994240F20F81023C6344591A1FFA93
:100CC0008EF3B1FBF7F007FB101143EA014300FB81
:100CD00006F69E420AD91CEB030300F1FF3180F0B7
:100CE000FC809E4240F2F980634402389B1B40EA3C
:100CF000044000211DB1D3400022C5E90032BDE807
:100D0000F0878B4205D90DB1C5E9000100210846E5
:100D1000F5E7B3FA83F1002946D1A34202D390420A
:100D2000C0F0F080861A64EB03030120002DE6D0AA
:100D3000C5E90063E3E7002A40F09080A1EB0C04D2
:100D40004FEA1C481FFA8CF70121B4FBF8F64FEA72
:100D50001E4308FB164443EA044307FB06F098428F
:100D600008D91CEB030306F1FF3402D2984200F2CB
:100D7000CD8026461C1A1FFA8EF3B4FBF8F008FB50
:100D8000104443EA044300FB07F79F4208D91CEBD9
:100D9000030300F1FF3402D29F4200F2B0802046EC
:100DA000DB1B40EA0640A5E7C1F120068B4022FA92
:100DB00006F71F4320FA06FC04FA01F343EA0C038A
:100DC000F44000FA01F8380C4FEA1349B4FBF0FE86
:100DD0001FFA87FC00FB1E4449EA04440EFB0CF991
:100DE000A14502FA01F20AD93C190EF1FF3A80F04E
:100DF0008480A14540F28180AEF1020E3C44A4EB18
:100E000009041FFA83F9B4FBF0F300FB134449EA29
:100E1000044403FB0CFCA44507D93C1903F1FF3043
:100E200067D2A44565D9023B3C4443EA0E40A0FB8F
:100E30000293A4EB0C049C42CE469C4651D34ED068
:100E400055B1B8EB0E0364EB0C0404FA06F6CB4084
:100E50001E43CC40C5E90064002150E7C2F12003E5
:100E600020FA03F10CFA02FC24FA03F394400C4339
:100E70004FEA1C4800FA02FE1FFA8CF7B3FBF8F0A9
:100E800008FB1031230C43EA014300FB07F19942B0
:100E900008D91CEB030300F1FF362CD299422AD962
:100EA000023863445B1AA4B2B3FBF8F108FB1133B8
:100EB00044EA034401FB07F3A34208D91CEB0404F2
:100EC00001F1FF3613D2A34211D902396444E41A66
:100ED00041EA004139E70446F0E6084606E7C8451E
:100EE000AED2B9EB020E63EB070C0138A8E731462E
:100EF000EDE7034699E73046D4E7D6467FE76344FB
:100F000002384DE70646234608460FE7023E634493
:100F100030E700BF704700BF034613F8012B002ADB
:100F2000FBD1181A013870470000000000000000D3
:100F300001F0FF01102A2BDB10F0070F08D010F88A
:100F4000013B013A8B422DD010F0070F42B3F6D18E
:100F5000F0B441EA012141EA014122F007047FF0A7
:100F600000070023F0E80256083C85EA010586EAFE
:100F7000010685FA47F5A3FA87F586FA47F6A5FA3A
:100F800087F68EB9EED1F0BC01F0FF0102F0070246
:100F900032B110F8013B013A83EA010313B1F8D1F1
:100FA0000020704701387047002D06BF35460338D2
:100FB000073815F0010F07D1013015F4807F02BF0B
:100FC000013015F4C03F0130F0BC0138704700BF5C
:100FD0004FF0FF3C06E000BF4FF0010C02E000BF05
:100FE0004FF0010C4DF804CD4FEA410C7FEA6C5CE8
:100FF0004FEA430C18BF7FEA6C5C1BD001B050EA8B
:10100000410C0CBF52EA430C91EA030F02BF90EA75
:10101000020F0020704710F1000F91EA030F58BF34
:10102000994208BF90422CBFD8176FEAE37040F096
:10103000010070474FEA410C7FEA6C5C02D150EA34
:10104000013C07D14FEA430C7FEA6C5CD6D152EAEF
:10105000033CD3D05DF8040B704700BF84461046B4
:1010600062468C461946634600E000BF01B5FFF7B3
:10107000B7FF002848BF10F1000F01BD4DF808ED83
:10108000FFF7F4FF0CBF012000205DF808FB00BF54
:101090004DF808EDFFF7EAFF34BF012000205DF8AE
:1010A00008FB00BF4DF808EDFFF7E0FF94BF0120FB
:1010B00000205DF808FB00BF4DF808EDFFF7CEFFFC
:1010C00094BF012000205DF808FB00BF4DF808ED3B
:1010D000FFF7C4FF34BF012000205DF808FB00BF0C
:1010E0004FEA410C7FEA6C5C02D150EA013C0AD124
:1010F0004FEA430C7FEA6C5C02D152EA033C02D116
:101100004FF0000070474FF0010070474FEA410276
:1011100012F5001215D211D56FF47873B3EB625249
:1011200012D94FEAC12343F0004343EA505311F070
:10113000004F23FA02F018BF404270474FF0000002
:10114000704750EA013005D111F0004008BF6FF040
:10115000004070474FF00000704700BF84B000B5FA
:1011600085B00DF1180C8CE80F0000238DF80F30BE
:1011700006A803F0BCFC0528FAD04FF4FA730093DC
:1011800001230DF10F021CA906A803F0C2FA30B921
:101190009DF80F0005B05DF804EB04B07047FF2028
:1011A000F8E708B50022B0F85C10806D01F06AFC29
:1011B00008BD08B50122B0F85C10806D01F062FC3A
:1011C00008BD000030B599B00C4615468DF80700F3
:1011D000582202A803F0D4FF9DF8073063F07F0384
:1011E0008DF807302046FFF7DCFF4FF4FA73012239
:1011F0000DF1070102A803F0AAF94FF4FA732A4689
:10120000044902A803F0AFFB2046FFF7D2FF19B054
:1012100030BD00BFE806002008B513460A4619464F
:10122000FFF7D0FF08BD00002DE9F041AAB08046CD
:101230000E4615461C460846FFF7B3FF14AF58226A
:101240003146384603F09CFFCDF84880482218A963
:10125000684603F095FF97E80F00FFF77FFF124BFA
:1012600000221A8014E015F80C301293482218A9B5
:10127000684603F085FF0DF1500C9CE80F00FFF766
:101280006DFF0948B0F800C00CF1010CA0F800C0D7
:10129000054BB3F800C0A445E5D33046FFF789FFFE
:1012A0002AB0BDE8F08100BFE406002000B583B09D
:1012B0000B4611468DF8073001230DF10702FFF7A9
:1012C000B3FF03B05DF804FB70B506460D46144647
:1012D0008C212520FFF7EAFF224631462620FFF722
:1012E000E5FF224645F080016320FFF7DFFF012084
:1012F00001F06AF8224629464920FFF78DFF70BDAC
:1013000070B506460D4614460C212520FFF7CEFF8A
:10131000224631462620FFF7C9FF22462946632090
:10132000FFF7C4FF224681212720FFF7BFFF70BDD2
:1013300008B5024601217520FFF76EFF014B1878B2
:1013400008BD00BFE806002008B5024601210020C4
:10135000FFF7BAFF014B187808BD00BFE806002070
:1013600084B010B504460DF10C0C8CE80E00582228
:10137000614603F005FF199BA365BDF86830A4F82A
:101380005C3000231DE003F11C0204EB820200210B
:10139000516003F1200244F8221003F1220204EB11
:1013A0008202516003F13002002124F8121004EB94
:1013B0004202D18003F1340204EB420291800133F6
:1013C000DBB2022BDFD9BDE8104004B0704710B586
:1013D0000446024680216B20FFF768FF0A2000F0D8
:1013E000F3FF224620216A20FFF760FF22460D21ED
:1013F0002420FFF75BFF224600210A20FFF780FF31
:10140000224680216B20FFF751FF0A2000F0DCFF0D
:10141000224601210B20FFF773FF224601216B209A
:10142000FFF744FF224600216C20FFF73FFF2246D2
:1014300000211920FFF73AFF224618211B20FFF751
:1014400035FF224618211C20FFF730FF22460021DD
:101450001D20FFF72BFF224600211A20FFF726FF51
:10146000224620216A20FFF721FF22460D21242059
:10147000FFF71CFF224600210A20FFF741FF6420EE
:1014800000F0A2FF22460F210A20FFF739FF642057
:1014900000F09AFF224600210A20FFF731FF642066
:1014A00000F092FF224616210A20FFF729FF642050
:1014B00000F08AFF224601216B20FFF7F7FE22464B
:1014C00007210320FFF700FF002010BD00000000EF
:1014D00038B50446024606213B20FFF79DFE244D09
:1014E0002A786B7843EA02231BB2A4F86030B4F880
:1014F000600000B2FFF744FBFEF7CEFF1AA3D3E96A
:101500000023FFF74BF9FFF731FA6067AA78EB7811
:1015100043EA02231BB2A4F86230B4F8620000B2BE
:10152000FFF72EFBFEF7B8FF0FA3D3E90023FFF769
:1015300035F9FFF71BFAA0672A796B7943EA022392
:101540001BB2A4F86430B4F8640000B2FFF718FBD3
:10155000FEF7A2FF04A3D3E90023FFF71FF9FFF76B
:1015600005FAE06738BD00BF8FC2F5285C1F6A40EE
:10157000E80600200000000038B5044602460621B7
:101580004320FFF749FE224D2A786B7843EA022375
:101590001BB2A4F86630B4F8660000B2FEF76AFF2A
:1015A00019A3D3E90023FFF7F9F8FFF7DFF9C4F82F
:1015B0008000AA78EB7843EA02231BB2A4F86830D3
:1015C000B4F8680000B2FEF755FF0FA3D3E900237B
:1015D000FFF7E4F8FFF7CAF9C4F884002A796B79B9
:1015E00043EA02231BB2A4F86A30B4F86A0000B2DE
:1015F000FEF740FF04A3D3E90023FFF7CFF8FFF77E
:10160000B5F9C4F8880038BDFCA9F1D24D6230406C
:10161000E8060020000000002DE9F04F87B00446E6
:10162000854B1B88ADF8143000238DF816300393DA
:10163000ADF81030024603211020FFF745FE7F4D24
:1016400095F800A08DF814A095F801908DF81590EC
:1016500095F802808DF81680224601210320FFF7BD
:1016600033FE2E788DF80C60224601210920FFF709
:101670002BFE224601210420FFF726FE95F800B03C
:101680008DF80DB0224601210920FFF71DFE2246EC
:1016900001210520FFF718FE2B7800938DF80E30FE
:1016A000224601210920FFF70FFE224601210620D4
:1016B000FFF70AFE2F788DF80F70224601210920CE
:1016C000FFF702FE224601210720FFF7FDFD2A78E1
:1016D00001928DF81020224601210920FFF7F4FD28
:1016E000224601210820FFF7EFFD2D788DF81150DB
:1016F000224601210920FFF7E7FD46EA0B2636B214
:10170000A4F86C60009B43EA07231BB2A4F86E3078
:10171000019A42EA05231BB2A4F87030B4F86C00B9
:1017200000B2FFF72DFAFEF7B7FE06460F46AAF104
:101730008000FEF79FFE0022414BFEF705FF0022CE
:10174000404BFEF74BFD02460B4630463946FEF74E
:10175000FBFEFFF70BF9C4F88C00B4F86C0000B284
:10176000FEF788FE32A3D3E90023FEF7EDFEFFF774
:10177000FDF8C4F88C00B4F86E0000B2FFF700FA70
:10178000FEF78AFE06460F46A9F18000FEF772FEBC
:1017900000222B4BFEF7D8FE00222A4BFEF71EFD3F
:1017A00002460B4630463946FEF7CEFEFFF7DEF81E
:1017B000C4F89000B4F86E0000B2FEF75BFE1CA304
:1017C000D3E90023FEF7C0FEFFF7D0F8C4F890007D
:1017D000B4F8700000B2FFF7D3F9FEF75DFE0646DD
:1017E0000F46A8F18000FEF745FE0022144BFEF7DD
:1017F000ABFE0022134BFEF7F1FC02460B463046CF
:101800003946FEF7A1FEFFF7B1F8C4F89400B4F82A
:10181000700000B2FEF72EFE05A3D3E90023FEF709
:1018200093FEFFF7A3F8C4F8940007B0BDE8F08F6B
:10183000333333333333C33F68980008E80600205E
:101840000000703F0000F03F10B50446FFF740FE77
:101850002046FFF791FE2046FFF7DEFE10BD000098
:101860002DE9F0418AB00024059406940794089469
:1018700009940094334B1A6B42F004021A631A6BFA
:1018800002F004020092009A01941A6B42F02002C6
:101890001A631A6B02F020020192019A02941A6BE9
:1018A00042F080021A631A6B02F080020292029ADE
:1018B00003941A6B42F001021A631A6B02F00102E0
:1018C0000392039A04941A6B42F002021A631B6B90
:1018D00003F002030493049BDFF86C8022464FF46C
:1018E0000071404601F0CEF8184F22464FF40061D7
:1018F000384601F0C7F8164E22462021304601F046
:10190000C1F84FF4007305930125069507950894D7
:1019100005A9404600F0BCFF4FF40063059306950F
:101920000794089405A9384600F0B2FF20230593D8
:1019300006950794089405A9304600F0A9FF0AB05F
:10194000BDE8F0810038024000140240000002406F
:101950000004024010B582B0002401940D4B1A6BB4
:1019600042F480021A631B6B03F480030193019B12
:1019700022462146382000F08FFD382000F09CFDE3
:10198000224621463B2000F087FD3B2000F094FDDD
:1019900002B010BD0038024072B6FEE708B50A4832
:1019A0000A4B03604FF4E133436000238360C3605C
:1019B00003610C2242618361C36103F094F900B9B1
:1019C00008BDFFF7E9FF00BF2C0800200010014010
:1019D00008B50A480A4B03600A4B43600023836042
:1019E000C3604FF48042026143618361C36103625B
:1019F00001F02CFA00B908BDFFF7CEFF380A00202D
:101A000000540040A086010008B50A480A4B036054
:101A10000A4B436000238360C3604FF4804202613D
:101A200043618361C361036201F010FA00B908BD2C
:101A3000FFF7B2FFE409002000580040A086010033
:101A400008B50D480D4B03604FF4827343600023CB
:101A50008360C360036143614FF400728261C361BC
:101A60000362436283620A23C36202F011FD00B97C
:101A700008BDFFF791FF00BF8C0900200030014036
:101A800008B50D480D4B03604FF48273436000238B
:101A90008360C360036143614FF400728261C3617C
:101AA0000362436283620A23C36202F0F1FC00B95D
:101AB00008BDFFF771FF00BF340900200038004067
:101AC00000B595B03022002108A803F0DCFA00230D
:101AD000039304930593069307930193214A116C92
:101AE00041F080511164126C02F080520192019A0F
:101AF00002931D4B1A6842F480421A601B6803F47B
:101B000080430293029B012308934FF4803309938F
:101B100002230E934FF480020F92192210924FF479
:101B2000A872119212930423139308A802F0A0F84C
:101B300098B90F23039302230493002305934FF4D2
:101B4000A05306934FF480530793052103A802F096
:101B5000DFFA20B915B05DF804FBFFF71DFFFFF7B2
:101B60001BFF00BF00380240007000402DE9804894
:101B7000A5B000F0FDFBFFF7A3FFFFF771FEFFF735
:101B8000E9FEFFF70BFFFFF723FFFFF73DFFFFF72E
:101B900057FFFFF775FFBC4CBC4E35684FF4006330
:101BA0001493BB4B139304F10C074FF04C084246BF
:101BB0003946684603F0E4FA94E80E002846FFF739
:101BC000CFFBB44DD5F8009020231493B24B139360
:101BD00042463946684603F0D3FA94E80E00484678
:101BE000FFF7BEFB3068FFF7F2FB2868FFF7EFFB5B
:101BF000A64E3068FFF7A8FBA84B18703068FFF7B7
:101C000097FBA74B18703068FFF71EFEA14F38688E
:101C1000FFF71AFE17ADA34C0FCC0FC50FCC0FC5A5
:101C200094E8070085E8070017A8FFF775F99E4DAF
:101C30004FF0FF3382B217A9284603F084F83368C7
:101C4000D3F87480D3F878A0DFF86092D86FFEF7ED
:101C500023FCCDE904015046FEF71EFCCDE902014C
:101C60004046FEF719FCCDE900014A46322117A88B
:101C700003F092F917A8FFF74FF94FF0FF3382B244
:101C800017A9284603F05FF83368D3F880A0D3F88B
:101C900084B0DFF81C82D3F88800FEF7FDFBCDE9A5
:101CA00004015846FEF7F8FBCDE902015046FEF765
:101CB000F3FBCDE900014246322117A803F06CF98D
:101CC00017A8FFF729F94FF0FF3382B217A928466A
:101CD00003F039F83368D3F88CA0D3F890B0754E80
:101CE000D3F89400FEF7D8FBCDE904015846FEF77F
:101CF000D3FBCDE902015046FEF7CEFBCDE9000152
:101D00003246322117A803F047F917A8FFF704F964
:101D10004FF0FF3382B217A9284603F014F80DF1F3
:101D20005C0CA4F1200EBEE80F00ACE80F00BEE88A
:101D30000F00ACE80F0094E807008CE8070017A834
:101D4000FFF7EAF84FF0FF3382B217A9284602F0F6
:101D5000FAFF0DF15C0C584C0FCCACE80F000FCC27
:101D6000ACE80F0094E807008CE8070017A8FFF71D
:101D7000D3F84FF0FF3382B217A9284602F0E3FFF1
:101D80003B68D3F874A0D3F878B0D86FFEF784FB23
:101D9000CDE904015846FEF77FFBCDE9020150462C
:101DA000FEF77AFBCDE900014A46322117A803F07D
:101DB000F3F817A8FFF7B0F84FF0FF3382B217A976
:101DC000284602F0C0FF3B68D3F88090D3F884A087
:101DD000D3F88800FEF760FBCDE904015046FEF71A
:101DE0005BFBCDE902014846FEF756FBCDE9000159
:101DF0004246322117A803F0CFF817A8FFF78CF856
:101E00004FF0FF3382B217A9284602F09CFF3B68CF
:101E1000D3F88C70D3F89080D3F89400FEF73CFB95
:101E2000CDE904014046FEF737FBCDE90201384613
:101E3000FEF732FBCDE900013246322117A803F04C
:101E4000ABF817A8FFF768F84FF0FF3382B217A975
:101E5000284602F078FF17AEA4F120070FCF0FC677
:101E60000FCF0FC694E8070086E8070017A8FFF712
:101E700053F84FF0FF3382B217A9284602F063FFF0
:101E8000C82000F0A1FAB3E68C090020040000206D
:101E90000000024000000020000402402908002049
:101EA000280800206C9800082C080020989800084A
:101EB000B4980008D0980008EC98000882B000217F
:101EC00000910B4B5A6C42F480425A645A6C02F4F3
:101ED00080420092009A01911A6C42F080521A647A
:101EE0001B6C03F080530193019B02B0704700BF4D
:101EF0000038024030B58BB000230593069307935A
:101F00000893099303682F4A934204D02E4A9342C0
:101F100036D00BB030BD002401942C4D2B6B43F018
:101F200002032B632B6B03F002030193019BC0237D
:101F30000593122306930123079303230893042395
:101F4000099305A9224800F0A3FC02942B6C43F4EA
:101F500000132B642B6C03F400130293029B2246A4
:101F600021461F2000F098FA1F2000F0A5FA224613
:101F70002146202000F090FA202000F09DFAC8E7CA
:101F800000250395114C236B43F020032363236B3F
:101F900003F020030393039B03230593122206926D
:101FA00008930423099305A90A4800F071FC0495DD
:101FB000236C43F480032364236C03F480030493B1
:101FC000049BA6E70054004000580040003802403F
:101FD0000004024000140240F0B58BB000230593CA
:101FE000069307930893099303684C4A934204D0DD
:101FF0004B4A934259D00BB0F0BD044600250095E2
:10200000484B5A6C42F480525A645A6C02F4805223
:102010000092009A01951A6B42F001021A631B6B41
:1020200003F001030193019BE02305930223069330
:10203000032308930523099305A93B4800F028FCD6
:102040003A483B4B03604FF0C06343608560C56016
:102050004FF48063036145618561C5610562456236
:1020600000F0AAFAD8B9314BE3649C633148324B93
:1020700003604FF0C0634360402383600023C3606C
:102080004FF48062026143618361C3610362436212
:1020900000F092FA30B9274BA3649C63ABE7FFF7DB
:1020A0007BFCE0E7FFF778FCF5E7002402941D4B8A
:1020B0001A6C42F480421A641A6C02F48042029252
:1020C000029A03941A6B42F004021A631A6B02F02C
:1020D00004020392039A04941A6B42F002021A63F8
:1020E0001B6B03F002030493049B0C23059302274C
:1020F0000697032608960525099505A90F4800F0BF
:10210000C7FB4FF4806305930697079408960995DB
:1021100005A90B4800F0BCFB6DE700BF0030014093
:10212000003800400038024000000240D40800207F
:102130001064024074080020586402400008024005
:102140000004024000B589B0002303930493059373
:1021500006930793026803F1804303F588339A429C
:1021600002D009B05DF804FB0021019103F594331E
:102170005A6C42F010025A645A6C02F0100201923A
:10218000019A02911A6B42F001021A631B6B03F071
:1021900001030293029B4FF4C06303930223049351
:1021A000032306930723079303A9024800F070FB5B
:1021B000D7E700BF00000240FEE7FEE7FEE7FEE7CC
:1021C000FEE770477047704708B500F0EBF808BDB0
:1021D00008B5024801F01EFC08BD00BF380A002007
:1021E00008B5024801F0E6FC08BD00BF380A00202F
:1021F00008B5024800F05AFA08BD00BFD408002014
:1022000008B5024800F052FA08BD00BF740800206B
:102210000120704708B502F085FF162303604FF0D8
:10222000FF3008BD08B54FF0FF31FFF7F3FFFEE7C1
:1022300070B50C461646002506E0AFF30080214637
:1022400001F8010B01350C46B542F6DB304670BD96
:1022500070B50C461646002504E014F8010BAFF3E8
:1022600000800135B542F8DB304670BD4FF0FF30DD
:1022700070474FF400534B600020704701207047B7
:102280000020704710B503460C4A0D490D48006800
:1022900040B10C4800680344521A934206D8094AD8
:1022A000136010BD0748084C0460F2E702F03AFFE3
:1022B0000C2303604FF0FF30F3E700BF0000022063
:1022C000000400008C0A0020A00D002070470000D0
:1022D000DFF834D0FFF7FAFF0C480D490D4A002310
:1022E00002E0D458C4500433C4188C42F9D30A4ACB
:1022F0000A4C002301E013600432A242FBD302F037
:1023000017FFFFF733FC7047000002200000002099
:10231000C8060020D49C0008C8060020A00D00209C
:10232000FEE7000010B504460E4B1A784FF47A739E
:10233000B3FBF2F30C4A1068B0FBF3F000F0C0F806
:1023400068B90F2C01D901200AE0002221464FF084
:10235000FF3000F0A1F8054B1C60002000E00120D8
:1023600010BD00BF0C00002008000020100000205D
:1023700008B50B4B1A6842F400721A601A6842F4EE
:1023800080621A601A6842F480721A60032000F0BA
:1023900071F80F20FFF7C6FFFFF790FD002008BD82
:1023A000003C0240034A1168034B1B780B44136046
:1023B000704700BF900A00200C000020014B1868F5
:1023C000704700BF900A002038B50446FFF7F6FFBB
:1023D0000546B4F1FF3F02D0044B1B781C44FFF7C5
:1023E000EDFF401BA042FAD338BD00BF0C00002017
:1023F000002807DB00F01F02400901239340024A36
:1024000042F82030704700BF00E100E0002808DB00
:102410000901C9B200F1604000F5614080F8001385
:10242000704700F00F000901C9B2014B1954704701
:1024300014ED00E000B500F00700C0F1070CBCF19E
:10244000040F28BF4FF0040C031D062B0FD9C31E29
:102450004FF0FF3E0EFA0CF021EA000199400EFA0F
:1024600003FE22EA0E0241EA02005DF804FB0023AB
:10247000EEE70000074AD36823F4E0631B041B0C5B
:10248000000200F4E060034343F0BF6343F4003311
:10249000D360704700ED00E010B50446054BD868E6
:1024A000C0F30220FFF7C6FF01462046FFF7AEFF4C
:1024B00010BD00BF00ED00E008B5FFF799FF08BDB3
:1024C0000138B0F1807F0BD24FF0E0235861054A0C
:1024D000F02182F823100020986107221A617047CA
:1024E0000120704700ED00E010B40368D9B2103944
:1024F0000B4AA2FB014212090A4CA25CC2655F2989
:1025000008D923F47F7323F0030304338365806DBC
:1025100010BC704723F47F7323F003038365F6E751
:10252000ABAAAAAA30990008836A826992B9012BE2
:102530000AD0022B02D00BB100207047C36A13F0FF
:10254000807F28D100207047C36AB3F1C07F24D0B8
:1025500000207047B2F5005F09D0022B25D9032B6C
:1025600025D1C36A13F0807F23D100207047032B4D
:1025700003D8DFE803F01404140A00207047C36A8C
:1025800013F0807F0DD100207047C36AB3F1C07F84
:1025900009D00020704701207047012070470120BA
:1025A00070470120704701207047012070470020CC
:1025B000704701207047000070B50446FFF7FEFE2B
:1025C000002C5BD00546022384F83530002384F8C4
:1025D00034302268136823F00103136023681A68FB
:1025E00012F0010F0AD0FFF7E9FE431B052BF5D9C6
:1025F00020236365032084F8350070BD1A682049E4
:1026000011406268A0680243E06802432069024307
:1026100060690243A0690243E0690243206A024301
:102620000A43616A04291ED01A602668756925F07C
:102630000705636A1D43042B07D1A36A1D43E36AA0
:102640001BB12046FFF770FF90B975612046FFF778
:102650004BFFE26D3F2393408360002060650123C0
:1026600084F83530C9E7E16A206B01430A43DBE7B0
:1026700040236365012084F83500BEE70120BCE7F4
:102680003F8010F090F83530DBB2022B03D080236E
:10269000436501207047052380F8353002681368D0
:1026A00023F001031360002070470000F0B583B0F1
:1026B000044600230193724B1D68724BA3FB053542
:1026C000AD0A876D3E68C26D08239340334210D037
:1026D00003681A6812F0040F0BD01A6822F0040283
:1026E0001A60C26D08239340BB60436D43F0010341
:1026F0004365E26D01239340334209D02268526959
:1027000012F0800F04D0BB60636D43F00203636579
:10271000E26D04239340334209D02268126812F01C
:10272000020F04D0BB60636D43F004036365E26D88
:1027300010239340334224D02268126812F0080F0D
:102740001FD0BB6023681A6812F4802F0DD01B685D
:1027500013F4002F04D1236C9BB12046984710E05E
:10276000A36C73B1204698470BE01A6812F4807F7F
:1027700003D11A6822F008021A60236C0BB12046BC
:102780009847E26D20239340334255D02268126867
:1027900012F0100F50D0BB6094F83530DBB2052B2F
:1027A0000ED023681A6812F4802F33D01B6813F4FC
:1027B000002F2AD1636C002B3ED0204698473BE087
:1027C0002268136823F0160313602268536923F00C
:1027D00080035361236CA3B12268136823F00803BC
:1027E0001360E26D3F239340BB60012384F83530D2
:1027F000002384F83430236D002B3FD020469847C7
:102800003CE0A36C002BE7D1EBE7E36BA3B12046E0
:10281000984711E01A6812F4807F09D11A6822F0F3
:1028200010021A60012384F83530002384F8343014
:10283000E36B0BB120469847636DFBB1636D13F0FA
:10284000010F17D0052384F835302268136823F070
:1028500001031360019B01330193AB4204D8236849
:102860001B6813F0010FF5D1012384F835300023E4
:1028700084F83430E36C0BB12046984703B0F0BDC8
:1028800008000020B5814E1B90F83500704700000D
:1028900000230F2B00F2EC8030B583B068E0856830
:1028A0004FEA430E032404FA0EF425EA0405CC682B
:1028B00004FA0EF42C438460446824EA02044A6853
:1028C000C2F300129A40224342605FE0DC08083401
:1028D00050F8242003F00705AD004FF00F0E0EFA5C
:1028E00005FE22EA0E0E0A69AA4042EA0E0240F8EC
:1028F00024205FE0072200E0002202FA0EF22A43C1
:1029000002345C4D45F824205B4A94686FEA0C025F
:1029100024EA0C05D1F804E01EF4801F01D04CEA33
:102920000405554CA560E46802EA0405D1F804E00A
:102930001EF4001F01D04CEA04054F4CE5606468AA
:1029400002EA0405D1F804E01EF4003F01D04CEA8D
:102950000405494C6560246822404D6815F4803FA9
:1029600001D04CEA0402444C226001330F2B7DD885
:1029700001229A400C6804EA020C32EA0404F4D101
:102980004C6804F00304013C012C88D94A6802F029
:102990000302032A09D0C4685D000322AA4024EA86
:1029A00002048A68AA402243C2604A6802F0030215
:1029B000022A8BD004684FEA430E032202FA0EF279
:1029C00024EA02044A6802F0030202FA0EF22243E9
:1029D00002604A6812F4403FC7D000220192274AA1
:1029E000546C44F480445464526C02F4804201926A
:1029F000019A9C08A51C1F4A52F8255003F0030EAB
:102A00004FEA8E0E0F2202FA0EF225EA02051C4A48
:102A100090423FF471AF02F5806290421AD002F505
:102A20008062904218D002F58062904216D002F582
:102A30008062904214D002F58062904212D002F57A
:102A40008062904210D002F5806290423FF452AF13
:102A5000082252E7012250E702224EE703224CE708
:102A600004224AE7052248E7062246E703B030BDC4
:102A7000704700BF00380140003C01400038024070
:102A8000000002400AB1816170470904816170470A
:102A900003685A6912F0800F01D000221A61704752
:102AA00090F83E30DBB2402B10D00369B3F5804F75
:102AB0001BD0036D002B39D1436CC3F3C8130268DC
:102AC00003F0060343F0F00313617047036D2BB965
:102AD000436C026803F0FE0313617047436C0268A5
:102AE00043F00103DBB21361704790F83D30DBB275
:102AF000212B0FD0436C026843F00103DBB213615A
:102B0000436B6BB1DB6B5BB10268536843F40063EA
:102B100053607047436C026803F0FE031361EFE7F4
:102B2000836B33B1DB6B002BEED102E0036D012B25
:102B300000D07047436CC3F3C813026803F0060368
:102B400043F0F1031361F4E7436C0268DBB21361F5
:102B5000436B3BB1DB6B2BB10268536843F40063FA
:102B600053607047836B002BFBD0DB6B002BF3D1E2
:102B7000F7E7000010B48BB090F83E30DAB2C16ACB
:102B8000046B90F83D30DBB2222B0AD0002309936E
:102B900003685A6909929B690993099B0BB010BCA1
:102BA0007047036D0BB9402A17D0036D1BB9036939
:102BB000B3F5404F19D0438D9BB2002B25D1029322
:102BC00003685A6902929A690292029A1A6842F458
:102BD00000721A6000230365E0E7009303685A69F6
:102BE00000929B690093009BD8E700230193036840
:102BF0005A6901929A690192019A1A6842F48072A4
:102C00001A60036D01330365C8E7438D9BB2012B46
:102C10001CD0438D9BB2022B72D00268136843F420
:102C20008063136003685A6812F4006F00F0A98093
:102C3000202900F2AF80082980F09C80012940F013
:102C4000A0805A6842F480525A609AE011F5803FA1
:102C500011D0082934D0202932D0122C2ED00429AA
:102C600040D002293ED010293CD00268136823F4DA
:102C7000806313603BE00268136823F48063136091
:102C800003685A6812F4006F0CD01A6822F480624C
:102C90001A600023039303685A6903929B690393A4
:102CA000039B97E7002204925A6904929A6904925E
:102CB000049A1A6842F400721A608BE70129D0D096
:102CC0000268136823F4806313600023069303688B
:102CD0005A6906929A690692069A1A6842F4007234
:102CE0001A6077E70268136843F480631360002377
:102CF000059303685A6905929B690593059B69E7EB
:102D0000102904D8254BCB4013F0010F19D10268CC
:102D1000136823F4806313600268136843F400634C
:102D2000136003685A6812F4006F16D020291DD86A
:102D300008290CD2012910D15A6842F480525A60F5
:102D40000BE00268136843F480631360E9E7083915
:102D5000134ACA4012F0010FEED100230793036813
:102D60005A6907929B690793079B33E711F5803FE8
:102D7000F3D1E1E708390A4ACA4012F0010F7FF4A3
:102D800060AF0023089303685A6908929B6908930F
:102D9000089B1FE711F5803FF3D152E714000100B3
:102DA00001010001438D9BB25BB1426A0368127856
:102DB0001A61436A01334362438D9BB2013B9BB26C
:102DC00043857047438D9BB25BB103681A69436AC0
:102DD0001A70436A01334362438D9BB2013B9BB23D
:102DE0004385704782B0002301930E4B1B68DB08BC
:102DF0000D4AA2FB03231B0A03EB83030193019BF0
:102E0000013B0193019B33B103681B6813F4007FFE
:102E1000F5D1002004E0036C43F02003036401209B
:102E200002B070470800002089B5F814C36AB3F5F2
:102E30002A0F04D0C36AB3F12A4F03D0704701238D
:102E4000C36270470823C362F8E70000002800F05F
:102E5000CC8070B5044690F83D30002B77D0242309
:102E600084F83D302268136823F001031360226860
:102E7000136843F4004313602268136823F400438B
:102E8000136001F0FBF962685A4B9A4264D85A4BBE
:102E900098428CBF00230123002B40F0A8805749A3
:102EA000A1FB00318B0C25686A6822F03F0242EAE0
:102EB00091426A6021680A6A22F03F0266684D4DBD
:102EC000AE424FD8013313430B622168CA6922F422
:102ED0004F4222F0FF026568464B9D424CD8431E8C
:102EE0006D00B3FBF5F3013340F6FC70034278D07C
:102EF000C3F30B031A43CA6121680B6823F0C003B4
:102F0000E269206A024313430B6021688B6823F453
:102F1000034323F0FF032269E068024313438B60FD
:102F20002168CB6823F0FF036269A0690243134361
:102F3000CB602268136843F0010313600020206413
:102F4000202384F83D30206384F83E0070BD80F873
:102F50003C30FEF7CFFF82E7294B98428CBF00231D
:102F6000012399E74FF4967505FB03F3254DA5FB67
:102F700003539B090133A6E7A668BEB9431E05EBC0
:102F8000450CB3FBFCF30133C3F30B03B3FA83F338
:102F90005B0943BBC6B9431E05EB4505B3FBF5F31F
:102FA0000133C3F30B0343F40043A3E7431E05EBD4
:102FB000850C0CEB8C0CB3FBFCF30133C3F30B035C
:102FC000B3FA83F35B09E4E7431E05EB850505EBE4
:102FD0008505B3FBF5F30133C3F30B0343F440431F
:102FE00088E7042386E7012384E701207047012056
:102FF000ACE700BFA08601007F841E0083DE1B4378
:10300000FF083D00D34D621070477047704708B508
:1030100090F83D30DAB2438D9BB283B1416A0368C8
:1030200009781961436A01334362438D9BB2013BC6
:103030009BB24385438D9BB20BB9292A00D008BDB2
:103040000268536823F480635360212303632823B9
:1030500080F83D30FFF7DAFFF1E7704708B590F8E8
:103060003D30DAB2438D9BB283B103681969436A7C
:103070001970436A01334362438D9BB2013B9BB29B
:103080004385438D9BB20BB92A2A00D008BD026844
:10309000536823F48063536022230363282380F85A
:1030A0003D30FFF7DAFFF1E7704700B583B090F8E5
:1030B0003D3003F02803282B0CD000230193026835
:1030C0005169019192690192019A80F83C3003B0F4
:1030D0005DF804FB0268536823F48063536011F0C9
:1030E000040F0BD0002311F0800F09D18289002139
:1030F00080F83C101946FFF7D7FFE8E70123F2E715
:10310000028BF4E77047000010B5044690F83D309C
:10311000DBB2C26A082A01D0202A01D1282B06D0AE
:10312000212B1FD023686FF480625A6110BD1D4BA4
:10313000E3622268536823F4E063536023686FF40A
:1031400080625A612268136823F48063136000234D
:103150002363202284F83D2084F83E302046FFF788
:10316000D1FFE3E70F4BE36221232363202384F89D
:103170003D30002384F83E302268536823F4E06336
:10318000536023686FF480625A612268136823F4E5
:10319000806313602046FFF77BFC2046FFF736FF75
:1031A000C4E700BF0000FFFF704708B5C26A90F88F
:1031B0003D30DBB2212B00D008BD438D9BB263B103
:1031C000426A036812781A61436A01334362438D8D
:1031D0009BB2013B9BB24385EEE7082A04D0202A2C
:1031E00002D012F5803F19D10268536823F4E063DE
:1031F00053600268136843F4007313600023036391
:10320000202380F83D3090F83E30DBB2402B15D0C3
:10321000002380F83E30FFF7F7FECDE702685368E1
:1032200023F4E063536011230363002380F83E30EE
:10323000202380F83D30FFF7E7FEBDE7002380F84C
:103240003E30FFF7B1FFB7E708B590F83D30026DAB
:103250009AB9C36C012B08D0836CC3F307230268AF
:103260001361036D0133036508BD836C0268DBB233
:103270001361036D02330365F6E7DBB2026D012AC9
:1032800023D0026D022A3ED1222B26D0428D92B24B
:103290000AB1212B2AD0428D92B2002AE4D1212BEF
:1032A000E2D10268536823F4E06353600268136854
:1032B00043F40073136000230363202280F83D2051
:1032C00080F83E30FFF770FFCEE7836C0268DBB218
:1032D0001361036D01330365C6E70268136843F4A5
:1032E00080731360036D01330365BDE7426A0368B1
:1032F00012781A61436A01334362438D9BB2013BEA
:103300009BB24385B0E7FFF7C3FBADE710B590F87C
:103310003D30DBB290F83E20D2B2C46A018D002964
:103320003BD1212B02D0402A42D010BD082C04D022
:10333000202C02D014F5803F19D10268536823F481
:10334000E06353600268136843F400731360002362
:103350000363202380F83D3090F83E30DBB2402BF1
:1033600015D0002380F83E30FFF74EFEDDE70268FF
:10337000536823F4E063536011230363002380F850
:103380003E30202380F83D30FFF73EFECDE700239E
:1033900080F83E30FFF708FFC7E7212BC3D1438DEC
:1033A0009BB243B90268536823F480635360BCE75F
:1033B000222BBAD1F3E790F83E30DBB2402B0CD091
:1033C000426A036812781A61436A01334362438D8B
:1033D0009BB2013B9BB24385A7E7FFF735FFA4E70C
:1033E000704708B5C26A438D9BB2042B14D0438D3D
:1033F0009BB2032B22D0438D9BB2022B39D00368A2
:103400001A69436A1A70436A01334362438D9BB25F
:10341000013B9BB2438510E00268536823F480634C
:10342000536003681A69436A1A70436A013343623E
:10343000438D9BB2013B9BB2438508BD01684B683D
:1034400023F480634B60042A06D0022A04D0026869
:10345000136823F48063136003681A69436A1A705F
:10346000436A01334362438D9BB2013B9BB2438568
:10347000E3E7531E0F2B42D8DFE803F0083B413B44
:1034800041414141414141414141410801680B688D
:1034900023F480630B6003681969436A1970416AF9
:1034A0004B1C4362438D9BB2013B9BB24385036837
:1034B0001B694B70436A01334362438D9BB2013BEE
:1034C0009BB2438501684B6823F440734B60202313
:1034D00080F83D3090F83E30DBB2402B15D0002311
:1034E00080F83E30082A17D0202A15D01223036313
:1034F00014E001680B6843F480630B60CBE701685C
:103500000B6843F400730B60C5E7002380F83E307E
:103510000363FFF765FF90E700230363FFF775FD83
:103520008BE7704738B590F83D30DBB2222B00D0E6
:1035300038BD0446C56A438D9BB2032B15D9036879
:103540001A69436A1A70436A01334362438D9BB21E
:10355000013B9BB24385438D9BB2032BE8D10268AC
:10356000536823F480635360E2E7C26A022A01D001
:10357000012B05D92268536823F480635360D7E791
:10358000FFF730FC002835D12268136823F48063EC
:1035900013602268536823F4E063536023681A6958
:1035A000636A1A70636A01336362638D9BB2013B85
:1035B0009BB26385202384F83D3094F83E30DBB223
:1035C000402B09D0002384F83E30082D0CD0202D4C
:1035D0000AD01223236309E0002384F83E302363DA
:1035E0002046FFF7FDFEA3E7002323632046FFF7F5
:1035F0000CFD9DE72268536823F4E0635360236861
:103600001A69636A1A70636A01336362638D9BB2DD
:10361000013B9BB26385202384F83D30002384F86E
:103620003E302046FFF77DFF82E7704700B583B04C
:1036300000230193806B90F83D20D2B2324B1B687F
:10364000DB083249A1FB03131B0A03EB8303C3EB23
:10365000C3030193019B43B1019B013B01930368A9
:103660001B6813F4007FF5D103E0036C43F02003E3
:103670000364436B0BB10021D963836B0BB1002151
:10368000D96301680B6823F480630B6000234385D2
:10369000436B0BB100211965836B0BB100211965D8
:1036A00001680B6823F001030B6090F83D30DBB23A
:1036B000602B0ED002F02802282A14D0202380F894
:1036C0003D30002380F83E30FFF72BFF03B05DF85C
:1036D00004FB202380F83D30002380F83E30036453
:1036E000FFF7A3FFF2E70268136843F001031360DA
:1036F0000268136843F48063136000230363282384
:1037000080F83D30E0E700BF0800002089B5F814DC
:1037100010B5044690F83D30DBB290F83E20D2B2AE
:10372000102A36D0402A34D003F02802282A38D074
:103730002268526812F4006F07D1602B05D0202355
:1037400084F83D30002384F83E300023236323684F
:103750005A6812F4006F48D05A6822F400625A6026
:10376000626B92F83530DBB2012B20D0444B1365ED
:10377000606BFEF787FF002849D02268136823F0AA
:1037800001031360202384F83D30606B036D98477C
:103790003DE0222BC8D121680A6822F400620A6049
:1037A000C2E700232363282384F83D30CFE7A36BCF
:1037B000334A1A65A06BFEF765FF40B323685A6968
:1037C00012F0400F05D01A69636A1A70636A0133F8
:1037D00063622268136823F001031360202384F8D6
:1037E0003D30A06B036D984711E094F83D20D2B2B4
:1037F000602A1FD05A6912F0400F05D01A69636A17
:103800001A70636A013363622046FFF78AFE236CF5
:1038100013F00F0F04D02268536823F4E063536061
:1038200094F83D30DBB2226C12F0040F01D0282B4B
:1038300018D010BD202284F83D20002222645A694D
:1038400012F0400F05D01A69636A1A70636A013377
:1038500063622268136823F0010313602046FFF7B8
:10386000E4FED4E7074BE36200232363202284F8BD
:103870003D2084F83E302046FFF744FCD9E700BFE6
:103880002D3600080000FFFF30B583B0044690F8E5
:103890003D50EDB20268536823F4E06353600023A7
:1038A000019303685A6901921A6842F001021A6092
:1038B000019B0268136823F48063136003685A68ED
:1038C00012F4006F38D0222D21D02A2D1FD0426B48
:1038D0001268526892B24285428D92B21AB1026C5D
:1038E00042F0040202645A6822F400625A60606B7B
:1038F000FEF7CAFF01281FD0636B444A1A65606B4C
:10390000FEF7C0FEC0B1606B036D984714E0A26B78
:103910001268526892B26285628D92B21AB1226CBC
:1039200042F0040222645A6822F400625A60A06BDA
:10393000FEF7AAFF012842D1638D9BB233B32368FF
:103940005A6912F0040F0AD01A69636A1A70636A1E
:1039500001336362638D9BB2013B9BB26385236835
:103960005A6912F0400F0AD01A69636A1A70636AC2
:1039700001336362638D9BB2013B9BB26385638DB0
:103980009BB21BB1236C43F004032364236C13BB71
:103990002A2D25D094F83D30DBB2282B29D0236B7B
:1039A000222B01D0222D19D100232363202284F859
:1039B0003D2084F83E302046FFF74FFB0EE0A36B1E
:1039C000124A1A65A06BFEF75DFE0028B4D0A06B0A
:1039D000036D9847B0E72046FFF79AFE03B030BD6D
:1039E00000232363282384F83D302046FFF735FB6E
:1039F000D0E7074BE36200232363202284F83D20B5
:103A000084F83E302046FFF77DFBE7E72D360008BF
:103A10000000FFFFF8B5044602685568C66A90F8D2
:103A20003E30DBB290F83D10C8B2102B13D0402BC3
:103A300011D0236C002B7AD05369002113F0020FB0
:103A400078D015F4007F75D0236C03B191692046BE
:103A5000FFF72BFBF8BDD2F818C0516911F0010730
:103A600005D1B6F52A0FF5D0B6F12A4FF2D017B12D
:103A700015F4007F29D111F0080F02D015F4007F52
:103A80002AD111F0020F02D015F4007F28D11CF0CA
:103A9000040F31D0526812F4006FDBD111F0800FA7
:103AA00005D015F4806F02D011F0040F1CD011F076
:103AB000040FCFD015F4007FCCD0212818D0402B94
:103AC000C8D12046FFF7C0FBC4E72046FFF7AEF998
:103AD0002046FEF7E5FFBDE72046FFF735F8B9E7DA
:103AE0002046FFF747F8B5E72046FFF70FFCB1E7A0
:103AF0002046FFF75AFBADE7536813F4006FA9D1D6
:103B000011F0400F05D015F4806F02D011F0040FB2
:103B100009D011F0040F9DD015F4007F9AD02046F3
:103B2000FFF75FFC96E72046FFF7FCFC92E7916900
:103B3000536983E713F0100F02D015F4007F18D1FA
:103B400021281AD0292818D013F0400F05D015F4D9
:103B5000806F02D013F0040F28D013F0040F3FF44D
:103B600079AF15F4007F3FF475AF2046FFF72AF9CF
:103B700070E72046FFF788FE6CE713F0800F05D052
:103B800015F4806F02D013F0040F0BD013F0040F64
:103B90003FF460AF15F4007F3FF45CAF2046FFF7C1
:103BA00001F957E72046FFF732FA53E72046FFF7BF
:103BB00055FA4FE7F8B5044603685D695F6890F809
:103BC0003E20D2B215F4807606D017F4807603D06A
:103BD0006FF480715961012615F4007F08D017F445
:103BE000807F05D046F0020623686FF400715961AA
:103BF00015F4806F19D017F4807F16D0638D99B2B9
:103C000094F83D30DBB2206B202A1BD023686FF480
:103C10008061596146F00406102A01D0402A04D17F
:103C20002268136843F40073136015F4006F17D013
:103C300017F4807F14D046F0080623686FF4006202
:103C40005A610EE00029E1D1212B05D0292B03D0A8
:103C5000282BDBD12128D9D12046FFF755FAE4E7FC
:103C60002EB1236C334323642046FFF751FDF8BD8A
:103C7000002800F0E08170B582B00446036813F0BC
:103C8000010F3BD09F4B9B6803F00C03042B2CD0FF
:103C90009C4B9B6803F00C03082B21D06368B3F5A1
:103CA000803F4FD0B3F5A02F52D0964B1A6822F424
:103CB00080321A601A6822F480221A606368002B2E
:103CC00050D0FEF77BFB05468E4B1B6813F4003F7C
:103CD00014D1FEF773FB401B6428F5D90320B1E132
:103CE000884B5B6813F4800FD8D0864B1B6813F4A5
:103CF000003F03D06368002B00F09F81236813F01E
:103D0000020F54D07F4B9B6813F00C0F3ED07D4BBD
:103D10009B6803F00C03082B33D0E368002B68D0BA
:103D2000794B01221A60FEF749FB0546754B1B686B
:103D300013F0020F54D1FEF741FB401B0228F5D9C6
:103D400003207FE16F4A136843F480331360B5E7C3
:103D50006C4B1A6842F480221A601A6842F480326E
:103D60001A60ABE7FEF72AFB0546664B1B6813F4A7
:103D7000003FC3D0FEF722FB401B6428F5D9032087
:103D800060E1604B5B6813F4800FC6D15D4B1B682C
:103D900013F0020F03D0E368012B40F05081594A21
:103DA000136823F0F803216943EAC1031360236811
:103DB00013F0080F42D063696BB3534B0122C3F871
:103DC000802EFEF7FBFA05464E4B5B6F13F0020F99
:103DD00034D1FEF7F3FA401B0228F5D9032031E174
:103DE000484A136823F0F803216943EAC1031360CA
:103DF000DDE7454B00221A60FEF7E0FA0546414B2D
:103E00001B6813F0020FD2D0FEF7D8FA401B02282D
:103E1000F5D9032016E13C4B0022C3F8802EFEF7B3
:103E2000CDFA0546374B5B6F13F0020F06D0FEF755
:103E3000C5FA401B0228F5D9032003E1236813F0DB
:103E4000040F77D02F4B1B6C13F0805F33D100230E
:103E500001932C4B1A6C42F080521A641B6C03F0D5
:103E600080530193019B0125284B1B6813F4807F2D
:103E700023D0A368012B34D0052B38D0214B1A6FE7
:103E800022F001021A671A6F22F004021A67A3686F
:103E9000002B3DD0FEF792FA06461A4B1B6F13F02B
:103EA000020F46D1FEF78AFA801B41F2883398420E
:103EB000F3D90320C6E00025D6E7144A136843F47B
:103EC00080731360FEF77AFA0646104B1B6813F4F2
:103ED000807FCED1FEF772FA801B0228F5D903202D
:103EE000B0E0084A136F43F001031367CFE7054BB7
:103EF0001A6F42F004021A671A6F42F001021A6741
:103F0000C5E700BF00380240000047420070004093
:103F1000FEF754FA0646524B1B6F13F0020F08D0FF
:103F2000FEF74CFA801B41F288339842F3D9032004
:103F300088E0EDB9A369002B00F08380484A9268BD
:103F400002F00C02082A51D0022B17D0454B002258
:103F50001A66FEF733FA0446414B1B6813F0007FE4
:103F600042D0FEF72BFA001B0228F5D9032069E0A6
:103F70003B4A136C23F080531364DBE7394B002278
:103F80001A66FEF71BFA0546354B1B6813F0007FD7
:103F900006D0FEF713FA401B0228F5D9032051E0A2
:103FA000E369226A1343626A43EA8213A26A5208EF
:103FB000013A43EA0243E26A43EA0263284A536051
:103FC000284B01221A66FEF7F9F90446244B1B68B8
:103FD00013F0007F06D1FEF7F1F9001B0228F5D996
:103FE00003202FE000202DE000202BE0012B2BD020
:103FF0001B4B5B6803F48001E269914226D103F018
:104000003F02216A8A4223D1616A47F6C0721A4090
:10401000B2EB811F1ED103F44031A26A5208013A6B
:10402000B1EB024F18D103F07063E26AB3EB026F99
:1040300014D1002006E001207047012002E0012099
:1040400000E0002002B070BD0120FBE70120F9E78D
:104050000120F7E70120F5E70120F3E70120F1E770
:10406000003802400000474208B5264B9B6803F029
:104070000C03042B41D0082B41D1224B5A6802F08B
:104080003F025B6813F4800F12D01E4B5968C1F3D6
:1040900088111D480023A1FB0001FCF7C5FD194B49
:1040A0005B68C3F3014301335B00B0FBF3F027E02F
:1040B000144B5868C0F388104FEA401CBCEB000C4E
:1040C0006EEB0E0E4FEA8E1343EA9C634FEA8C119F
:1040D000B1EB0C0163EB0E03DB0043EA5173C90043
:1040E00011EB000C43F10003990200234FEA8C20EE
:1040F00041EA9C51FCF798FDD1E7034800E00348F2
:1041000008BD00BF0038024040787D010024F40063
:10411000002800F09B8070B50D4604464F4B1B688D
:1041200003F007038B4208D2CBB24C4A13701368DA
:1041300003F007038B4240F08B80236813F0020FDB
:1041400017D013F0040F04D0454A936843F4E053AA
:104150009360236813F0080F04D0414A936843F436
:10416000604393603E4A936823F0F003A1680B43D9
:104170009360236813F0010F32D06368012B21D0C4
:104180009A1E012A25D9364A126812F0020F61D010
:1041900033498A6822F0030213438B60FEF70EF95D
:1041A00006462F4B9B6803F00C036268B3EB820F4B
:1041B00016D0FEF703F9801B41F288339842F0D9FC
:1041C000032042E0264A126812F4003FE0D10120A9
:1041D0003BE0234A126812F0007FD9D1012034E07D
:1041E0001E4B1B6803F00703AB4207D9EAB21B4B17
:1041F0001A701B6803F00703AB422DD1236813F03C
:10420000040F06D0164A936823F4E053E1680B4389
:104210009360236813F0080F07D0114A936823F4C2
:104220006043216943EAC1039360FFF71DFF0C4B14
:104230009B68C3F303130B4AD35CD8400A4B186046
:104240000A4B1868FEF76EF8002070BD0120704719
:104250000120FAE70120F8E70120F6E7003C0240E0
:1042600000380240209900080800002010000020BB
:10427000014B1868704700BF0800002008B5FFF721
:10428000F7FF044B9B68C3F38223034AD35CD840F7
:1042900008BD00BF003802401899000808B5FFF7B4
:1042A000E7FF044B9B68C3F34233034AD35CD84017
:1042B00008BD00BF00380240189900082DE9F047FA
:1042C00082B00546884617461E46FEF777F80A9BD9
:1042D0001B1A03EB0609FEF771F88246284B1B6890
:1042E000C3F3CB3309FB03F301932B689C6838EAD3
:1042F00004040CBF01230023BB423DD0B6F1FF3FB5
:10430000F3D0FEF75BF8A0EB0A00484507D2019A0C
:1043100002B14A46019B013B01939146E5E72A68B9
:10432000536823F0E00353606B68B3F5827F0BD0D2
:10433000AB6AB3F5005F14D0012385F85130002338
:1043400085F85030032018E0AB68B3F5004F02D079
:10435000B3F5806FECD12A68136823F04003136033
:10436000E6E72A68136823F4005313602A68136889
:1043700043F400531360DFE7002002B0BDE8F0878C
:104380000800002070B584B004460D461646009221
:104390000B4601220221FFF791FFD0B9174B1B6892
:1043A000174AA2FB03235B0D4FF47A7202FB03F35F
:1043B00003936368B3F5827F11D0039B3BB1039BEA
:1043C000013B039323689B6813F0800FF5D104B081
:1043D00070BD636D43F0200363650320F7E700962B
:1043E0002B46002280212046FFF768FF0028EED0F0
:1043F000636D43F0200363650320E8E708000020B5
:10440000819F5E1610B582B004460B464168B1F537
:10441000827F14D06168B1F5827F2AD1A168B1F59D
:10442000806F19D00092002280212046FFF746FFBE
:1044300030B3636D43F020036365032020E081689F
:10444000B1F5004F02D0B1F5806FE3D1206801686B
:1044500021F040010160DDE70092002201212046A9
:10446000FFF72CFF60B1636D43F020036365032009
:1044700006E00092002201212046FFF71FFF08B945
:1044800002B010BD636D43F0200363650320F7E7BE
:1044900000285AD010B50446436A33B94368B3F5CF
:1044A000827F05D00023C36102E0002303614361E2
:1044B0000023A36294F85130002B40D0022384F8EB
:1044C00051302268136823F040031360636803F4DB
:1044D0008273A26802F404421343E26802F40062A9
:1044E0001343226902F002021343626902F00102DF
:1044F0001343A26902F400721343E26902F0380226
:104500001343226A02F080021343A26A02F40052AB
:10451000216813430B60638B03F00403626A02F0AB
:104520001002216813434B602268D36923F40063AF
:10453000D36100206065012384F8513010BD84F8F8
:1045400050302046FDF748FDB8E7012070472DE9BF
:10455000F04383B00446894690461D46FDF72EFF82
:1045600094F85160F6B2012E40F0CC800746B9F1C4
:10457000000F00F0C880B8F1000F00F0C48094F87C
:104580005030012B00F0C380012384F85030032306
:1045900084F8513000236365C4F83090A4F8348067
:1045A000A4F83680A363A387E38763642364A368C6
:1045B000B3F5004F1ED023681A6812F0400F03D1E4
:1045C0001A6842F040021A60E368B3F5006F1CD02D
:1045D000636813B1B8F1010F5FD1226B23681278C1
:1045E0001A73236B01332363E38E9BB2013B9BB2AF
:1045F000E38652E02268136823F0400313602268C8
:10460000136843F480431360D5E7636813B1B8F1CE
:10461000010F15D1226B23681288DA60236B0233F5
:104620002363E38E9BB2013B9BB2E38608E0FDF778
:10463000C5FEC01BA84202D3B5F1FF3F15D1A5B1FD
:10464000E38E9BB2002B42D023689A6812F0020FCF
:10465000EDD0226B1288DA60236B02332363E38E82
:104660009BB2013B9BB2E386EAE7012384F8513019
:10467000002384F85030032645E0226B12781A7329
:10468000236B01332363B4F836C01FFA8CFC0CF1A2
:10469000FF3C1FFA8CFCA4F836C0E38E9BB2B3B18A
:1046A00023689A6812F0020FE7D1FDF787FEC01B5E
:1046B000A84202D3B5F1FF3F01D1002DEDD1012376
:1046C00084F85130002384F8503003261BE03A462A
:1046D00029462046FFF756FE08B120236365A368EC
:1046E00033B901932368DA6801929B680193019BB7
:1046F000012384F85130002384F85030636D13B9DE
:10470000002600E00226304603B0BDE8F083022612
:10471000F9E72DE9F04383B00446884691461F46E9
:104720000A9DFDF74BFE064694F85130DBB26268F5
:10473000012B0AD0B2F5827F40F00581A268002AE1
:1047400040F00581042B40F00481B8F1000F00F027
:104750000281B9F1000F00F00081002F00F0FF800E
:1047600094F85030012B00F0FC80012384F8503085
:1047700094F85130DBB2042B02D0052384F8513079
:1047800000236365C4F83890E787A787C4F83080B2
:10479000E786A7862364636423681A6812F0400FD3
:1047A00003D11A6842F040021A60E368B3F5006F63
:1047B00011D063680BB1012F0BD1226B23681278E3
:1047C0001A73236B01332363E38E9BB2013B9BB2CD
:1047D000E386012771E063680BB1012F0BD1226BD7
:1047E00023681288DA60236B02332363E38E9BB263
:1047F000013B9BB2E38601271BE023689A6812F015
:10480000010F0ED0E28F92B25AB1DA68A36B1A8010
:10481000A36B0233A363E38F9BB2013B9BB2E3879D
:104820000127FDF7CBFD801BA84202D3B5F1FF3F66
:104830001ED1E38E9BB21BB9E38F9BB2002B62D0DB
:1048400023689A6812F0020FD7D0E28E92B2002A43
:10485000D3D0002FD1D0226B1288DA60236B0233C1
:104860002363E38E9BB2013B9BB2E3860027C4E740
:10487000012384F85130002384F85030032063E092
:1048800023689A6812F0010F0ED0E28F92B25AB1EB
:10489000DA68A36B1A70A36B0133A363E38F9BB237
:1048A000013B9BB2E3870127FDF788FD831BAB42E9
:1048B00002D3B5F1FF3F1ED1EDB1E38E9BB213B928
:1048C000E38F9BB2FBB123689A6812F0020FD7D036
:1048D000E28E92B2002AD3D0002FD1D0226B127870
:1048E0001A73236B01332363E38E9BB2013B9BB2AC
:1048F000E3860027C4E7012384F85130002384F8BD
:104900005030032020E0324629462046FFF73AFD8A
:1049100090B9A36833B901932368DA6801929B6860
:104920000193019B012384F85130002384F8503017
:10493000636D4BB1012007E020236365002384F8F9
:104940005030012000E0022003B0BDE8F0830220D7
:10495000FAE70220F8E70120F6E70120F4E701205A
:10496000F2E70220F0E72DE9F04383B090F85160C0
:10497000F6B2012E40F0B4800446894690461D46AA
:104980004368B3F5827F01D1836893B3FDF716FDC9
:104990000746B9F1000F00F0A480B8F1000F00F055
:1049A000A08094F85030012B00F09F80012384F800
:1049B0005030042384F8513000236365C4F83890E4
:1049C000A4F83C80A4F83E802363A386E386236496
:1049D0006364A368B3F5004F15D023681A6812F01A
:1049E000400F03D11A6842F040021A60E368F3B145
:1049F00043E0042380F85130009513460A46FFF740
:104A000088FE06466DE02268136823F040031360B9
:104A10002268136823F480431360DEE7FDF7CEFCC1
:104A2000C01BA84202D3B5F1FF3F15D1A5B1E38F5A
:104A30009BB2002B42D023689A6812F0010FEDD090
:104A4000A26B1B7B1370A36B0133A363E38F9BB239
:104A5000013B9BB2E387EAE7012384F8513000234E
:104A600084F8503003263CE0FDF7A8FCC01BA842A8
:104A700002D3B5F1FF3F19D1C5B1E38F9BB2EBB1C2
:104A800023689A6812F0010FEED0DA68A36B1A80DF
:104A9000A36B0233A363B4F83EC01FFA8CFC0CF185
:104AA000FF3C1FFA8CFCA4F83EC0E6E7012384F823
:104AB0005130002384F85030032612E03A4629464C
:104AC0002046FFF79FFC08B120236365012384F88B
:104AD0005130002384F85030636D13B9002600E094
:104AE0000226304603B0BDE8F0830226F9E790F8CD
:104AF00051007047026802F10C0353E8003F23F4B1
:104B000090730C3242E800310029F3D1026802F1BF
:104B1000140353E8003F23F00103143242E800314C
:104B20000029F3D1036B012B05D0202380F84230FC
:104B3000002303637047026802F10C0353E8003F4F
:104B400023F010030C3242E800310029F3D1ECE7E6
:104B500010B504460268136923F44053C1680B433F
:104B60001361836802691A4343691A43C3691A438C
:104B70000168CB6823F4164323F00C031343CB6086
:104B80000268536923F4407381690B4353610368DE
:104B9000314A934206D002F58062934202D0FFF779
:104BA0006DFB01E0FFF77AFBE369B3F5004F29D015
:104BB0000021031849411B1841F10001C90041EAD5
:104BC0005371DB00181863684FEA83024FEA93734E
:104BD00041F10001FCF728F8204AA2FB0031490905
:104BE000642303FB11031B013233A2FB03235B0984
:104BF00003F0F00202EB011203F00F0321681344EB
:104C00008B6010BD0023021843EB0301121841F121
:104C10000001C90041EA5271D200101841F10001AF
:104C2000626892185B41FBF7FFFF0C4AA2FB003160
:104C30004909642303FB1103DB003233A2FB032386
:104C40005B095A0002F4F87202EB011203F0070349
:104C5000216813448B60D4E7001001401F85EB519D
:104C60002DE9F04383B005460E4617469946DDF818
:104C700028802B681C6836EA04040CBF0124002439
:104C8000BC4228D1B8F1FF3FF3D0FDF797FBA0EB72
:104C90000900404523D8B8F1000F22D02B68DA680C
:104CA00012F0040FE5D0802EE3D0402EE1D01A6838
:104CB00012F0080FDDD0002401941A6801925B689D
:104CC0000193019B2846FFF715FF08236B6485F8C5
:104CD0004040012000E0002003B0BDE8F083032045
:104CE000FAE70320F8E760B310B5044690F84130C6
:104CF00013B3242384F841302268D36823F400538B
:104D0000D3602046FFF724FF2268136923F4904301
:104D100013612268536923F02A0353612268D36820
:104D200043F40053D36000206064202384F84130B2
:104D300084F84230606310BD80F84030FDF702FA1D
:104D4000D7E7012070472DE9F04182B01E4690F868
:104D50004130DBB2202B56D104460D469046002947
:104D600055D00AB901204FE000234364212380F885
:104D70004130FDF723FB0746A4F82480A4F82680E1
:104D8000A368B3F5805F02D04FF0000814E02369F8
:104D90002BB34FF000080FE0202384F841300320AC
:104DA00032E038F8023B2268C3F308035360E28C18
:104DB00092B2013A92B2E284E38C9BB293B1009634
:104DC0003B46002280212046FFF74AFF0028E3D11E
:104DD000002DE6D015F8012B23685A60E7E7A846B6
:104DE0000025E9E700963B46002240212046FFF7D8
:104DF00037FF18B9202384F8413005E0202384F8D8
:104E00004130032000E0022002B0BDE8F081012023
:104E1000FAE70000002310B50446C0E90033C0E9FA
:104E20000433836081814366C2818361194608220D
:104E30005C3000F028F90D4B23620D4B63620D4B83
:104E4000A3620D4BE3620D4BE4619C4206D003F17B
:104E50006802944202D0D0339C4205D104F158003C
:104E6000BDE8104000F088B910BD00BF0150000837
:104E7000235000085B5000087F500008940A00206F
:104E8000024A0349034800F069B800BF140000203B
:104E9000FD6B00082800002041680C4B994210B5BA
:104EA000044601D001F0AAFEA168094B994202D044
:104EB000204601F0A3FEE168064B994204D020464B
:104EC000BDE8104001F09ABE10BD00BF940A00205A
:104ED000FC0A0020640B002010B50B4B0B4C0C4A55
:104EE0001A60204600220421FFF794FF04F16800B5
:104EF00001220921FFF78EFF04F1D0000222BDE854
:104F000010401221FFF786BFCC0B0020940A00202E
:104F1000814E0008014800F031B900BFD60B0020D7
:104F2000014800F02CB900BFD60B002010B5044694
:104F3000FFF7F0FF636B1BB1BDE81040FFF7F0BF58
:104F4000044B6363044B1B68002BF5D1FFF7C4FFD0
:104F5000F2E700BF994E0008CC0B00202DE9F84382
:104F60000746884614460026D4E90195B9F101099F
:104F700005D52468002CF7D13046BDE8F883AB890D
:104F8000012B07D9B5F90E30013303D02946384635
:104F9000C04706436835E9E70CB430B5174B0C1E23
:104FA0001D689DB008DA8B232B604FF0FF301DB0D9
:104FB000BDE8304002B070474FF40273ADF81430D2
:104FC00014BF04F1FF332346049307934FF6FF7396
:104FD00002900690ADF81630209A21AB02A928461F
:104FE000019300F047FC431CBCBF8B232B60002CBB
:104FF000DDD0029B00221A70D9E700BF20000020FC
:1050000010B50C46B1F90E1000F068F80028ABBFDF
:10501000236DA3891B1823F48053ACBF2365A381A0
:1050200010BD2DE9F0411F468B89DB0505460C4676
:10503000164605D5B1F90E100223002200F03CF807
:10504000A389B4F90E1023F48053A38132463B4662
:105050002846BDE8F04100F053B810B50C46B1F950
:105060000E1000F029F8431CA38915BF206523F416
:10507000805343F48053A38118BFA38110BDB1F9BD
:105080000E1000F009B802440346934200D1704765
:1050900003F8011BF9E7000038B5064D002304466C
:1050A00008462B60FDF7E2F8431C02D12B6803B1E0
:1050B000236038BDD00B002038B5074D04460846A4
:1050C000114600222A601A46FDF7DAF8431C02D185
:1050D0002B6803B1236038BDD00B002038B5074DD5
:1050E00004460846114600222A601A46FDF7A0F839
:1050F000431C02D12B6803B1236038BDD00B0020C4
:1051000038B5074D04460846114600222A601A4663
:10511000FDF79EF8431C02D12B6803B1236038BD14
:10512000D00B0020014B1868704700BF2000002002
:1051300070B50D4D0D4C641BA4100026A64209D17C
:105140000B4D0C4C04F082FB641BA4100026A642FD
:1051500005D170BD55F8043B98470136EEE755F888
:10516000043B98470136F2E7C89C0008C89C000839
:10517000C89C0008D09C0008704770477047704773
:105180000A44914200F1FF3300D1704710B511F885
:10519000014B03F8014F9142F9D110BD024B13B1FD
:1051A000024800F005B8704700000000496E000892
:1051B000002301461A46184601F09ABE2DE9F8432D
:1051C00006460820894601F053FE244F80463046AB
:1051D00000F044FBBB685D6825F00305A5F11104F0
:1051E000A4EB09044444B4FBF8F4013C08FB04F4C8
:1051F000A04505DD304600F037FB0020BDE8F88310
:105200000021304601F010FEBB682B449842F1D1DA
:105210006142304601F008FE013010D100213046D5
:1052200001F002FEBA68831A0F2BE3DD0C4909680E
:10523000401A0C4943F0010308605360DAE7BB6889
:10524000084A2D1B45F001055D60136830461B1BA5
:10525000136000F009FB0120D0E700BF54010020DB
:105260004C010020DC0B0020F8B504460F46002955
:1052700000F0B18000F0F2FA57F8042C564D22F0FD
:105280000100A7F1080303EB000CA968DCF8046037
:10529000614526F0030602F001021BD106443AB92B
:1052A00057F8082C9B1A1644D3E90212CA60916081
:1052B00046F001025A60AB60484B1B68B34204D809
:1052C000474B20461968FFF779FF2046BDE8F840B4
:1052D00000F0CABACCF80460002A38D157F8081C8C
:1052E0005B1A0844996805F10807B94231D0DF68B4
:1052F000CF60B9600CEB06014968C9070BD4DCF834
:10530000081030443ABB374EB14224D1C5E90433CA
:10531000C3E90211012240F0010159601850002A2E
:10532000D3D1B0F5007F1BD2C208012140098140D2
:10533000686801320143696055F8320005EBC2012B
:105340000839C3E9020145F83230C360BDE70022E5
:10535000D0E70122CEE7DCF80C60CE60B160DAE77E
:10536000B0F5206F4FEA502214D282093832511C16
:1053700005EBC20655F831108E4225D1012092105E
:1053800000FA02F2686802436A60C3E90216B36079
:10539000CB609AE7142A01D85B32E8E7542A02D896
:1053A000020B6E32E3E7B2F5AA7F02D8C20B773266
:1053B000DDE740F254518A429ABF820C7C327E2251
:1053C000D5E789688E4204D04A6822F003028242FF
:1053D000F7D8CE68D9E7F8BD54010020500100206D
:1053E0000C0C00205C01002001F10B03162B2DE9B1
:1053F000F74F054606D933F0070704D50C232B6079
:105400000024A1E11027B942F8D8284600F026FA76
:10541000B7F5FC7FAE4E37D207F108023244A2F155
:10542000080154688C424FEAD70302D1D468A242E3
:1054300010D06368D4E9021223F00303CA60234446
:1054400091605A6842F001025A60284600F00CFA56
:10545000083479E1023334699E498C4277D062681E
:1054600022F0030CACEB07000F2848DDE21940F0F6
:10547000010347F001076760C6E90422C2E902118F
:10548000536044F80C00E0E77B0A2AD0042B12D8C2
:10549000BB0938335A1C06EBC202A2F1080C54684F
:1054A000644506D0626822F00302D01B0F281CDD81
:1054B000013B0133CFE7142B01D85B33EAE7542BD0
:1054C00002D83B0B6E33E5E7B3F5AA7F02D8FB0B9E
:1054D0007733DFE740F25452934204D8BB0C7C335D
:1054E000D8E73F23D6E77E23D4E70028E16804DB32
:1054F000A368D9608B60A318A3E70C46D0E7002807
:10550000C6E9041107DBA444DCF8043043F00103CE
:10551000CCF8043099E7BCF5007F706880F0938088
:105520004FEADC024FEA5C1E4FF0010C01320CFA2C
:105530000EFC4CEA0000706056F832C006EBC20068
:105540000838C4E902C046F83240CCF80C40981044
:10555000012282407068904226D3104206D123F087
:1055600003035200104203F10403FAD006EBC30810
:10557000C1469E46D9F80C404C4540F0B7800EF12C
:10558000010E1EF0030F09F10809F3D1980740F04E
:10559000E180736823EA02037360706852009042EE
:1055A00002D3002A40F0E380D6F808A0DAF80430ED
:1055B00023F00309B94504D3A9EB07020F2A00F32E
:1055C0004181454B1968103139440820019101F09F
:1055D0004FFC424A0199136801331FBF01F1FF31AB
:1055E00009184342194080462846019101F01CFCED
:1055F000421C0AEB090B044600F0F7808345019931
:10560000364A02D9B24540F0F080354B1868A345C0
:105610000844186008F1FF3C40F0AB801BEA0C0F17
:1056200040F0A780B268494441F0010151602D4A21
:105630001B6811688B4288BF13602B4A11688B422C
:1056400088BF1360D1E0BCF5206F4FEA5C2218D20E
:105650004FEA9C12383202F1010E06EBC20856F8EE
:105660003EE0F0452BD192104FF0010C0CFA02F203
:1056700002437260C4E902E8C8F80840CEF80C4062
:1056800065E7142A01D85B32E5E7542A03D84FEACC
:105690001C326E32DFE7B2F5AA7F03D84FEADC3264
:1056A0007732D8E740F2545E72459ABF4FEA9C4287
:1056B0007C327E22CFE7DEF808E0F04505D0DEF848
:1056C000042022F003026245F5D8DEF80C80D1E711
:1056D000540100205C0100200C0C00204C01002033
:1056E000DC0B0020080C0020040C00206068D4F8BB
:1056F0000CC020F00300A0EB070ABAF10F0F12DD77
:10570000A368E21947F001076760C3F80CC0CCF842
:1057100008304AF00103C6E90422C2E902115360CD
:1057200044F800A091E6BAF1000F11DB2044436871
:1057300043F00103436054F8083F2846C3F80CC007
:10574000CCF8083000F090F8204603B0BDE8F08FA8
:10575000644611E758F80809404503F1FF333FF468
:1057600015AF1AE7043352001042FBD0FEE6734631
:10577000FAE7D2F800E0BEF1FF3F1BBFA4EB0B0B32
:105780000BEB000214601A6014F0070B1ABFCBF188
:10579000080024185846621802EA0C018044A8EB5D
:1057A000010808EA0C0841462846019201F03CFB3A
:1057B000431C019A284B07D1BBF1000F23D0ABF15A
:1057C000080010444FF000081A68B460001B404401
:1057D000424440F00100B2451A6060603FF427AFD8
:1057E000B9F10F0F12D801236360B3685B6823F02F
:1057F0000303BB42A3EB070201D30F2A22DC284696
:1058000000F032F8FCE51046D846DDE7DAF804206F
:10581000A9F10C0929F0070902F0010242EA090284
:10582000CAF8042005210AEB0902B9F10F0FC2E9F9
:1058300001117FF6FCAE0AF108012846FFF714FDBE
:10584000054BF4E6B46847F00103274442F0010237
:105850006360B7607A60F8E5DC0B00200148FFF771
:105860008DBC00BFD40B00200148FFF788BC00BFEF
:10587000D40B00202DE9F04FD7B0884691461E4644
:10588000079001F0CDFA03681A931846FBF744FB22
:10589000B8F80C301190190615D5D8F8103093B916
:1058A00007984021FFF7A0FDC8F80000C8F81000D5
:1058B00030B9079A0C2313604FF0FF331393F0E1D4
:1058C0004023C8F814300023CDE92B33089300227D
:1058D0000023CDE90E230023CDE91C332DAC2A94FF
:1058E0000D9316931B9313934B461D4613F8012BF0
:1058F0000AB1252AF9D1B5EB09070DD02C9B3B4401
:105900002C932B9B0133072BC4E900972B9375DC59
:105910000834139B3B4413932B78002B01F02C810C
:1059200000226B1C8DF88B204FF0FF3512929346AE
:1059300013F8012B0A9210930A9B203B5A2B00F27A
:105940009D85DFE813F09E009B059B05A6009B0547
:105950009B059B0586009B059B05A900B3009B0545
:10596000B000B5009B05CE00D100D100D100D10020
:10597000D100D100D100D100D1009B059B059B0532
:105980009B059B059B059B0541019B05FF001101A4
:105990004101410141019B059B059B059B05E200DF
:1059A0009B059B0595049B059B059B05DD049B05BD
:1059B000FD049B059B051F059B059B059B059B0502
:1059C0009B059B059B059B0541019B05FF00130162
:1059D000410141014101E5001301F9009B05F2007D
:1059E0009B0572049704CC04F9009B05DD049C0020
:1059F000FF049B059B0565009B059C0007982AAA50
:105A0000414602F01BFC002840F046812DAC80E7A7
:105A1000A74B1D931BF0200300F0B784073626F038
:105A200007031A465F6852F8086B0B921BF0010FD0
:105A30000AD056EA070307D030238DF88C300A9B32
:105A40008DF88D304BF0020B2BF4806B022300F0AD
:105A50001FBC079801F0E4F943681B931846FBF755
:105A60005BFA1690079801F0DBF983680D93169B9B
:105A70002BB10D9B1BB11B780BB14BF4806B109BB2
:105A800056E79DF88B30002BF9D120238DF88B3011
:105A9000F5E74BF0010BF2E756F8043B1293002BAD
:105AA000EDDA5B4212934BF0040BE8E72B23EDE7B2
:105AB000109B13F8012B0A922A2A0FD156F8045B87
:105AC000109345EAE575DAE701FB052513F8012B8C
:105AD0000A920A9A303A092AF6D92CE700250A21B7
