:020000040800F2
:1000000000000220650B0008090B00080B0B00081C
:100010000D0B00080F0B0008110B0008000000007A
:10002000000000000000000000000000130B0008AA
:10003000150B000800000000170B0008190B000842
:10004000B50B0008B50B0008B50B0008B50B000890
:10005000B50B0008B50B0008B50B0008B50B000880
:10006000B50B0008B50B0008B50B0008B50B000870
:10007000B50B0008B50B0008B50B0008B50B000860
:10008000B50B0008B50B0008B50B0008B50B000850
:10009000B50B0008B50B0008B50B0008B50B000840
:1000A000B50B0008B50B0008B50B0008B50B000830
:1000B000B50B0008B50B0008B50B0008210B0008B4
:1000C000310B0008B50B0008B50B0008B50B000894
:1000D000B50B0008B50B0008B50B0008B50B000800
:1000E000B50B0008B50B0008B50B0008B50B0008F0
:1000F000B50B0008B50B0008B50B0008B50B0008E0
:10010000B50B0008B50B0008B50B0008B50B0008CF
:10011000B50B0008B50B0008B50B0008B50B0008BF
:10012000410B0008B50B0008B50B0008510B000887
:10013000B50B0008B50B0008B50B0008B50B00089F
:10014000B50B0008B50B0008B50B0008B50B00088F
:10015000B50B0008B50B0008B50B0008B50B00087F
:10016000B50B0008B50B0008B50B0008B50B00086F
:10017000B50B0008B50B0008B50B00080000000027
:08018000B50B0008B50B0008E7
:1001880010B5054C237833B9044B13B10448AFF3C9
:1001980000800123237010BD100000200000000023
:1001A8008830000808B5034B1BB103490348AFF377
:1001B800008008BD000000001400002088300008FE
:1001C80053B94AB9002908BF00281CBF4FF0FF31B6
:1001D8004FF0FF3000F06AB9ADF1080C6DE904CEBC
:1001E80000F006F8DDF804E0DDE9022304B070470A
:1001F8002DE9F047089D0C46002B4ED194468C45BE
:100208008646B2FA82F262D94AB1C2F1200391401D
:1002180020FA03F30CFA02FC194300FA02FE4FEA33
:100228001C471FFA8CF6B1FBF7F44FEA1E4307FB95
:10023800141143EA014304FB06F199420AD91CEB65
:10024800030304F1FF3080F01281994240F20F81DC
:10025800023C6344591A1FFA8EF3B1FBF7F007FB0F
:10026800101143EA014300FB06F69E420AD91CEB33
:10027800030300F1FF3180F0FC809E4240F2F980D8
:10028800634402389B1B40EA044000211DB1D3405F
:100298000022C5E90032BDE8F0878B4205D90DB1CF
:1002A800C5E9000100210846F5E7B3FA83F1002902
:1002B80046D1A34202D39042C0F0F080861A64EB84
:1002C80003030120002DE6D0C5E90063E3E7002A17
:1002D80040F09080A1EB0C044FEA1C481FFA8CF701
:1002E8000121B4FBF8F64FEA1E4308FB164443EA23
:1002F800044307FB06F0984208D91CEB030306F1F8
:10030800FF3402D2984200F2CD8026461C1A1FFA0A
:100318008EF3B4FBF8F008FB104443EA044300FBF7
:1003280007F79F4208D91CEB030300F1FF3402D200
:100338009F4200F2B0802046DB1B40EA0640A5E75A
:10034800C1F120068B4022FA06F71F4320FA06FC6B
:1003580004FA01F343EA0C03F44000FA01F8380CFC
:100368004FEA1349B4FBF0FE1FFA87FC00FB1E445A
:1003780049EA04440EFB0CF9A14502FA01F20AD934
:100388003C190EF1FF3A80F08480A14540F281804B
:10039800AEF1020E3C44A4EB09041FFA83F9B4FB46
:1003A800F0F300FB134449EA044403FB0CFCA445A6
:1003B80007D93C1903F1FF3067D2A44565D9023B40
:1003C8003C4443EA0E40A0FB0293A4EB0C049C427D
:1003D800CE469C4651D34ED055B1B8EB0E0364EBD4
:1003E8000C0404FA06F6CB401E43CC40C5E9006471
:1003F800002150E7C2F1200320FA03F10CFA02FCB5
:1004080024FA03F394400C434FEA1C4800FA02FE16
:100418001FFA8CF7B3FBF8F008FB1031230C43EA02
:10042800014300FB07F1994208D91CEB030300F1D3
:10043800FF362CD299422AD9023863445B1AA4B2F7
:10044800B3FBF8F108FB113344EA034401FB07F35B
:10045800A34208D91CEB040401F1FF3613D2A342CE
:1004680011D902396444E41A41EA004139E70446E3
:10047800F0E6084606E7C845AED2B9EB020E63EBD4
:10048800070C0138A8E73146EDE7034699E73046FF
:10049800D4E7D6467FE7634402384DE7064623464D
:1004A80008460FE7023E634430E700BF704700BFCD
:1004B800034613F8012B002AFBD1181A013870479C
:1004C800F0B58BB000240594069407940894099419
:1004D80000942B4B1A6B42F004021A631A6B02F059
:1004E80004020092009A01941A6B42F020021A63E7
:1004F8001A6B02F020020192019A02941A6B42F0E0
:1005080080021A631A6B02F080020292029A039424
:100518001A6B42F001021A631A6B02F0010203928D
:10052800039A04941A6B42F002021A631B6B03F0DD
:1005380002030493049B134F22464FF4007138467C
:1005480000F0E6FE104E22464FF40061304600F0FF
:10055800DFFE4FF40073059301250695079508946F
:1005680005A9384600F0DAFD4FF4006305930695B7
:100578000794089405A9304600F0D0FD0BB0F0BDF3
:1005880000380240001402400000024010B582B05A
:10059800002401940D4B1A6B42F480021A631B6B02
:1005A80003F480030193019B22462146382000F082
:1005B800B9FB382000F0C6FB224621463B2000F05C
:1005C800B1FB3B2000F0BEFB02B010BD003802407A
:1005D80072B6FEE708B50A480A4B03604FF4E133E8
:1005E800436000238360C36003610C22426183611E
:1005F800C36102F01CFC00B908BDFFF7E9FF00BFAA
:100608002C0000200010014008B50A480A4B03607E
:100618000A4B436000238360C3604FF48042026149
:1006280043618361C361036201F056F800B908BDF4
:10063800FFF7CEFF3802002000540040A0860100DA
:1006480008B50A480A4B03600A4B436000238360DD
:10065800C3604FF48042026143618361C3610362F6
:1006680001F03AF800B908BDFFF7B2FFE401002035
:1006780000580040A086010008B50D480D4B0360E6
:100688004FF48273436000238360C3600361436156
:100698004FF400728261C3610362436283620A237A
:1006A800C36202F06BFA00B908BDFFF791FF00BF03
:1006B8008C0100200030014008B50D480D4B036047
:1006C8004FF48273436000238360C3600361436116
:1006D8004FF400728261C3610362436283620A233A
:1006E800C36202F04BFA00B908BDFFF771FF00BF03
:1006F800340100200038004000B595B030220021B8
:1007080008A802F02AFC0023039304930593069398
:1007180007930193214A116C41F080511164126CC6
:1007280002F080520192019A02931D4B1A6842F41A
:1007380080421A601B6803F480430293029B0123E2
:1007480008934FF48033099302230E934FF48002E9
:100758000F92192210924FF4A87211921293042347
:10076800139308A801F0CAFE98B90F230393022334
:100778000493002305934FF4A05306934FF480533A
:100788000793052103A802F023F920B915B05DF8F5
:1007980004FBFFF71DFFFFF71BFF00BF00380240F7
:1007A8000070004000B589B000F028FAFFF7A4FFF8
:1007B800FFF786FEFFF7EAFEFFF70CFFFFF724FFBF
:1007C800FFF73EFFFFF758FFFFF776FFEC460B4CAD
:1007D8000FCCACE80F0094E80F008CE80F006846D7
:1007E800FFF766FE4FF47A7382B26946044802F056
:1007F8004EFBC82000F02EFAE8E700BFA030000842
:100808002C00002082B0002100910B4B5A6C42F45E
:1008180080425A645A6C02F480420092009A019114
:100828001A6C42F080521A641B6C03F080530193D7
:10083800019B02B0704700BF0038024030B58BB052
:1008480000230593069307930893099303682F4A97
:10085800934204D02E4A934236D00BB030BD0024C8
:1008680001942C4D2B6B43F002032B632B6B03F08D
:1008780002030193019BC0230593122306930123CE
:100888000793032308930423099305A9224800F03A
:1008980045FC02942B6C43F400132B642B6C03F47B
:1008A80000130293029B224621461F2000F03AFAC9
:1008B8001F2000F047FA22462146202000F032FA95
:1008C800202000F03FFAC8E700250395114C236B60
:1008D80043F020032363236B03F020030393039B5C
:1008E800032305931222069208930423099305A96A
:1008F8000A4800F013FC0495236C43F48003236436
:10090800236C03F480030493049BA6E7005400407F
:100918000058004000380240000402400014024021
:10092800F0B58BB0002305930693079308930993BA
:1009380003684C4A934204D04B4A934259D00BB0B7
:10094800F0BD044600250095484B5A6C42F480528D
:100958005A645A6C02F480520092009A01951A6BFC
:1009680042F001021A631B6B03F001030193019B20
:10097800E023059302230693032308930523099391
:1009880005A93B4800F0CAFB3A483B4B03604FF0CF
:10099800C06343608560C5604FF48063036145614F
:1009A8008561C5610562456200F04CFAD8B9314BE2
:1009B800E3649C633148324B03604FF0C06343608B
:1009C800402383600023C3604FF480620261436167
:1009D8008361C3610362436200F034FA30B9274B84
:1009E800A3649C63ABE7FFF7F3FDE0E7FFF7F0FDD7
:1009F800F5E7002402941D4B1A6C42F480421A64F5
:100A08001A6C02F480420292029A03941A6B42F022
:100A180004021A631A6B02F004020392039A049404
:100A28001A6B42F002021A631B6B03F00203049371
:100A3800049B0C2305930227069703260896052591
:100A4800099505A90F4800F069FB4FF480630593E9
:100A5800069707940896099505A90B4800F05EFBD0
:100A68006DE700BF00300140003800400038024008
:100A780000000240D40000201064024074000020EE
:100A880058640240000802400004024000B589B0E2
:100A9800002303930493059306930793026803F1D5
:100AA800804303F588339A4202D009B05DF804FB0D
:100AB8000021019103F594335A6C42F010025A64F4
:100AC8005A6C02F010020192019A02911A6B42F0DC
:100AD80001021A631B6B03F001030293029B4FF49C
:100AE800C063039302230493032306930723079306
:100AF80003A9024800F012FBD7E700BF000002403C
:100B0800FEE7FEE7FEE7FEE7FEE77047704770473F
:100B180008B500F08DF808BD08B5024801F0C0FB23
:100B280008BD00BF3802002008B5024801F088FC63
:100B380008BD00BF3802002008B5024800F0FCF9E3
:100B480008BD00BFD400002008B5024800F0F4F941
:100B580008BD00BF7400002070470000DFF834D0E3
:100B6800FFF7FAFF0C480D490D4A002302E0D4585C
:100B7800C4500433C4188C42F9D30A4A0A4C0023DF
:100B880001E013600432A242FBD302F0EFF9FFF751
:100B980009FE70470000022000000020100000201D
:100BA800F43000081000002028040020FEE70000B0
:100BB80010B504460E4B1A784FF47A73B3FBF2F370
:100BC8000C4A1068B0FBF3F000F0C0F868B90F2CBD
:100BD80001D901200AE0002221464FF0FF3000F041
:100BE800A1F8054B1C60002000E0012010BD00BFEB
:100BF80004000020000000200800002008B50B4B6E
:100C08001A6842F400721A601A6842F480621A6024
:100C18001A6842F480721A60032000F071F80F20FD
:100C2800FFF7C6FFFFF7EEFD002008BD003C0240BD
:100C3800034A1168034B1B780B441360704700BFCD
:100C48008C02002004000020014B1868704700BF88
:100C58008C02002038B50446FFF7F6FF0546B4F1CC
:100C6800FF3F02D0044B1B781C44FFF7EDFF401BED
:100C7800A042FAD338BD00BF04000020002807DBDB
:100C880000F01F02400901239340024A42F8203035
:100C9800704700BF00E100E0002808DB0901C9B285
:100CA80000F1604000F5614080F80013704700F0E3
:100CB8000F000901C9B2014B1954704714ED00E047
:100CC80000B500F00700C0F1070CBCF1040F28BF05
:100CD8004FF0040C031D062B0FD9C31E4FF0FF3E27
:100CE8000EFA0CF021EA000199400EFA03FE22EAFE
:100CF8000E0241EA02005DF804FB0023EEE7000063
:100D0800074AD36823F4E0631B041B0C000200F4B9
:100D1800E060034343F0BF6343F40033D36070479C
:100D280000ED00E010B50446054BD868C0F302207A
:100D3800FFF7C6FF01462046FFF7AEFF10BD00BF14
:100D480000ED00E008B5FFF799FF08BD0138B0F1E4
:100D5800807F0BD24FF0E0235861054AF02182F8DA
:100D680023100020986107221A61704701207047FC
:100D780000ED00E010B40368D9B210390B4AA2FBA9
:100D8800014212090A4CA25CC2655F2908D923F402
:100D98007F7323F0030304338365806D10BC7047B1
:100DA80023F47F7323F003038365F6E7ABAAAAAAAB
:100DB800D8300008836A826992B9012B0AD0022BC5
:100DC80002D00BB100207047C36A13F0807F28D18E
:100DD80000207047C36AB3F1C07F24D00020704759
:100DE800B2F5005F09D0022B25D9032B25D1C36AA0
:100DF80013F0807F23D100207047032B03D8DFE84E
:100E080003F01404140A00207047C36A13F0807FAB
:100E18000DD100207047C36AB3F1C07F09D000200C
:100E2800704701207047012070470120704701205A
:100E3800704701207047012070470020704701204B
:100E48007047000070B50446FFF7FEFE002C5BD02B
:100E58000546022384F83530002384F834302268AC
:100E6800136823F00103136023681A6812F0010F56
:100E78000AD0FFF7E9FE431B052BF5D9202363654C
:100E8800032084F8350070BD1A6820491140626853
:100E9800A0680243E0680243206902436069024394
:100EA800A0690243E0690243206A02430A43616A77
:100EB80004291ED01A602668756925F00705636A3B
:100EC8001D43042B07D1A36A1D43E36A1BB12046C7
:100ED800FFF770FF90B975612046FFF74BFFE26D91
:100EE8003F239340836000206065012384F83530F8
:100EF800C9E7E16A206B01430A43DBE740236365E6
:100F0800012084F83500BEE70120BCE73F8010F0DF
:100F180090F83530DBB2022B03D0802343650120E3
:100F28007047052380F835300268136823F0010301
:100F38001360002070470000F0B583B0044600231A
:100F48000193724B1D68724BA3FB0535AD0A876D83
:100F58003E68C26D08239340334210D003681A6874
:100F680012F0040F0BD01A6822F004021A60C26D46
:100F780008239340BB60436D43F001034365E26D72
:100F880001239340334209D02268526912F0800F3E
:100F980004D0BB60636D43F002036365E26D042314
:100FA8009340334209D02268126812F0020F04D02D
:100FB800BB60636D43F004036365E26D10239340E7
:100FC800334224D02268126812F0080F1FD0BB6089
:100FD80023681A6812F4802F0DD01B6813F4002FB1
:100FE80004D1236C9BB12046984710E0A36C73B1E1
:100FF800204698470BE01A6812F4807F03D11A68DC
:1010080022F008021A60236C0BB120469847E26D63
:1010180020239340334255D02268126812F0100FF3
:1010280050D0BB6094F83530DBB2052B0ED0236866
:101038001A6812F4802F33D01B6813F4002F2AD1BA
:10104800636C002B3ED0204698473BE0226813682B
:1010580023F0160313602268536923F08003536159
:10106800236CA3B12268136823F008031360E26DB0
:101078003F239340BB60012384F83530002384F874
:101088003430236D002B3FD0204698473CE0A36CBA
:10109800002BE7D1EBE7E36BA3B12046984711E0BB
:1010A8001A6812F4807F09D11A6822F010021A60B7
:1010B800012384F83530002384F83430E36B0BB116
:1010C80020469847636DFBB1636D13F0010F17D08D
:1010D800052384F835302268136823F00103136070
:1010E800019B01330193AB4204D823681B6813F0BA
:1010F800010FF5D1012384F83530002384F834300A
:10110800E36C0BB12046984703B0F0BD0000002007
:10111800B5814E1B90F835007047000000230F2B57
:1011280000F2EC8030B583B068E085684FEA430E82
:10113800032404FA0EF425EA0405CC6804FA0EF434
:101148002C438460446824EA02044A68C2F300120B
:101158009A40224342605FE0DC08083450F82420BB
:1011680003F00705AD004FF00F0E0EFA05FE22EA58
:101178000E0E0A69AA4042EA0E0240F824205FE0F7
:10118800072200E0002202FA0EF22A4302345C4DE4
:1011980045F824205B4A94686FEA0C0224EA0C059F
:1011A800D1F804E01EF4801F01D04CEA0405554C28
:1011B800A560E46802EA0405D1F804E01EF4001F03
:1011C80001D04CEA04054F4CE560646802EA040566
:1011D800D1F804E01EF4003F01D04CEA0405494C64
:1011E8006560246822404D6815F4803F01D04CEAC0
:1011F8000402444C226001330F2B7DD801229A400F
:101208000C6804EA020C32EA0404F4D14C6804F0D5
:101218000304013C012C88D94A6802F00302032A1E
:1012280009D0C4685D000322AA4024EA02048A683F
:10123800AA402243C2604A6802F00302022A8BD005
:1012480004684FEA430E032202FA0EF224EA02046B
:101258004A6802F0030202FA0EF2224302604A6868
:1012680012F4403FC7D000220192274A546C44F43C
:1012780080445464526C02F480420192019A9C08A2
:10128800A51C1F4A52F8255003F0030E4FEA8E0E94
:101298000F2202FA0EF225EA02051C4A90423FF498
:1012A80071AF02F5806290421AD002F580629042D6
:1012B80018D002F58062904216D002F58062904202
:1012C80014D002F58062904212D002F580629042FA
:1012D80010D002F5806290423FF452AF082252E7E4
:1012E800012250E702224EE703224CE704224AE794
:1012F800052248E7062246E703B030BD704700BF25
:1013080000380140003C0140003802400000024023
:101318000AB18161704709048161704703685A699D
:1013280012F0800F01D000221A61704790F83E3009
:10133800DBB2402B10D00369B3F5804F1BD0036D8F
:10134800002B39D1436CC3F3C813026803F00603BA
:1013580043F0F00313617047036D2BB9436C0268C7
:1013680003F0FE0313617047436C026843F0010306
:10137800DBB21361704790F83D30DBB2212B0FD000
:10138800436C026843F00103DBB21361436B6BB13A
:10139800DB6B5BB10268536843F4006353607047CA
:1013A800436C026803F0FE031361EFE7836B33B10C
:1013B800DB6B002BEED102E0036D012B00D07047F0
:1013C800436CC3F3C813026803F0060343F0F10348
:1013D8001361F4E7436C0268DBB21361436B3BB102
:1013E800DB6B2BB10268536843F4006353607047AA
:1013F800836B002BFBD0DB6B002BF3D1F7E70000EE
:1014080010B48BB090F83E30DAB2C16A046B90F831
:101418003D30DBB2222B0AD00023099303685A69B6
:1014280009929B690993099B0BB010BC7047036D27
:101438000BB9402A17D0036D1BB90369B3F5404FA8
:1014480019D0438D9BB2002B25D1029303685A69AA
:1014580002929A690292029A1A6842F400721A6019
:1014680000230365E0E7009303685A6900929B69CB
:101478000093009BD8E70023019303685A690192FF
:101488009A690192019A1A6842F480721A60036D8F
:1014980001330365C8E7438D9BB2012B1CD0438DF4
:1014A8009BB2022B72D00268136843F48063136006
:1014B80003685A6812F4006F00F0A980202900F22E
:1014C800AF80082980F09C80012940F0A0805A68EC
:1014D80042F480525A609AE011F5803F11D00829F1
:1014E80034D0202932D0122C2ED0042940D0022901
:1014F8003ED010293CD00268136823F4806313603F
:101508003BE00268136823F48063136003685A6839
:1015180012F4006F0CD01A6822F480621A6000235B
:10152800039303685A6903929B690393039B97E7A4
:10153800002204925A6904929A690492049A1A68D9
:1015480042F400721A608BE70129D0D00268136850
:1015580023F4806313600023069303685A69069294
:101568009A690692069A1A6842F400721A6077E736
:101578000268136843F480631360002305930368CB
:101588005A6905929B690593059B69E7102904D858
:10159800254BCB4013F0010F19D10268136823F4CF
:1015A800806313600268136843F400631360036880
:1015B8005A6812F4006F16D020291DD808290CD2B9
:1015C800012910D15A6842F480525A600BE002682F
:1015D800136843F480631360E9E70839134ACA4083
:1015E80012F0010FEED10023079303685A6907929E
:1015F8009B690793079B33E711F5803FF3D1E1E738
:1016080008390A4ACA4012F0010F7FF460AF00237C
:10161800089303685A6908929B690893089B1FE717
:1016280011F5803FF3D152E71400010001010001D8
:10163800438D9BB25BB1426A036812781A61436AB0
:1016480001334362438D9BB2013B9BB24385704794
:10165800438D9BB25BB103681A69436A1A70436A87
:1016680001334362438D9BB2013B9BB24385704774
:1016780082B0002301930E4B1B68DB080D4AA2FBC6
:1016880003231B0A03EB83030193019B013B019393
:10169800019B33B103681B6813F4007FF5D1002068
:1016A80004E0036C43F020030364012002B0704798
:1016B8000000002089B5F814C36AB3F52A0F04D0D6
:1016C800C36AB3F12A4F03D070470123C36270473E
:1016D8000823C362F8E70000002800F0CC8070B54A
:1016E800044690F83D30002B77D0242384F83D3011
:1016F8002268136823F0010313602268136843F417
:10170800004313602268136823F40043136001F058
:1017180015FA62685A4B9A4264D85A4B98428CBF61
:1017280000230123002B40F0A8805749A1FB00317A
:101738008B0C25686A6822F03F0242EA91426A608F
:1017480021680A6A22F03F0266684D4DAE424FD8C2
:10175800013313430B622168CA6922F44F4222F015
:10176800FF026568464B9D424CD8431E6D00B3FB93
:10177800F5F3013340F6FC70034278D0C3F30B0352
:101788001A43CA6121680B6823F0C003E269206A22
:10179800024313430B6021688B6823F4034323F04F
:1017A800FF032269E068024313438B602168CB681A
:1017B80023F0FF036269A06902431343CB602268E8
:1017C800136843F00103136000202064202384F889
:1017D8003D30206384F83E0070BD80F83C30FFF750
:1017E8002DF882E7294B98428CBF0023012399E703
:1017F8004FF4967505FB03F3254DA5FB03539B0991
:101808000133A6E7A668BEB9431E05EB450CB3FB3A
:10181800FCF30133C3F30B03B3FA83F35B0943BB54
:10182800C6B9431E05EB4505B3FBF5F30133C3F316
:101838000B0343F40043A3E7431E05EB850C0CEBB5
:101848008C0CB3FBFCF30133C3F30B03B3FA83F340
:101858005B09E4E7431E05EB850505EB8505B3FB4E
:10186800F5F30133C3F30B0343F4404388E7042340
:1018780086E7012384E7012070470120ACE700BF19
:10188800A08601007F841E0083DE1B43FF083D0005
:10189800D34D621070477047704708B590F83D30D7
:1018A800DAB2438D9BB283B1416A03680978196142
:1018B800436A01334362438D9BB2013B9BB243852C
:1018C800438D9BB20BB9292A00D008BD0268536822
:1018D80023F48063536021230363282380F83D3079
:1018E800FFF7DAFFF1E7704708B590F83D30DAB254
:1018F800438D9BB283B103681969436A1970436ABF
:1019080001334362438D9BB2013B9BB24385438DB8
:101918009BB20BB92A2A00D008BD0268536823F489
:101928008063536022230363282380F83D30FFF748
:10193800DAFFF1E7704700B583B090F83D3003F067
:101948002803282B0CD000230193026851690191C8
:1019580092690192019A80F83C3003B05DF804FB6B
:101968000268536823F48063536011F0040F0BD0AE
:10197800002311F0800F09D18289002180F83C10E2
:101988001946FFF7D7FFE8E70123F2E7028BF4E7F0
:101998007047000010B5044690F83D30DBB2C26ACB
:1019A800082A01D0202A01D1282B06D0212B1FD0AC
:1019B80023686FF480625A6110BD1D4BE362226890
:1019C800536823F4E063536023686FF480625A61BC
:1019D8002268136823F480631360002323632022A2
:1019E80084F83D2084F83E302046FFF7D1FFE3E736
:1019F8000F4BE36221232363202384F83D30002327
:101A080084F83E302268536823F4E0635360236807
:101A18006FF480625A612268136823F4806313604C
:101A28002046FFF77BFC2046FFF736FFC4E700BFE0
:101A38000000FFFF704708B5C26A90F83D30DBB27E
:101A4800212B00D008BD438D9BB263B1426A036865
:101A580012781A61436A01334362438D9BB2013B9A
:101A68009BB24385EEE7082A04D0202A02D012F55B
:101A7800803F19D10268536823F4E0635360026819
:101A8800136843F40073136000230363202380F872
:101A98003D3090F83E30DBB2402B15D0002380F863
:101AA8003E30FFF7F7FECDE70268536823F4E063A2
:101AB800536011230363002380F83E30202380F80D
:101AC8003D30FFF7E7FEBDE7002380F83E30FFF723
:101AD800B1FFB7E708B590F83D30026D9AB9C36C0D
:101AE800012B08D0836CC3F3072302681361036DCD
:101AF8000133036508BD836C0268DBB21361036DB3
:101B080002330365F6E7DBB2026D012A23D0026DCA
:101B1800022A3ED1222B26D0428D92B20AB1212B25
:101B28002AD0428D92B2002AE4D1212BE2D1026858
:101B3800536823F4E06353600268136843F4007346
:101B4800136000230363202280F83D2080F83E3094
:101B5800FFF770FFCEE7836C0268DBB21361036D99
:101B680001330365C6E70268136843F480731360A2
:101B7800036D01330365BDE7426A036812781A6191
:101B8800436A01334362438D9BB2013B9BB2438559
:101B9800B0E7FFF7C3FBADE710B590F83D30DBB217
:101BA80090F83E20D2B2C46A018D00293BD1212B86
:101BB80002D0402A42D010BD082C04D0202C02D0DC
:101BC80014F5803F19D10268536823F4E063536029
:101BD8000268136843F4007313600023036320232F
:101BE80080F83D3090F83E30DBB2402B15D0002312
:101BF80080F83E30FFF74EFEDDE70268536823F4B5
:101C0800E063536011230363002380F83E302023F0
:101C180080F83D30FFF73EFECDE7002380F83E30E8
:101C2800FFF708FFC7E7212BC3D1438D9BB243B908
:101C38000268536823F480635360BCE7222BBAD14F
:101C4800F3E790F83E30DBB2402B0CD0426A0368D1
:101C580012781A61436A01334362438D9BB2013B98
:101C68009BB24385A7E7FFF735FFA4E7704708B5A0
:101C7800C26A438D9BB2042B14D0438D9BB2032BB5
:101C880022D0438D9BB2022B39D003681A69436A6C
:101C98001A70436A01334362438D9BB2013B9BB286
:101CA800438510E00268536823F480635360036837
:101CB8001A69436A1A70436A01334362438D9BB2BF
:101CC800013B9BB2438508BD01684B6823F48063E0
:101CD8004B60042A06D0022A04D00268136823F451
:101CE8008063136003681A69436A1A70436A013390
:101CF8004362438D9BB2013B9BB24385E3E7531E8E
:101D08000F2B42D8DFE803F0083B413B41414141FA
:101D1800414141414141410801680B6823F4806316
:101D28000B6003681969436A1970416A4B1C436266
:101D3800438D9BB2013B9BB2438503681B694B7083
:101D4800436A01334362438D9BB2013B9BB2438597
:101D580001684B6823F440734B60202380F83D30C2
:101D680090F83E30DBB2402B15D0002380F83E308F
:101D7800082A17D0202A15D01223036314E001681B
:101D88000B6843F480630B60CBE701680B6843F48E
:101D980000730B60C5E7002380F83E300363FFF74C
:101DA80065FF90E700230363FFF775FD8BE7704736
:101DB80038B590F83D30DBB2222B00D038BD044650
:101DC800C56A438D9BB2032B15D903681A69436A08
:101DD8001A70436A01334362438D9BB2013B9BB245
:101DE8004385438D9BB2032BE8D10268536823F4E3
:101DF80080635360E2E7C26A022A01D0012B05D949
:101E08002268536823F480635360D7E7FFF730FCF8
:101E1800002835D12268136823F480631360226890
:101E2800536823F4E063536023681A69636A1A707D
:101E3800636A01336362638D9BB2013B9BB2638526
:101E4800202384F83D3094F83E30DBB2402B09D093
:101E5800002384F83E30082D0CD0202D0AD0122300
:101E6800236309E0002384F83E3023632046FFF70C
:101E7800FDFEA3E7002323632046FFF70CFD9DE743
:101E88002268536823F4E063536023681A69636A1D
:101E98001A70636A01336362638D9BB2013B9BB224
:101EA8006385202384F83D30002384F83E302046A3
:101EB800FFF77DFF82E7704700B583B000230193E9
:101EC800806B90F83D20D2B2324B1B68DB08324958
:101ED800A1FB03131B0A03EB8303C3EBC3030193A7
:101EE800019B43B1019B013B019303681B6813F4F9
:101EF800007FF5D103E0036C43F020030364436BD8
:101F08000BB10021D963836B0BB10021D963016840
:101F18000B6823F480630B6000234385436B0BB18C
:101F280000211965836B0BB10021196501680B68E5
:101F380023F001030B6090F83D30DBB2602B0ED02C
:101F480002F02802282A14D0202380F83D300023EC
:101F580080F83E30FFF72BFF03B05DF804FB202329
:101F680080F83D30002380F83E300364FFF7A3FF7C
:101F7800F2E70268136843F001031360026813680C
:101F880043F48063136000230363282380F83D3003
:101F9800E0E700BF0000002089B5F81410B504463A
:101FA80090F83D30DBB290F83E20D2B2102A36D0FD
:101FB800402A34D003F02802282A38D022685268F0
:101FC80012F4006F07D1602B05D0202384F83D3030
:101FD800002384F83E300023236323685A6812F4F0
:101FE800006F48D05A6822F400625A60626B92F817
:101FF8003530DBB2012B20D0444B1365606BFEF704
:1020080087FF002849D02268136823F00103136072
:10201800202384F83D30606B036D98473DE0222B08
:10202800C8D121680A6822F400620A60C2E7002366
:102038002363282384F83D30CFE7A36B334A1A651E
:10204800A06BFEF765FF40B323685A6912F0400F92
:1020580005D01A69636A1A70636A01336362226879
:10206800136823F001031360202384F83D30A06B2C
:10207800036D984711E094F83D20D2B2602A1FD032
:102088005A6912F0400F05D01A69636A1A70636AB8
:10209800013363622046FFF78AFE236C13F00F0FAB
:1020A80004D02268536823F4E063536094F83D3009
:1020B800DBB2226C12F0040F01D0282B18D010BD0F
:1020C800202284F83D20002222645A6912F0400F31
:1020D80005D01A69636A1A70636A013363622268F9
:1020E800136823F0010313602046FFF7E4FED4E7EA
:1020F800074BE36200232363202284F83D2084F801
:102108003E302046FFF744FCD9E700BFC11E000857
:102118000000FFFF30B583B0044690F83D50EDB2A3
:102128000268536823F4E063536000230193036853
:102138005A6901921A6842F001021A60019B02680A
:10214800136823F48063136003685A6812F4006FFD
:1021580038D0222D21D02A2D1FD0426B1268526808
:1021680092B24285428D92B21AB1026C42F00402D8
:1021780002645A6822F400625A60606BFEF7CAFF74
:1021880001281FD0636B444A1A65606BFEF7C0FED6
:10219800C0B1606B036D984714E0A26B1268526877
:1021A80092B26285628D92B21AB1226C42F0040238
:1021B80022645A6822F400625A60A06BFEF7AAFFF4
:1021C800012842D1638D9BB233B323685A6912F058
:1021D800040F0AD01A69636A1A70636A013363626A
:1021E800638D9BB2013B9BB2638523685A6912F0E9
:1021F800400F0AD01A69636A1A70636A013363620E
:10220800638D9BB2013B9BB26385638D9BB21BB10F
:10221800236C43F004032364236C13BB2A2D25D0BD
:1022280094F83D30DBB2282B29D0236B222B01D028
:10223800222D19D100232363202284F83D2084F81D
:102248003E302046FFF74FFB0EE0A36B124A1A659B
:10225800A06BFEF75DFE0028B4D0A06B036D984715
:10226800B0E72046FFF79AFE03B030BD0023236392
:10227800282384F83D302046FFF735FBD0E7074B8D
:10228800E36200232363202284F83D2084F83E3053
:102298002046FFF77DFBE7E7C11E00080000FFFFAF
:1022A800F8B5044602685568C66A90F83E30DBB255
:1022B80090F83D10C8B2102B13D0402B11D0236CCE
:1022C800002B7AD05369002113F0020F78D015F44F
:1022D800007F75D0236C03B191692046FFF72BFB73
:1022E800F8BDD2F818C0516911F0010705D1B6F54B
:1022F8002A0FF5D0B6F12A4FF2D017B115F4007FA6
:1023080029D111F0080F02D015F4007F2AD111F05D
:10231800020F02D015F4007F28D11CF0040F31D031
:10232800526812F4006FDBD111F0800F05D015F45C
:10233800806F02D011F0040F1CD011F0040FCFD021
:1023480015F4007FCCD0212818D0402BC8D12046C6
:10235800FFF7C0FBC4E72046FFF7AEF92046FEF7BB
:10236800E5FFBDE72046FFF735F8B9E72046FFF758
:1023780047F8B5E72046FFF70FFCB1E72046FFF71F
:102388005AFBADE7536813F4006FA9D111F0400F61
:1023980005D015F4806F02D011F0040F09D011F0A8
:1023A800040F9DD015F4007F9AD02046FFF75FFCFC
:1023B80096E72046FFF7FCFC92E79169536983E7AB
:1023C80013F0100F02D015F4007F18D121281AD06D
:1023D800292818D013F0400F05D015F4806F02D0CB
:1023E80013F0040F28D013F0040F3FF479AF15F45D
:1023F800007F3FF475AF2046FFF72AF970E72046C3
:10240800FFF788FE6CE713F0800F05D015F4806F96
:1024180002D013F0040F0BD013F0040F3FF460AF99
:1024280015F4007F3FF45CAF2046FFF701F957E74A
:102438002046FFF732FA53E72046FFF755FA4FE7F1
:10244800F8B5044603685D695F6890F83E20D2B22B
:1024580015F4807606D017F4807603D06FF4807177
:102468005961012615F4007F08D017F4807F05D044
:1024780046F0020623686FF40071596115F4806F05
:1024880019D017F4807F16D0638D99B294F83D3037
:10249800DBB2206B202A1BD023686FF4806159615E
:1024A80046F00406102A01D0402A04D12268136895
:1024B80043F40073136015F4006F17D017F4807F8E
:1024C80014D046F0080623686FF400625A610EE0E3
:1024D8000029E1D1212B05D0292B03D0282BDBD1D2
:1024E8002128D9D12046FFF755FAE4E72EB1236C0D
:1024F800334323642046FFF751FDF8BD002800F060
:10250800E08170B582B00446036813F0010F3BD038
:102518009F4B9B6803F00C03042B2CD09C4B9B68AF
:1025280003F00C03082B21D06368B3F5803F4FD02C
:10253800B3F5A02F52D0964B1A6822F480321A6055
:102548001A6822F480221A606368002B50D0FEF7C4
:102558007BFB05468E4B1B6813F4003F14D1FEF736
:1025680073FB401B6428F5D90320B1E1884B5B68F5
:1025780013F4800FD8D0864B1B6813F4003F03D0A8
:102588006368002B00F09F81236813F0020F54D07A
:102598007F4B9B6813F00C0F3ED07D4B9B6803F07C
:1025A8000C03082B33D0E368002B68D0794B012249
:1025B8001A60FEF749FB0546754B1B6813F0020FBE
:1025C80054D1FEF741FB401B0228F5D903207FE1D7
:1025D8006F4A136843F480331360B5E76C4B1A688D
:1025E80042F480221A601A6842F480321A60ABE71B
:1025F800FEF72AFB0546664B1B6813F4003FC3D061
:10260800FEF722FB401B6428F5D9032060E1604BEC
:102618005B6813F4800FC6D15D4B1B6813F0020F83
:1026280003D0E368012B40F05081594A136823F026
:10263800F803216943EAC1031360236813F0080F04
:1026480042D063696BB3534B0122C3F8802EFEF767
:10265800FBFA05464E4B5B6F13F0020F34D1FEF7C1
:10266800F3FA401B0228F5D9032031E1484A1368E0
:1026780023F0F803216943EAC1031360DDE7454B02
:1026880000221A60FEF7E0FA0546414B1B6813F07A
:10269800020FD2D0FEF7D8FA401B0228F5D9032042
:1026A80016E13C4B0022C3F8802EFEF7CDFA054612
:1026B800374B5B6F13F0020F06D0FEF7C5FA401BCD
:1026C8000228F5D9032003E1236813F0040F77D01B
:1026D8002F4B1B6C13F0805F33D1002301932C4BDD
:1026E8001A6C42F080521A641B6C03F080530193F9
:1026F800019B0125284B1B6813F4807F23D0A36816
:10270800012B34D0052B38D0214B1A6F22F001024F
:102718001A671A6F22F004021A67A368002B3DD0CB
:10272800FEF792FA06461A4B1B6F13F0020F46D1BA
:10273800FEF78AFA801B41F288339842F3D90320C6
:10274800C6E00025D6E7144A136843F48073136083
:10275800FEF77AFA0646104B1B6813F4807FCED139
:10276800FEF772FA801B0228F5D90320B0E0084A68
:10277800136F43F001031367CFE7054B1A6F42F05D
:1027880004021A671A6F42F001021A67C5E700BF10
:10279800003802400000474200700040FEF754FA3B
:1027A8000646524B1B6F13F0020F08D0FEF74CFA87
:1027B800801B41F288339842F3D9032088E0EDB9B1
:1027C800A369002B00F08380484A926802F00C024B
:1027D800082A51D0022B17D0454B00221A66FEF763
:1027E80033FA0446414B1B6813F0007F42D0FEF7D2
:1027F8002BFA001B0228F5D9032069E03B4A136C29
:1028080023F080531364DBE7394B00221A66FEF786
:102818001BFA0546354B1B6813F0007F06D0FEF700
:1028280013FA401B0228F5D9032051E0E369226A14
:102838001343626A43EA8213A26A5208013A43EADE
:102848000243E26A43EA0263284A5360284B0122A2
:102858001A66FEF7F9F90446244B1B6813F0007F4B
:1028680006D1FEF7F1F9001B0228F5D903202FE065
:1028780000202DE000202BE0012B2BD01B4B5B68A8
:1028880003F48001E269914226D103F03F02216AF4
:102898008A4223D1616A47F6C0721A40B2EB811F9F
:1028A8001ED103F44031A26A5208013AB1EB024F3B
:1028B80018D103F07063E26AB3EB026F14D1002001
:1028C80006E001207047012002E0012000E000201E
:1028D80002B070BD0120FBE70120F9E70120F7E70E
:1028E8000120F5E70120F3E70120F1E70038024075
:1028F8000000474208B5334B9B6803F00C03042BD8
:102908005BD0082B5BD12F4B5A6802F03F025B6803
:1029180013F4800F2CD02B4B5868C0F388104FEA63
:10292800401CBCEB000C6EEB0E0E4FEA8E1343EA14
:102938009C634FEA8C11B1EB0C0163EB0E03DB00D7
:1029480043EA5173C90011EB000C43F1000359022B
:1029580000234FEA4C2041EADC51FDF731FC194BCA
:102968005B68C3F3014301335B00B0FBF3F027E07E
:10297800144B5868C0F388104FEA401CBCEB000C9D
:102988006EEB0E0E4FEA8E1343EA9C634FEA8C11EE
:10299800B1EB0C0163EB0E03DB0043EA5173C90092
:1029A80011EB000C43F10003990200234FEA8C203D
:1029B80041EA9C51FDF704FCD1E7034800E00348D5
:1029C80008BD00BF0038024000127A000024F4005D
:1029D800002800F09B8070B50D4604464F4B1B68DD
:1029E80003F007038B4208D2CBB24C4A137013682A
:1029F80003F007038B4240F08B80236813F0020F2B
:102A080017D013F0040F04D0454A936843F4E053F9
:102A18009360236813F0080F04D0414A936843F485
:102A2800604393603E4A936823F0F003A1680B4328
:102A38009360236813F0010F32D06368012B21D013
:102A48009A1E012A25D9364A126812F0020F61D05F
:102A580033498A6822F0030213438B60FEF7F4F8C7
:102A680006462F4B9B6803F00C036268B3EB820F9A
:102A780016D0FEF7E9F8801B41F288339842F0D966
:102A8800032042E0264A126812F4003FE0D10120F8
:102A98003BE0234A126812F0007FD9D1012034E0CC
:102AA8001E4B1B6803F00703AB4207D9EAB21B4B66
:102AB8001A701B6803F00703AB422DD1236813F08B
:102AC800040F06D0164A936823F4E053E1680B43D9
:102AD8009360236813F0080F07D0114A936823F412
:102AE8006043216943EAC1039360FFF703FF0C4B7E
:102AF8009B68C3F303130B4AD35CD8400A4B186096
:102B08000A4B1868FEF754F8002070BD0120704782
:102B18000120FAE70120F8E70120F6E7003C02402F
:102B280000380240C83000080000002008000020DB
:102B3800014B1868704700BF0000002008B5FFF778
:102B4800F7FF044B9B68C3F38223034AD35CD84046
:102B580008BD00BF00380240C030000808B5FFF7C4
:102B6800E7FF044B9B68C3F34233034AD35CD84066
:102B780008BD00BF00380240C030000800285AD005
:102B880010B50446436A33B94368B3F5827F05D06C
:102B98000023C36102E00023036143610023A362B1
:102BA80094F85130002B40D0022384F85130226829
:102BB800136823F040031360636803F48273A26808
:102BC80002F404421343E26802F4006213432269E8
:102BD80002F002021343626902F001021343A26980
:102BE80002F400721343E26902F038021343226AC6
:102BF80002F080021343A26A02F4005221681343D0
:102C08000B60638B03F00403626A02F01002216810
:102C180013434B602268D36923F40063D361002017
:102C28006065012384F8513010BD84F85030204687
:102C3800FDF776FEB8E701207047026802F10C0341
:102C480053E8003F23F490730C3242E80031002926
:102C5800F3D1026802F1140353E8003F23F00103A3
:102C6800143242E800310029F3D1036B012B05D05F
:102C7800202380F84230002303637047026802F182
:102C88000C0353E8003F23F010030C3242E80031F4
:102C98000029F3D1ECE7000010B504460268136977
:102CA80023F44053C1680B431361836802691A43D4
:102CB80043691A43C3691A430168CB6823F416436E
:102CC80023F00C031343CB600268536923F4407369
:102CD80081690B4353610368314A934206D002F578
:102CE8008062934202D0FFF729FF01E0FFF736FF29
:102CF800E369B3F5004F29D00021031849411B1897
:102D080041F10001C90041EA5371DB0018186368FA
:102D18004FEA83024FEA937341F10001FDF750FA3D
:102D2800204AA2FB00314909642303FB11031B015C
:102D38003233A2FB03235B0903F0F00202EB01121A
:102D480003F00F03216813448B6010BD00230218A1
:102D580043EB0301121841F10001C90041EA527125
:102D6800D200101841F10001626892185B41FDF72A
:102D780027FA0C4AA2FB00314909642303FB11031B
:102D8800DB003233A2FB03235B095A0002F4F8721A
:102D980002EB011203F00703216813448B60D4E7A8
:102DA800001001401F85EB512DE9F04383B0054623
:102DB8000E4617469946DDF828802B681C6836EAC7
:102DC80004040CBF01240024BC4228D1B8F1FF3F01
:102DD800F3D0FDF739FFA0EB0900404523D8B8F13F
:102DE800000F22D02B68DA6812F0040FE5D0802E8D
:102DF800E3D0402EE1D01A6812F0080FDDD000248D
:102E080001941A6801925B680193019B2846FFF7B9
:102E180014FF08236B6485F84040012000E000207F
:102E280003B0BDE8F0830320FAE70320F8E760B3B6
:102E380010B5044690F8413013B3242384F8413088
:102E48002268D36823F40053D3602046FFF724FF99
:102E58002268136923F4904313612268536923F0AD
:102E68002A0353612268D36843F40053D3600020D7
:102E78006064202384F8413084F84230606310BDD8
:102E880080F84030FDF702FED7E7012070472DE9B2
:102E9800F04182B01E4690F84130DBB2202B56D16B
:102EA80004460D469046002955D00AB901204FE046
:102EB80000234364212380F84130FDF7C5FE07460F
:102EC800A4F82480A4F82680A368B3F5805F02D014
:102ED8004FF0000814E023692BB34FF000080FE00F
:102EE800202384F84130032032E038F8023B22687E
:102EF800C3F308035360E28C92B2013A92B2E284BF
:102F0800E38C9BB293B100963B4600228021204679
:102F1800FFF74AFF0028E3D1002DE6D015F8012B72
:102F280023685A60E7E7A8460025E9E700963B468C
:102F3800002240212046FFF737FF18B9202384F8E4
:102F4800413005E0202384F84130032000E00220CE
:102F580002B0BDE8F0810120FAE70244034693423B
:102F680000D1704703F8011BF9E7000070B50D4D5B
:102F78000D4C641BA4100026A64209D10B4D0C4C25
:102F880000F07EF8641BA4100026A64205D170BD8F
:102F980055F8043B98470136EEE755F8043B984747
:102FA8000136F2E7E8300008E8300008E8300008A9
:102FB800F030000870477047024B13B1024800F028
:102FC80005B8704700000000E12F00080023014603
:102FD8001A46184600F014B838B5074D074C641B5C
:102FE800A4101CB9BDE8384000F050B8013C55F8B1
:102FF80024309847F5E700BFF0300008F4300008A7
:103008002DE9F047DFF86CA00646DAF8000098468C
:103018000F469146FFF7CEFF174B1C680CB9174CAB
:103028001C606568DAF800001F2D05DDFFF7C3FF97
:103038004FF0FF30BDE8F0879EB104EB8501012217
:10304800C1F88890D4F88831AA401343C4F888316D
:10305800022EC1F8088102BFD4F88C311343C4F89A
:103068008C316B1C0235636044F82570FFF7A3FFB1
:103078000020DFE70C0000209402002098020020C6
:10308800F8B500BFF8BC08BC9E467047F8B500BF4D
:08309800F8BC08BC9E4670471D
:1030A000746573742054454D504C4154453A20206A
:1030B00068656C6C6F2C20776F726C64210D0A0050
:1030C00000000000010203040000000000000000F6
:1030D0000102030406070809000610160006101670
:0830E00018D1FF7F0100000080
:0830E800C12F0008AD01000832
:0430F000890100084A
:1030F4000024F400010000001000000090020020F1
:0400000508000B657F
:00000001FF
