:020000040800F2
:10000000000002207D260008E5230008E723000801
:10001000E9230008EB230008ED230008000000009E
:10002000000000000000000000000000A1590008CE
:10003000EF23000800000000415A0008E3560008C2
:10004000CD260008CD260008CD260008CD260008C4
:10005000CD260008CD260008CD260008CD260008B4
:10006000CD260008CD260008CD260008CD260008A4
:10007000CD260008CD260008CD260008CD26000894
:10008000CD260008CD260008CD260008CD26000884
:10009000CD260008CD260008CD260008CD26000874
:1000A000CD260008F1230008CD260008CD26000843
:1000B000CD260008CD260008CD2600080124000822
:1000C00011240008CD260008CD260008CD26000802
:1000D000CD260008CD260008CD260008CD26000834
:1000E000CD260008CD260008CD260008CD26000824
:1000F000CD260008CD260008CD260008CD26000814
:10010000CD260008CD260008CD260008CD26000803
:10011000CD260008CD26000821240008CD260008A1
:1001200031240008CD260008CD260008412400080F
:10013000CD260008CD260008CD260008CD260008D3
:10014000CD260008CD260008CD260008CD260008C3
:10015000CD260008CD260008CD260008CD260008B3
:10016000CD260008CD260008CD260008CD260008A3
:10017000CD260008CD260008CD260008000000008E
:08018000CD260008CD26000881
:1001900010B5054C237833B9044B13B10448AFF3C1
:1001A00000800123237010BDC8060020000000005D
:1001B00008BE000808B5034B1BB103490348AFF361
:1001C000008008BD00000000CC06002008BE00082A
:1001D00081F0004102E000BF83F0004330B54FEAF8
:1001E00041044FEA430594EA050F08BF90EA020F65
:1001F0001FBF54EA000C55EA020C7FEA645C7FEAF8
:10020000655C00F0E2804FEA5454D4EB5555B8BF1A
:100210006D420CDD2C4480EA020281EA030382EA8B
:10022000000083EA010180EA020281EA0303362D1D
:1002300088BF30BD11F0004F4FEA01314FF4801CF0
:100240004CEA113102D0404261EB410113F0004F02
:100250004FEA03334CEA133302D0524263EB4303B9
:1002600094EA050F00F0A780A4F10104D5F1200E57
:100270000DDB02FA0EFC22FA05F2801841F10001B2
:1002800003FA0EF2801843FA05F359410EE0A5F186
:1002900020050EF1200E012A03FA0EFC28BF4CF0B7
:1002A000020C43FA05F3C01851EBE37101F000456D
:1002B00007D54FF0000EDCF1000C7EEB00006EEB7A
:1002C0000101B1F5801F1BD3B1F5001F0CD3490804
:1002D0005FEA30004FEA3C0C04F101044FEA44525B
:1002E00012F5800F80F09A80BCF1004F08BF5FEAE2
:1002F000500C50F1000041EB045141EA050130BDC2
:100300005FEA4C0C404141EB0101013C28BFB1F5D3
:10031000801FE9D291F0000F04BF01460020B1FA1E
:1003200081F308BF2033A3F10B03B3F120020CDAF1
:100330000C3208DD02F1140CC2F10C0201FA0CF0CF
:1003400021FA02F10CE002F11402D8BFC2F1200C34
:1003500001FA02F120FA0CFCDCBF41EA0C019040EA
:10036000E41AA2BF01EB0451294330BD6FEA040433
:100370001F3C1CDA0C340EDC04F11404C4F120021E
:1003800020FA04F001FA02F340EA030021FA04F330
:1003900045EA030130BDC4F10C04C4F1200220FA87
:1003A00002F001FA04F340EA0300294630BD21FAC5
:1003B00004F0294630BD94F0000F83F4801306BF8B
:1003C00081F480110134013D4EE77FEA645C18BF7F
:1003D0007FEA655C29D094EA050F08BF90EA020F16
:1003E00005D054EA000C04BF1946104630BD91EA0E
:1003F000030F1EBF0021002030BD5FEA545C05D111
:100400004000494128BF41F0004130BD14F580044F
:100410003CBF01F5801130BD01F0004545F0FE41C3
:1004200041F470014FF0000030BD7FEA645C1ABFF8
:10043000194610467FEA655C1CBF0B46024650EA2F
:10044000013406BF52EA033591EA030F41F400215B
:1004500030BD00BF90F0000F04BF0021704730B5E1
:100460004FF4806404F132044FF000054FF00001B6
:1004700050E700BF90F0000F04BF0021704730B577
:100480004FF4806404F1320410F0004548BF40424C
:100490004FF000013EE700BF42004FEAE2014FEAA1
:1004A00031014FEA02701FBF12F07F4393F07F4F7C
:1004B00081F06051704732F07F4208BF704793F07F
:1004C0007F4F04BF41F40021704730B54FF4607492
:1004D00001F0004521F000411CE700BF50EA010295
:1004E00008BF704730B54FF000050AE050EA01023E
:1004F00008BF704730B511F0004502D5404261EBAE
:1005000041014FF4806404F132045FEA915C3FF4EE
:10051000D8AE4FF003025FEADC0C18BF03325FEA8B
:10052000DC0C18BF033202EBDC02C2F1200300FA3C
:1005300003FC20FA02F001FA03FE40EA0E0021FA61
:1005400002F11444BDE600BF70B54FF0FF0C4CF44F
:10055000E06C1CEA11541DBF1CEA135594EA0C0F01
:1005600095EA0C0F00F0DEF82C4481EA030621EA3C
:100570004C5123EA4C5350EA013518BF52EA033577
:1005800041F4801143F4801338D0A0FB02CE4FF029
:100590000005E1FB02E506F00042E0FB03E54FF059
:1005A0000006E1FB03569CF0000F18BF4EF0010E51
:1005B000A4F1FF04B6F5007F64F5407404D25FEA4D
:1005C0004E0E6D4146EB060642EAC62141EA555100
:1005D0004FEAC52040EA5E504FEACE2EB4F1FD0C42
:1005E00088BFBCF5E06F1ED8BEF1004F08BF5FEAC0
:1005F000500E50F1000041EB045170BD06F0004672
:1006000046EA010140EA020081EA0301B4EB5C041E
:10061000C2BFD4EB0C0541EA045170BD41F4801116
:100620004FF0000E013C00F3AB8014F1360FDEBF3B
:10063000002001F0004170BDC4F10004203C35DA17
:100640000C341BDC04F11404C4F1200500FA05F39A
:1006500020FA04F001FA05F240EA020001F000423B
:1006600021F0004110EBD37021FA04F642EB0601B1
:100670005EEA430E08BF20EAD37070BDC4F10C04DB
:10068000C4F1200500FA04F320FA05F001FA04F29F
:1006900040EA020001F0004110EBD37041F100018B
:1006A0005EEA430E08BF20EAD37070BDC4F1200596
:1006B00000FA05F24EEA020E20FA04F301FA05F2FE
:1006C00043EA020321FA04F001F0004121FA04F2A6
:1006D00020EA020000EBD3705EEA430E08BF20EA76
:1006E000D37070BD94F0000F0FD101F000464000B0
:1006F00041EB010111F4801F08BF013CF7D041EA32
:10070000060195F0000F18BF704703F00046520035
:1007100043EB030313F4801F08BF013DF7D043EA06
:100720000603704794EA0C0F0CEA135518BF95EABC
:100730000C0F0CD050EA410618BF52EA4306D1D143
:1007400081EA030101F000414FF0000070BD50EA62
:10075000410606BF1046194652EA430619D094EAEC
:100760000C0F02D150EA013613D195EA0C0F05D1D6
:1007700052EA03361CBF104619460AD181EA03012A
:1007800001F0004141F0FE4141F470014FF00000E2
:1007900070BD41F0FE4141F4780170BD70B54FF07D
:1007A000FF0C4CF4E06C1CEA11541DBF1CEA1355FD
:1007B00094EA0C0F95EA0C0F00F0A7F8A4EB0504DF
:1007C00081EA030E52EA03354FEA013100F08880D6
:1007D0004FEA03334FF0805545EA131343EA12639F
:1007E0004FEA022245EA111545EA10654FEA002654
:1007F0000EF000419D4208BF964244F1FD0404F50D
:10080000407402D25B084FEA3202B61A65EB030568
:100810005B084FEA32024FF480104FF4002CB6EB25
:10082000020E75EB030E22BFB61A754640EA0C00A5
:100830005B084FEA3202B6EB020E75EB030E22BFE5
:10084000B61A754640EA5C005B084FEA3202B6EB26
:10085000020E75EB030E22BFB61A754640EA9C00E5
:100860005B084FEA3202B6EB020E75EB030E22BFB5
:10087000B61A754640EADC0055EA060E18D04FEA73
:10088000051545EA16754FEA06164FEAC30343EA13
:1008900052734FEAC2025FEA1C1CC0D111F4801FE0
:1008A0000BD141EA00014FF000004FF0004CB6E7D9
:1008B00011F4801F04BF01430020B4F1FD0C88BF78
:1008C000BCF5E06F3FF6AFAEB5EB030C04BFB6EB83
:1008D000020C5FEA500C50F1000041EB045170BD76
:1008E0000EF0004E4EEA113114EB5C04C2BFD4EBA3
:1008F0000C0541EA045170BD41F480114FF0000E27
:10090000013C90E645EA060E8DE60CEA135594EAA2
:100910000C0F08BF95EA0C0F3FF43BAF94EA0C0FA5
:100920000AD150EA01347FF434AF95EA0C0F7FF41A
:1009300025AF104619462CE795EA0C0F06D152EA6E
:1009400003353FF4FDAE1046194622E750EA410652
:1009500018BF52EA43067FF4C5AE50EA41047FF463
:100960000DAF52EA43057FF4EBAE12E74FEA4102C6
:10097000B2F1E04324BFB3F5001CDCF1FE5C0DD9FD
:1009800001F0004C4FEAC0024CEA5070B2F1004F47
:1009900040EB830008BF20F00100704711F0804F4A
:1009A00021D113F13872BCBF01F00040704741F40F
:1009B00080114FEA5252C2F11802C2F1200C10FA13
:1009C0000CF320FA02F018BF40F001004FEAC123F7
:1009D0004FEAD32303FA0CFC40EA0C0023FA02F39B
:1009E0004FEA4303CCE77FEA625307D150EA013371
:1009F0001EBF4FF0FE4040F44000704701F0004041
:100A000040F0FE4040F40000704700BF53B94AB9BF
:100A1000002908BF00281CBF4FF0FF314FF0FF3006
:100A200000F06AB9ADF1080C6DE904CE00F006F8EB
:100A3000DDF804E0DDE9022304B070472DE9F0475A
:100A4000089D0C46002B4ED194468C458646B2FA42
:100A500082F262D94AB1C2F12003914020FA03F335
:100A60000CFA02FC194300FA02FE4FEA1C471FFA77
:100A70008CF6B1FBF7F44FEA1E4307FB141143EA6F
:100A8000014304FB06F199420AD91CEB030304F16C
:100A9000FF3080F01281994240F20F81023C6344A2
:100AA000591A1FFA8EF3B1FBF7F007FB101143EA56
:100AB000014300FB06F69E420AD91CEB030300F13A
:100AC000FF3180F0FC809E4240F2F980634402389E
:100AD0009B1B40EA044000211DB1D3400022C5E920
:100AE0000032BDE8F0878B4205D90DB1C5E90001A0
:100AF00000210846F5E7B3FA83F1002946D1A34265
:100B000002D39042C0F0F080861A64EB0303012008
:100B1000002DE6D0C5E90063E3E7002A40F09080AD
:100B2000A1EB0C044FEA1C481FFA8CF70121B4FB1F
:100B3000F8F64FEA1E4308FB164443EA044307FB5A
:100B400006F0984208D91CEB030306F1FF3402D2E9
:100B5000984200F2CD8026461C1A1FFA8EF3B4FB91
:100B6000F8F008FB104443EA044300FB07F79F42F8
:100B700008D91CEB030300F1FF3402D29F4200F2BC
:100B8000B0802046DB1B40EA0640A5E7C1F1200605
:100B90008B4022FA06F71F4320FA06FC04FA01F301
:100BA00043EA0C03F44000FA01F8380C4FEA134909
:100BB000B4FBF0FE1FFA87FC00FB1E4449EA044424
:100BC0000EFB0CF9A14502FA01F20AD93C190EF10B
:100BD000FF3A80F08480A14540F28180AEF1020EA0
:100BE0003C44A4EB09041FFA83F9B4FBF0F300FBC7
:100BF000134449EA044403FB0CFCA44507D93C19FF
:100C000003F1FF3067D2A44565D9023B3C4443EA77
:100C10000E40A0FB0293A4EB0C049C42CE469C46E3
:100C200051D34ED055B1B8EB0E0364EB0C0404FA6B
:100C300006F6CB401E43CC40C5E90064002150E7D6
:100C4000C2F1200320FA03F10CFA02FC24FA03F3A8
:100C500094400C434FEA1C4800FA02FE1FFA8CF73E
:100C6000B3FBF8F008FB1031230C43EA014300FB0F
:100C700007F1994208D91CEB030300F1FF362CD28F
:100C800099422AD9023863445B1AA4B2B3FBF8F143
:100C900008FB113344EA034401FB07F3A34208D9DC
:100CA0001CEB040401F1FF3613D2A34211D902391F
:100CB0006444E41A41EA004139E70446F0E6084694
:100CC00006E7C845AED2B9EB020E63EB070C01385C
:100CD000A8E73146EDE7034699E73046D4E7D64624
:100CE0007FE7634402384DE70646234608460FE790
:100CF000023E634430E700BF704700BF034613F86D
:100D0000012B002AFBD1181A01387047000000009F
:100D100001F0FF01102A2BDB10F0070F08D010F8AC
:100D2000013B013A8B422DD010F0070F42B3F6D1B0
:100D3000F0B441EA012141EA014122F007047FF0C9
:100D400000070023F0E80256083C85EA010586EA20
:100D5000010685FA47F5A3FA87F586FA47F6A5FA5C
:100D600087F68EB9EED1F0BC01F0FF0102F0070268
:100D700032B110F8013B013A83EA010313B1F8D113
:100D80000020704701387047002D06BF35460338F4
:100D9000073815F0010F07D1013015F4807F02BF2D
:100DA000013015F4C03F0130F0BC0138704700BF7E
:100DB0004FF0FF3C06E000BF4FF0010C02E000BF27
:100DC0004FF0010C4DF804CD4FEA410C7FEA6C5C0A
:100DD0004FEA430C18BF7FEA6C5C1BD001B050EAAD
:100DE000410C0CBF52EA430C91EA030F02BF90EA98
:100DF000020F0020704710F1000F91EA030F58BF57
:100E0000994208BF90422CBFD8176FEAE37040F0B8
:100E1000010070474FEA410C7FEA6C5C02D150EA56
:100E2000013C07D14FEA430C7FEA6C5CD6D152EA11
:100E3000033CD3D05DF8040B704700BF84461046D6
:100E400062468C461946634600E000BF01B5FFF7D5
:100E5000B7FF002848BF10F1000F01BD4DF808EDA5
:100E6000FFF7F4FF0CBF012000205DF808FB00BF76
:100E70004DF808EDFFF7EAFF34BF012000205DF8D0
:100E800008FB00BF4DF808EDFFF7E0FF94BF01201D
:100E900000205DF808FB00BF4DF808EDFFF7CEFF1E
:100EA00094BF012000205DF808FB00BF4DF808ED5D
:100EB000FFF7C4FF34BF012000205DF808FB00BF2E
:100EC0004FEA410C7FEA6C5C02D150EA013C0AD146
:100ED0004FEA430C7FEA6C5C02D152EA033C02D138
:100EE0004FF0000070474FF0010070474FEA410299
:100EF00012F5001215D211D56FF47873B3EB62526C
:100F000012D94FEAC12343F0004343EA505311F092
:100F1000004F23FA02F018BF404270474FF0000024
:100F2000704750EA013005D111F0004008BF6FF062
:100F3000004070474FF00000704700BF84B000B51C
:100F400085B00DF1180C8CE80F0000238DF80F30E0
:100F500006A803F0A0FF0528FAD04FF4FA73009317
:100F600001230DF10F021CA906A803F0A6FD30B95C
:100F70009DF80F0005B05DF804EB04B07047FF204A
:100F8000F8E708B50022B0F85C10806D01F014FF9E
:100F900008BD08B50122B0F85C10806D01F00CFFAF
:100FA00008BD000030B599B00C4615468DF8070015
:100FB000582202A806F0A2FB9DF8073063F07F03D9
:100FC0008DF807302046FFF7DCFF4FF4FA7301225B
:100FD0000DF1070102A803F08EFC4FF4FA732A46C4
:100FE000044902A803F093FE2046FFF7D2FF19B090
:100FF00030BD00BFE806002008B513460A46194672
:10100000FFF7D0FF08BD00002DE9F041AAB08046EF
:101010000E4615461C460846FFF7B3FF14AF58228C
:101020003146384606F06AFBCDF84880482218A9B8
:10103000684606F063FB97E80F00FFF77FFF124B4F
:1010400000221A8014E015F80C301293482218A9D7
:10105000684606F053FB0DF1500C9CE80F00FFF7BB
:101060006DFF0948B0F800C00CF1010CA0F800C0F9
:10107000054BB3F800C0A445E5D33046FFF789FF20
:101080002AB0BDE8F08100BFE406002000B583B0BF
:101090000B4611468DF8073001230DF10702FFF7CB
:1010A000B3FF03B05DF804FB70B506460D46144669
:1010B0008C212520FFF7EAFF224631462620FFF744
:1010C000E5FF224645F080016320FFF7DFFF0121A5
:1010D000044B187800F030FB224629464920FFF7E0
:1010E0008BFF70BD7810002070B506460D46144683
:1010F0000C212520FFF7CAFF224631462620FFF7A4
:10110000C5FF224629466320FFF7C0FF2246812102
:101110002720FFF7BBFF70BD08B5024601217520EF
:10112000FFF76AFF014B187808BD00BFE8060020F2
:1011300008B5024601210020FFF7B6FF014B1878E1
:1011400008BD00BFE806002084B010B504460DF1CC
:101150000C0C8CE80E005822614606F0CFFA199B61
:10116000A365BDF86830A4F85C3000231EE003F1ED
:101170001C0204EB82020021516003F1200204EB07
:101180008202116003F1220204EB8202516003F13A
:101190003002002124F8121004EB4202D18003F146
:1011A000340204EB420291800133DBB2022BDED920
:1011B000BDE8104004B0704738B5044602468021AF
:1011C0006B20FFF763FF3F4D0A21287800F0B4FA47
:1011D000224620216A20FFF759FF22460D212420B4
:1011E000FFF754FF224600210A20FFF77DFF224629
:1011F00080216B20FFF74AFF0A21287800F09CFA33
:10120000224601210B20FFF76FFF224601216B20B0
:10121000FFF73CFF224600216C20FFF737FF2246F4
:1012200000211920FFF732FF224618211B20FFF76B
:101230002DFF224618211C20FFF728FF22460021FF
:101240001D20FFF723FF224600211A20FFF71EFF73
:10125000224620216A20FFF719FF22460D21242073
:10126000FFF714FF224600210A20FFF73DFF64210B
:10127000287800F061FA22460F210A20FFF734FF98
:101280006421287800F058FA224600210A20FFF74E
:101290002BFF6421287800F04FFA224616210A20FD
:1012A000FFF722FF6421287800F046FA2246012148
:1012B0006B20FFF7EBFE224607210320FFF7F4FE29
:1012C000002038BD7810002038B5044602460621BB
:1012D0003B20FFF791FE2A4D2A786B7843EA0223E0
:1012E0001BB2A4F86030B4F8600000B207EE900AB8
:1012F000F8EEE77A17EE900AFFF7CEF81EA3D3E9CF
:101300000023FFF74BFAFFF731FB6067AA78EB7811
:1013100043EA02231BB2A4F86230B4F8620000B2C0
:1013200007EE900AF8EEE77A17EE900AFFF7B4F8A6
:1013300011A3D3E90023FFF731FAFFF717FBA067EA
:101340002A796B7943EA02231BB2A4F86430B4F81B
:10135000640000B207EE900AF8EEE77A17EE900A02
:10136000FFF79AF804A3D3E90023FFF717FAFFF772
:10137000FDFAE06738BD00BF8FC2F5285C1F6A40E8
:10138000E80600200000000038B5044602460621A9
:101390004320FFF731FE224D2A786B7843EA02237F
:1013A0001BB2A4F86630B4F8660000B2FFF762F82A
:1013B00019A3D3E90023FFF7F1F9FFF7D7FAC4F82F
:1013C0008000AA78EB7843EA02231BB2A4F86830C5
:1013D000B4F8680000B2FFF74DF80FA3D3E900237B
:1013E000FFF7DCF9FFF7C2FAC4F884002A796B79B9
:1013F00043EA02231BB2A4F86A30B4F86A0000B2D0
:10140000FFF738F804A3D3E90023FFF7C7F9FFF784
:10141000ADFAC4F8880038BDFCA9F1D24D62304065
:10142000E8060020000000002DE9F04F87B00446D8
:101430008B4B1B88ADF8143000238DF816300393C6
:10144000ADF81030024603211020FFF72DFE854D28
:1014500095F800A08DF814A095F801908DF81590DE
:1014600095F802808DF81680224601210320FFF7AF
:101470001BFE2E788DF80C60224601210920FFF713
:1014800013FE224601210420FFF70EFE95F800B05E
:101490008DF80DB0224601210920FFF705FE2246F6
:1014A00001210520FFF700FE2B7800938DF80E3008
:1014B000224601210920FFF7F7FD224601210620DF
:1014C000FFF7F2FD2F788DF80F70224601210920D9
:1014D000FFF7EAFD224601210720FFF7E5FD2A7804
:1014E00001928DF81020224601210920FFF7DCFD32
:1014F000224601210820FFF7D7FD2D788DF81150E5
:10150000224601210920FFF7CFFD46EA0B2636B21D
:10151000A4F86C60009B43EA07231BB2A4F86E306A
:10152000019A42EA05231BB2A4F87030B4F86C00AB
:1015300000B207EE900AF8EEE77A17EE900AFEF78F
:10154000ABFF06460F46AAF18000FEF793FF00228C
:10155000454BFEF7F9FF0022444BFEF73FFE0246E3
:101560000B4630463946FEF7EFFFFFF7FFF9C4F8A8
:101570008C00B4F86C0000B2FEF77CFF36A3D3E910
:101580000023FEF7E1FFFFF7F1F9C4F88C00B4F88F
:101590006E0000B207EE900AF8EEE77A17EE900AB6
:1015A000FEF77AFF06460F46A9F18000FEF762FFBC
:1015B00000222D4BFEF7C8FF00222C4BFEF70EFE3B
:1015C00002460B4630463946FEF7BEFFFFF7CEF91E
:1015D000C4F89000B4F86E0000B2FEF74BFF1EA3F3
:1015E000D3E90023FEF7B0FFFFF7C0F9C4F890007D
:1015F000B4F8700000B207EE900AF8EEE77A17EE42
:10160000900AFEF749FF06460F46A8F18000FEF754
:1016100031FF0022144BFEF797FF0022134BFEF719
:10162000DDFD02460B4630463946FEF78DFFFFF7DB
:101630009DF9C4F89400B4F8700000B2FEF71AFFE8
:1016400005A3D3E90023FEF77FFFFFF78FF9C4F866
:10165000940007B0BDE8F08F333333333333C33FE7
:1016600020BE0008E80600200000703F0000F03FA8
:1016700010B50446FFF728FE2046FFF785FE2046FA
:10168000FFF7D2FE10BD000010B582B00024019417
:101690000D4B1A6B42F480021A631B6B03F4800338
:1016A0000193019B22460521382001F0A5F838203E
:1016B00001F0B2F8224605213B2001F09DF83B20C5
:1016C00001F0AAF802B010BD0038024008B50E4A79
:1016D00000210E4804F040F80D4B18600D4A00211F
:1016E0000D4804F039F80D4B18600D4A00210D48E3
:1016F00004F032F80C4B18600C4A00210C4804F03E
:101700002BF80C4B186008BDD0BE00084D17000820
:1017100074100020ACBE000871170008140E0020E1
:1017200088BE000895170008B40B002064BE0008AE
:10173000B91700085409002008B518B9084600F088
:10174000F3FF08BD084604F065F8FAE708B5064B54
:101750001868FFF7B9FD054B1868FFF7B5FD0120C4
:1017600004F058F8F3E700BF040000200000002058
:1017700008B5064B1868FFF707FE054B1868FFF71A
:1017800003FE012004F046F8F3E700BF0400002048
:101790000000002008B5064B1868FFF745FE054B12
:1017A0001868FFF741FE012004F034F8F3E700BFAA
:1017B00004000020000000202DE9804895B0DFF8EB
:1017C00098A207AD54460FCC0FC50FCC0FC594E8B7
:1017D000070085E8070007A8FFF790FA994E4FF039
:1017E000FF3382B207A9304603F015FF964D2B68F0
:1017F0005F6FD3F87880DFF86492D86FFEF74CFE05
:10180000CDE904014046FEF747FECDE90201384626
:10181000FEF742FECDE900014A46322107A805F055
:1018200079FE07A8FFF76AFA4FF0FF3382B207A9E3
:10183000304603F0F0FE2B68D3F88070D3F884B004
:10184000DFF81C82D3F88800FEF726FECDE90401FC
:101850005846FEF721FECDE902013846FEF71CFE90
:10186000CDE900014246322107A805F053FE07A842
:10187000FFF744FA4FF0FF3382B207A9304603F076
:10188000CAFE2B68D3F88C50D3F890B06F4FD3F8C2
:101890009400FEF701FECDE904015846FEF7FCFD79
:1018A000CDE902012846FEF7F7FDCDE900013A46F1
:1018B000322107A805F02EFE07A8FFF71FFA4FF008
:1018C000FF3382B207A9304603F0A5FE07ADD44628
:1018D000BCE80F000FC5BCE80F000FC594E8070077
:1018E00085E8070007A8FFF709FA4FF0FF3382B237
:1018F00007A9304603F08FFE0DF11C0C544C0FCCA1
:10190000ACE80F000FCCACE80F0094E807008CE8BF
:10191000070007A8FFF7F2F94FF0FF3382B207A9DB
:10192000304603F078FEDFF83CA1DAF80030D3F857
:1019300074B09D6FD86FFEF7AFFDCDE90401284666
:10194000FEF7AAFDCDE902015846FEF7A5FDCDE957
:1019500000014A46322107A805F0DCFD07A8FFF781
:10196000CDF94FF0FF3382B207A9304603F053FEA2
:10197000DAF80030D3F88090D3F884B0D3F8880038
:10198000FEF78AFDCDE904015846FEF785FDCDE955
:1019900002014846FEF780FDCDE9000142463221B2
:1019A00007A805F0B7FD07A8FFF7A8F94FF0FF3328
:1019B00082B207A9304603F02EFEDAF80030D3F8E1
:1019C0008C80D3F89090D3F89400FEF765FDCDE9B4
:1019D00004014846FEF760FDCDE902014046FEF7EE
:1019E0005BFDCDE900013A46322107A805F092FDE2
:1019F00007A8FFF783F94FF0FF3382B207A93046FB
:101A000003F009FE0DF11C0CA4F1200EBEE80F003E
:101A1000ACE80F00BEE80F00ACE80F0094E8070048
:101A20008CE8070007A8FFF769F94FF0FF3382B28F
:101A300007A9304603F0EFFDC821064B1878FFF7E1
:101A40007BFEBCE65C1400200400002058BF0008A8
:101A500074BF000878100020F4BE000820BF000802
:101A60003CBF0008000000202DE9F0418AB00024AE
:101A7000059406940794089409940094334B1A6BC8
:101A800042F004021A631A6B02F004020092009AF8
:101A900001941A6B42F020021A631A6B02F02002C2
:101AA0000192019A02941A6B42F080021A631A6B37
:101AB00002F080020292029A03941A6B42F0010231
:101AC0001A631A6B02F001020392039A04941A6BD0
:101AD00042F002021A631B6B03F002030493049B9F
:101AE000DFF8748022464FF40071404601F064F93B
:101AF000174F22464FF40061384601F05DF9154E4C
:101B000022462021304601F057F94FF40073059327
:101B1000012506950795089405A9404601F056F859
:101B20004FF40063059306950794089405A9384679
:101B300001F04CF82023059306950794089405A915
:101B4000304601F043F80AB0BDE8F08100380240A9
:101B500000000240000402400014024008B50B4897
:101B60000B4B03600B4B436000238360C3604FF457
:101B70008042026143618361C361036201F002FB41
:101B800000B908BD00F0A4F8FBE700BFD0100020AA
:101B900000540040A086010008B50B480B4B0360C1
:101BA0000B4B436000238360C3604FF480420261AB
:101BB00043618361C361036201F0E4FA00B908BDC7
:101BC00000F086F8FBE700BF7C10002000580040C2
:101BD000A086010030B58BB00023059306930793D0
:101BE0000893099303682F4A934204D02E4A9342E4
:101BF00036D00BB030BD002501952C4C236B43F043
:101C000002032363236B03F002030193019BC023B0
:101C100005931223069301230793032308930423B8
:101C2000099305A9224800F0D1FF0295236C43F4E3
:101C300000132364236C03F400130293029B2A46CF
:101C400005211F2000F0D8FD1F2000F0E5FD2A46E9
:101C50000521202000F0D0FD202000F0DDFDC8E7A8
:101C600000250395114C236B43F020032363236B62
:101C700003F020030393039B032305931222069290
:101C800008930423099305A90A4800F09FFF0495CF
:101C9000236C43F480032364236C03F480030493D4
:101CA000049BA6E700540040005800400038024062
:101CB000000402400014024008B50268034B9A4237
:101CC00000D008BD00F01EFDFBE700BF0010004083
:101CD00072B6FEE700B595B03022002108A805F0E5
:101CE00090FC0023039304930593069307930193B9
:101CF000214A116C41F080511164126C02F0805243
:101D00000192019A02931D4B1A6842F480421A60B4
:101D10001B6803F480430293029B012308934FF452
:101D20008033099302230E934FF480020F9208220E
:101D300010924FF4A872119212930423139308A8DF
:101D400002F032F998B90F2303930223049300237E
:101D500005934FF4A05306934FF480530793052146
:101D600003A802F08BFB20B915B05DF804FBFFF768
:101D7000AFFFFFF7ADFF00BF00380240007000402A
:101D80002DE98048A5B000F0A3FCFFF7A3FFFFF703
:101D90006BFEFFF779FC00F01DFCFFF7DFFEFFF79D
:101DA000FBFE00F0B5F900F0D3F900F0B9FBC24C2E
:101DB000C24E35684FF400631493C14B139304F182
:101DC0000C074FF04C0842463946684605F096FC31
:101DD00094E80E002846FFF7B7F9BA4DD5F8009001
:101DE00020231493B84B139342463946684605F0B6
:101DF00085FC94E80E004846FFF7A6F93068FFF727
:101E0000DBF92868FFF7D8F9B04803F077F8B04B52
:101E100001221A7003F072FCFFF758FC03F080FCFB
:101E2000DFF89882D8F80000FFF782F9A94B187004
:101E3000D8F80000FFF770F9A74B1870D8F8000029
:101E4000FFF716FC9F4F3868FFF712FC17ADA34C45
:101E50000FCC0FC50FCC0FC594E8070085E807002D
:101E600017A8FEF74BFF9E4E4FF0FF3382B217A923
:101E7000304603F0D0FBD8F800305D6FD3F878908F
:101E8000DFF864A2D86FFEF707FBCDE904014846EE
:101E9000FEF702FBCDE902012846FEF7FDFACDE987
:101EA00000015246322117A805F034FB17A8FEF7AF
:101EB00025FF4FF0FF3382B217A9304603F0ABFB8A
:101EC000D8F80030D3F88050D3F884B0DFF81C92F3
:101ED000D3F88800FEF7E0FACDE904015846FEF792
:101EE000DBFACDE902012846FEF7D6FACDE900017A
:101EF0004A46322117A805F00DFB17A8FEF7FEFE93
:101F00004FF0FF3382B217A9304603F084FBD8F8B4
:101F10000030D3F88C50D3F890B0DFF8D481D3F8E8
:101F20009400FEF7B9FACDE904015846FEF7B4FA79
:101F3000CDE902012846FEF7AFFACDE9000142469D
:101F4000322117A805F0E6FA17A8FEF7D7FE4FF0E2
:101F5000FF3382B217A9304603F05DFB17ADA4F141
:101F6000200CBCE80F000FC5BCE80F000FC594E8BB
:101F7000070085E8070017A8FEF7C0FE4FF0FF3303
:101F800082B217A9304603F046FB0DF15C0C554CAC
:101F90000FCCACE80F000FCCACE80F0094E80700C2
:101FA0008CE8070017A8FEF7A9FE4FF0FF3382B2B6
:101FB00017A9304603F02FFB3B68D3F874B09D6F30
:101FC000D86FFEF769FACDE904012846FEF764FAF6
:101FD000CDE902015846FEF75FFACDE9000152460D
:101FE000322117A805F096FA17A8FEF787FE4FF0E2
:101FF000FF3382B217A9304603F00DFB3B68D3F8DC
:1020000080A0D3F884B0D3F88800FEF745FACDE974
:1020100004015846FEF740FACDE902015046FEF7AA
:102020003BFACDE900014A46322117A805F072FAC1
:1020300017A8FEF763FE4FF0FF3382B217A93046B0
:1020400003F0E9FA3B68D3F88C70D3F89090D3F89A
:102050009400FEF721FACDE904014846FEF71CFA88
:10206000CDE902013846FEF717FACDE900014246F4
:10207000322117A805F04EFA17A8FEF73FFE4FF0E1
:10208000FF3382B217A9304603F0C5FA0DF15C0C9C
:10209000A4F1200EBEE80F00ACE80F00BEE80F0070
:1020A000ACE80F0094E807008CE8070017A8FEF7DB
:1020B00025FE4FF0FF331DE07013002004000020C8
:1020C0000000024000000020000402401414002020
:1020D000781000205512002054120020F4BE000891
:1020E0005C14002074BF000820BF00083CBF00083B
:1020F00058BF000882B217A9304603F08CFAC821F5
:10210000024B1878FFF718FB8AE600BF7810002012
:1021100008B50D480D4B03604FF4827343600023F4
:102120008360C360036143614FF400728261C361E5
:102130000362436283620A23C36202F07DFB00B93B
:1021400008BDFFF7C5FDFBE770130020003001401C
:1021500008B50D480D4B03604FF4827343600023B4
:102160008360C360036143614FF400728261C361A5
:102170000362436283620A23C36202F05DFB00B91B
:1021800008BDFFF7A5FDFBE718130020003800404D
:10219000F0B58BB00023059306930793089309933A
:1021A00003684C4A934204D04B4A934259D00BB037
:1021B000F0BD044600250095484B5A6C42F480520D
:1021C0005A645A6C02F480520092009A01951A6B7C
:1021D00042F001021A631B6B03F001030193019BA0
:1021E000E023059302230693032308930523099311
:1021F00005A93B4800F0EAFC3A483B4B03604FF02E
:10220000C06343608560C5604FF4806303614561CE
:102210008561C5610562456200F06CFBD8B9314B40
:10222000E3649C633148324B03604FF0C06343600A
:10223000402383600023C3604FF4806202614361E6
:102240008361C3610362436200F054FB30B9274BE2
:10225000A3649C63ABE7FFF73BFDE0E7FFF738FDC6
:10226000F5E7002402941D4B1A6C42F480421A6474
:102270001A6C02F480420292029A03941A6B42F0A2
:1022800004021A631A6B02F004020392039A049484
:102290001A6B42F002021A631B6B03F002030493F1
:1022A000049B0C2305930227069703260896052511
:1022B000099505A90F4800F089FC4FF48063059348
:1022C000069707940896099505A90B4800F07EFC2F
:1022D0006DE700BF00300140003800400038024088
:1022E00000000240B8120020106402405812002082
:1022F00058640240000802400004024000B583B068
:10230000002200920D4B596C41F480415964596C84
:1023100001F48041009100990192196C41F08051C3
:1023200019641B6C03F080530193019B0F216FF024
:10233000010000F061FA03B05DF804FB00380240D0
:1023400030B589B0044600230193214B1A6C42F04A
:1023500010021A641B6C03F010030193019B02A985
:1023600003A802F061F9069BCBB902F03DF90346E0
:10237000184AA2FB03239B0C013B1748174A026033
:1023800040F2E732C26043600023036183608361EF
:1023900002F018FF054630B1284609B030BD02F002
:1023A00023F94300E4E70C4802F0A8FD05460028A5
:1023B000F2D1362000F030FA0F2C01D90125EBE7DD
:1023C00000222146362000F017FA054B1C60E3E797
:1023D0000038024083DE1B43C81300200010004079
:1023E00010000020FEE7FEE7FEE7FEE7FEE770478D
:1023F00008B5024802F0CAFD08BD00BF1414002051
:1024000008B5024801F0A2FC08BD00BFD0100020B2
:1024100008B5024801F06AFD08BD00BFD0100020D9
:1024200008B5024802F0B2FD08BD00BFC813002085
:1024300008B5024800F0D8FA08BD00BFB812002065
:1024400008B5024800F0D0FA08BD00BF58120020BD
:102450000120704708B505F023F9162303604FF0FB
:10246000FF3008BD08B54FF0FF31FFF7F3FFFEE77F
:1024700070B50C461646002506E0AFF300802146F5
:1024800001F8010B01350C46B542F6DB304670BD54
:1024900070B50C461646002504E014F8010BAFF3A6
:1024A00000800135B542F8DB304670BD4FF0FF309B
:1024B00070474FF400534B60002070470120704775
:1024C0000020704710B503460C4A0D490D480068BE
:1024D00040B10C4800680344521A934206D8094A96
:1024E000136010BD0748084C0460F2E705F0D8F807
:1024F0000C2303604FF0FF30F3E700BF0000022021
:10250000000400001014002008610020034AD2F8E3
:10251000883043F47003C2F88830704700ED00E063
:1025200000B587B0002302930393049305930093AF
:1025300001931648164A026040F2473242608360B7
:1025400040F69F72C26003614361836102F03AFE0C
:1025500090B94FF48053029302A90C4802F06BFE2D
:1025600068B90023009301936946084802F0E2FE2F
:1025700040B907B05DF804FBFFF7AAFBE9E7FFF7F6
:10258000A7FBEEE7FFF7A4FBF3E700BF141400205E
:102590000000014002680E4B9A4200D0704700B51F
:1025A00083B00022019203F59C33596C41F0010184
:1025B00059645B6C03F001030193019B0521192011
:1025C00000F01AF9192000F027F903B05DF804FBB8
:1025D0000000014008B50A480A4B03604FF4E1339C
:1025E000436000238360C36003610C224261836106
:1025F000C36102F0E0FF00B908BDFFF769FBFBE72C
:102600005C1400200010014000B589B00023039342
:102610000493059306930793026803F1804303F53F
:1026200088339A4202D009B05DF804FB0021019181
:1026300003F594335A6C42F010025A645A6C02F05B
:1026400010020192019A02911A6B42F001021A6380
:102650001B6B03F001030293029B4FF4C0630393CF
:1026600002230493032306930723079303A9024835
:1026700000F0ACFAD7E700BF00000240DFF834D02A
:10268000FFF744FF0C480D490D4A002302E0D458DF
:10269000C4500433C4188C42F9D30A4A0A4C0023AC
:1026A00001E013600432A242FBD304F0FFFFFFF706
:1026B00067FB70470000022000000020C8060020D1
:1026C00074C30008C806002004610020FEE7000073
:1026D00008B50B4B1A6842F400721A601A6842F48B
:1026E00080621A601A6842F480721A60032000F057
:1026F00071F80020FFF724FEFFF700FE002008BD60
:10270000003C0240034A1168034B1B780B441360E2
:10271000704700BFA41400200C000020014B186873
:10272000704700BFA414002038B50446FFF7F6FF39
:102730000546B4F1FF3F02D0044B1B781C44FFF761
:10274000EDFF401BA042FAD338BD00BF0C000020B3
:10275000002807DB00F01F02400901239340024AD2
:1027600042F82030704700BF00E100E0002808DB9D
:102770000901C9B200F1604000F5614080F8001322
:10278000704700F00F000901C9B2014B195470479E
:1027900014ED00E000B500F00700C0F1070CBCF13B
:1027A000040F28BF4FF0040C031D062B0FD9C31EC6
:1027B0004FF0FF3E0EFA0CF021EA000199400EFAAC
:1027C00003FE22EA0E0241EA02005DF804FB002348
:1027D000EEE70000074AD36823F4E0631B041B0CF8
:1027E000000200F4E060034343F0BF6343F40033AE
:1027F000D360704700ED00E010B50446054BD86883
:10280000C0F30220FFF7C6FF01462046FFF7AEFFE8
:1028100010BD00BF00ED00E008B5FFF799FF08BD4F
:1028200010B40368D9B210390C4AA2FB0142120954
:102830000B4CA25CC2655F2909D923F47F7323F096
:10284000030304338365806D5DF8044B704723F404
:102850007F7323F003038365F5E700BFABAAAAAA41
:10286000B8BF0008836A826992B9012B0AD0022B93
:1028700002D00BB100207047C36A13F0807F28D1CB
:1028800000207047C36AB3F1C07F24D00020704796
:10289000B2F5005F09D0022B25D9032B25D1C36ADD
:1028A00013F0807F23D100207047032B03D8DFE88B
:1028B00003F01404140A00207047C36A13F0807FE9
:1028C0000DD100207047C36AB3F1C07F09D000204A
:1028D0007047012070470120704701207047012098
:1028E0007047012070470120704700207047012089
:1028F0007047000070B50446FFF710FF002C5BD056
:102900000546022384F83530002384F834302268E9
:10291000136823F00103136023681A6812F0010F93
:102920000AD0FFF7FBFE431B052BF5D92023636577
:10293000032084F8350070BD1A6820491140626890
:10294000A0680243E06802432069024360690243D1
:10295000A0690243E0690243206A02430A43616AB4
:1029600004291ED01A602668756925F00705636A78
:102970001D43042B07D1A36A1D43E36A1BB1204604
:10298000FFF770FF90B975612046FFF749FFE26DD0
:102990003F239340836000206065012384F8353035
:1029A000C9E7E16A206B01430A43DBE74023636523
:1029B000012084F83500BEE70120BCE73F8010F01D
:1029C00090F83530DBB2022B03D080234365012021
:1029D0007047052380F835300268136823F001033F
:1029E0001360002070470000F0B583B00446002358
:1029F0000193724B1D68724BA3FB0535AD0A876DC1
:102A00003E68C26D08239340334210D003681A68B1
:102A100012F0040F0BD01A6822F004021A60C26D83
:102A200008239340BB60436D43F001034365E26DAF
:102A300001239340334209D02268526912F0800F7B
:102A400004D0BB60636D43F002036365E26D042351
:102A50009340334209D02268126812F0020F04D06A
:102A6000BB60636D43F004036365E26D1023934024
:102A7000334224D02268126812F0080F1FD0BB60C6
:102A800023681A6812F4802F0DD01B6813F4002FEE
:102A900004D1236C9BB12046984710E0A36C73B11E
:102AA000204698470BE01A6812F4807F03D11A6819
:102AB00022F008021A60236C0BB120469847E26DA1
:102AC00020239340334255D02268126812F0100F31
:102AD00050D0BB6094F83530DBB2052B0ED02368A4
:102AE0001A6812F4802F33D01B6813F4002F2AD1F8
:102AF000636C002B3ED0204698473BE02268136869
:102B000023F0160313602268536923F08003536196
:102B1000236CA3B12268136823F008031360E26DED
:102B20003F239340BB60012384F83530002384F8B1
:102B30003430236D002B3FD0204698473CE0A36CF7
:102B4000002BE7D1EBE7E36BA3B12046984711E0F8
:102B50001A6812F4807F09D11A6822F010021A60F4
:102B6000012384F83530002384F83430E36B0BB153
:102B700020469847636DFBB1636D13F0010F17D0CA
:102B8000052384F835302268136823F001031360AD
:102B9000019B01330193AB4204D823681B6813F0F7
:102BA000010FF5D1012384F83530002384F8343047
:102BB000E36C0BB12046984703B0F0BD080000203D
:102BC000B5814E1B90F835007047000000230F2B95
:102BD00000F2E98070B582B065E085684FEA430E87
:102BE000032404FA0EF425EA0405CC6804FA0EF472
:102BF0002C438460446824EA02044A68C2F3001249
:102C00009A40224342605CE0DC08083450F82420FB
:102C100003F00705AD004FF00F0E0EFA05FE22EA95
:102C20000E0E0A69AA4042EA0E0240F824205CE037
:102C3000072200E0002202FA0EF22A4302345A4D23
:102C400045F82420594A94686FEA0C0224EA0C05DE
:102C50004E6816F4801F01D04CEA0405534CA56061
:102C6000E46802EA04054E6816F4001F01D04CEA3D
:102C700004054E4CE560646802EA04054E6816F4EB
:102C8000003F01D04CEA0405484C656024682240AE
:102C90004D6815F4803F01D04CEA0402434C226099
:102CA00001330F2B7DD801229A400C6804EA020CF4
:102CB00032EA0404F4D14C6804F00304013C012C12
:102CC0008BD94A6802F00302032A09D0C4685D0068
:102CD0000322AA4024EA02048A68AA402243C2606E
:102CE0004A6802F00302022A8ED004684FEA430EBB
:102CF000032202FA0EF224EA02044A6802F00302F6
:102D000002FA0EF2224302604A6812F4403FC7D032
:102D100000220192264A546C44F480445464526C5C
:102D200002F480420192019A9C08A51C1E4A52F8A6
:102D3000255003F0030E4FEA8E0E0F2202FA0EF218
:102D400025EA02051B4A90423FF474AF02F5806207
:102D500090421AD002F58062904218D002F580624B
:102D6000904216D002F58062904214D002F5806243
:102D7000904212D002F58062904210D002F580623B
:102D800090423FF455AF082255E7012253E7022253
:102D900051E703224FE704224DE705224BE70622C5
:102DA00049E702B070BD704700380140003C014067
:102DB00000380240000002400AB1816170470904F6
:102DC0008161704703685A6912F0800F01D00022B8
:102DD0001A61704790F83E30DBB2402B10D0036987
:102DE000B3F5804F1BD0036D002B39D1436CC3F377
:102DF000C813026803F0060343F0F0031361704741
:102E0000036D2BB9436C026803F0FE031361704736
:102E1000436C026843F00103DBB21361704790F822
:102E20003D30DBB2212B0FD0436C026843F001032D
:102E3000DBB21361436B6BB1DB6B5BB10268536850
:102E400043F4006353607047436C026803F0FE0371
:102E50001361EFE7836B33B1DB6B002BEED102E044
:102E6000036D012B00D07047436CC3F3C813026895
:102E700003F0060343F0F1031361F4E7436C0268C7
:102E8000DBB21361436B3BB1DB6B2BB10268536860
:102E900043F4006353607047836B002BFBD0DB6B04
:102EA000002BF3D1F7E7000010B48BB090F83E3060
:102EB000DAB2C16A046B90F83D30DBB2222B0BD042
:102EC0000023099303685A6909929B690993099B36
:102ED0000BB05DF8044B7047036D0BB9402A17D057
:102EE000036D1BB90369B3F5404F19D0438D9BB2F5
:102EF000002B25D1029303685A6902929A690292C3
:102F0000029A1A6842F400721A6000230365DFE730
:102F1000009303685A6900929B690093009BD7E76E
:102F20000023019303685A6901929A690192019AF8
:102F30001A6842F480721A60036D01330365C7E7B3
:102F4000438D9BB2012B1CD0438D9BB2022B72D0C0
:102F50000268136843F48063136003685A6812F4CC
:102F6000006F00F0A980202900F2AF80082980F0CE
:102F70009C80012940F0A0805A6842F480525A6037
:102F80009AE011F5803F11D0082934D0202932D0A1
:102F9000122C2ED0042940D002293ED010293CD03A
:102FA0000268136823F4806313603BE002681368CF
:102FB00023F48063136003685A6812F4006F0CD026
:102FC0001A6822F480621A600023039303685A6926
:102FD00003929B690393039B97E7002204925A692B
:102FE00004929A690492049A1A6842F400721A6070
:102FF0008BE70129D0D00268136823F48063136043
:103000000023069303685A6906929A690692069A03
:103010001A6842F400721A6077E70268136843F492
:10302000806313600023059303685A6905929B69C6
:103030000593059B69E7102904D8264BCB4013F074
:10304000010F19D10268136823F4806313600268CA
:10305000136843F40063136003685A6812F4006F46
:1030600016D020291DD808290CD2012910D15A6860
:1030700042F480525A600BE00268136843F48063A4
:103080001360E9E70839144ACA4012F0010FEED183
:103090000023079303685A6907929B690793079B6C
:1030A00033E711F5803FF3D1E1E708390A4ACA4016
:1030B00012F0010F7FF460AF0023089303685A6990
:1030C00008929B690893089B1FE711F5803FF3D195
:1030D00052E700BF1400010001010001438D9BB2C3
:1030E0005BB1426A036812781A61436A0133436232
:1030F000438D9BB2013B9BB243857047438D9BB28E
:103100005BB103681A69436A1A70436A0133436208
:10311000438D9BB2013B9BB24385704782B0002335
:1031200001930E4B1B68DB080D4AA2FB03231B0A0D
:1031300003EB83030193019B013B0193019B33B19B
:1031400003681B6813F4007FF5D1002004E0036CD2
:1031500043F020030364012002B070470800002000
:1031600089B5F814C36AB3F52A0F04D0C36AB3F162
:103170002A4F03D070470123C36270470823C362FC
:10318000F8E70000002800F0CC8070B5044690F805
:103190003D30002B77D0242384F83D30226813681B
:1031A00023F0010313602268136843F400431360A3
:1031B0002268136823F40043136001F015FA626873
:1031C0005A4B9A4264D85A4B98428CBF0023012331
:1031D000002B40F0A8805749A1FB00318B0C2568DB
:1031E0006A6822F03F0242EA91426A6021680A6AF4
:1031F00022F03F0266684D4DAE424FD80133134373
:103200000B622168CA6922F44F4222F0FF0265680E
:10321000464B9D424CD8431E6D00B3FBF5F3013382
:1032200040F6FC70034278D0C3F30B031A43CA6123
:1032300021680B6823F0C003E269206A024313434C
:103240000B6021688B6823F4034323F0FF0322699A
:10325000E068024313438B602168CB6823F0FF03CF
:103260006269A06902431343CB602268136843F08C
:103270000103136000202064202384F83D30206384
:1032800084F83E0070BD80F83C30FEF7A3FC82E776
:10329000294B98428CBF0023012399E74FF4967580
:1032A00005FB03F3254DA5FB03539B090133A6E75B
:1032B000A668BEB9431E05EB450CB3FBFCF3013316
:1032C000C3F30B03B3FA83F35B0943BBC6B9431ED5
:1032D00005EB4505B3FBF5F30133C3F30B0343F4EF
:1032E0000043A3E7431E05EB850C0CEB8C0CB3FBF2
:1032F000FCF30133C3F30B03B3FA83F35B09E4E795
:10330000431E05EB850505EB8505B3FBF5F301339E
:10331000C3F30B0343F4404388E7042386E7012308
:1033200084E7012070470120ACE700BFA0860100C0
:103330007F841E0083DE1B43FF083D00D34D6210D7
:1033400070477047704708B590F83D30DAB2438D4A
:103350009BB283B1416A036809781961436A0133FA
:103360004362438D9BB2013B9BB24385438D9BB22D
:103370000BB9292A00D008BD0268536823F4806382
:10338000536021230363282380F83D30FFF7DAFFE1
:10339000F1E7704708B590F83D30DAB2438D9BB243
:1033A00083B103681969436A1970436A0133436240
:1033B000438D9BB2013B9BB24385438D9BB20BB9BE
:1033C0002A2A00D008BD0268536823F48063536042
:1033D00022230363282380F83D30FFF7DAFFF1E76B
:1033E000704700B583B090F83D3003F02803282BD8
:1033F0000CD00023019302685169019192690192F6
:10340000019A80F83C3003B05DF804FB0268536811
:1034100023F48063536011F0040F0BD0002311F0EC
:10342000800F09D18289002180F83C101946FFF7EE
:10343000D7FFE8E70123F2E7028BF4E770470000CB
:1034400010B5044690F83D30DBB2C26A082A01D0BC
:10345000202A01D1282B06D0212B1FD023686FF4FE
:1034600080625A6110BD1D4BE3622268536823F4E9
:10347000E063536023686FF480625A6122681368C6
:1034800023F48063136000232363202284F83D200B
:1034900084F83E302046FFF7D1FFE3E70F4BE362AD
:1034A00021232363202384F83D30002384F83E3019
:1034B0002268536823F4E063536023686FF48062EA
:1034C0005A612268136823F4806313602046FFF773
:1034D00079FC2046FFF736FFC4E700BF0000FFFF7E
:1034E000704708B5C26A90F83D30DBB2212B00D09E
:1034F00008BD438D9BB263B1426A036812781A61BA
:10350000436A01334362438D9BB2013B9BB24385C7
:10351000EEE7082A04D0202A02D012F5803F19D104
:103520000268536823F4E06353600268136843F44D
:103530000073136000230363202380F83D3090F86C
:103540003E30DBB2402B15D0002380F83E30FFF731
:10355000F7FECDE70268536823F4E063536011235C
:103560000363002380F83E30202380F83D30FFF7CE
:10357000E7FEBDE7002380F83E30FFF7B1FFB7E775
:1035800008B590F83D30026D9AB9C36C012B08D094
:10359000836CC3F3072302681361036D0133036572
:1035A00008BD836C0268DBB21361036D02330365EF
:1035B000F6E7DBB2026D012A23D0026D022A3ED16A
:1035C000222B26D0428D92B20AB1212B2AD0428DD5
:1035D00092B2002AE4D1212BE2D10268536823F48D
:1035E000E06353600268136843F4007313600023C0
:1035F0000363202280F83D2080F83E30FFF770FF03
:10360000CEE7836C0268DBB21361036D013303659F
:10361000C6E70268136843F480731360036D0133D7
:103620000365BDE7426A036812781A61436A013391
:103630004362438D9BB2013B9BB24385B0E7FFF7EA
:10364000C1FBADE710B590F83D30DBB290F83E20FD
:10365000D2B2C46A018D00293BD1212B02D0402A6D
:1036600042D010BD082C04D0202C02D014F5803F8D
:1036700019D10268536823F4E06353600268136849
:1036800043F40073136000230363202380F83D306C
:1036900090F83E30DBB2402B15D0002380F83E304E
:1036A000FFF74EFEDDE70268536823F4E0635360E2
:1036B00011230363002380F83E30202380F83D303F
:1036C000FFF73EFECDE7002380F83E30FFF708FF0E
:1036D000C7E7212BC3D1438D9BB243B9026853681E
:1036E00023F480635360BCE7222BBAD1F3E790F850
:1036F0003E30DBB2402B0CD0426A036812781A616C
:10370000436A01334362438D9BB2013B9BB24385C5
:10371000A7E7FFF735FFA4E7704708B5C26A438DF6
:103720009BB2042B14D0438D9BB2032B22D0438D2C
:103730009BB2022B39D003681A69436A1A70436A34
:1037400001334362438D9BB2013B9BB2438510E042
:103750000268536823F48063536003681A69436AFC
:103760001A70436A01334362438D9BB2013B9BB2A3
:10377000438508BD01684B6823F480634B60042ACD
:1037800006D0022A04D00268136823F48063136011
:1037900003681A69436A1A70436A01334362438DAE
:1037A0009BB2013B9BB24385E3E7531E0F2B42D8EC
:1037B000DFE803F0083B413B414141414141414188
:1037C0004141410801680B6823F480630B60036882
:1037D0001969436A1970416A4B1C4362438D9BB25D
:1037E000013B9BB2438503681B694B70436A0133FD
:1037F0004362438D9BB2013B9BB2438501684B689A
:1038000023F440734B60202380F83D3090F83E3025
:10381000DBB2402B15D0002380F83E30082A17D0A9
:10382000202A15D01223036314E001680B6843F4C7
:1038300080630B60CBE701680B6843F400730B6097
:10384000C5E7002380F83E300363FFF765FF90E78C
:1038500000230363FFF775FD8BE7704738B590F8D9
:103860003D30DBB2222B00D038BD0446C56A438D03
:103870009BB2032B15D903681A69436A1A70436A0D
:1038800001334362438D9BB2013B9BB24385438D21
:103890009BB2032BE8D10268536823F48063536022
:1038A000E2E7C26A022A01D0012B05D922685368D7
:1038B00023F480635360D7E7FFF730FC002835D14D
:1038C0002268136823F4806313602268536823F42A
:1038D000E063536023681A69636A1A70636A01338C
:1038E0006362638D9BB2013B9BB26385202384F8A6
:1038F0003D3094F83E30DBB2402B09D0002384F8F1
:103900003E30082D0CD0202D0AD01223236309E06D
:10391000002384F83E3023632046FFF7FDFEA3E733
:10392000002323632046FFF70CFD9DE722685368C0
:1039300023F4E063536023681A69636A1A70636A48
:1039400001336362638D9BB2013B9BB2638520238D
:1039500084F83D30002384F83E302046FFF77DFF99
:1039600082E7704700B583B000230193806B90F825
:103970003D20D2B2324B1B68DB083249A1FB031356
:103980001B0A03EB8303C3EBC3030193019B43B106
:10399000019B013B019303681B6813F4007FF5D181
:1039A00003E0036C43F020030364436B0BB100217D
:1039B000D963836B0BB10021D96301680B6823F4D1
:1039C00080630B6000234385436B0BB100211965B5
:1039D000836B0BB10021196501680B6823F00103AB
:1039E0000B6090F83D30DBB2602B0ED002F0280265
:1039F000282A14D0202380F83D30002380F83E3060
:103A0000FFF72BFF03B05DF804FB202380F83D3067
:103A1000002380F83E300364FFF7A3FFF2E702685B
:103A2000136843F0010313600268136843F4806372
:103A3000136000230363282380F83D30E0E700BFD4
:103A40000800002089B5F81410B5044690F83D3000
:103A5000DBB290F83E20D2B2102A36D0402A34D0C1
:103A600003F02802282A38D02268526812F4006F26
:103A700007D1602B05D0202384F83D30002384F843
:103A80003E300023236323685A6812F4006F48D045
:103A90005A6822F400625A60626B92F83530DBB2E9
:103AA000012B20D0444B1365606BFEF789FF002883
:103AB00049D02268136823F001031360202384F89F
:103AC0003D30606B036D98473DE0222BC8D12168E3
:103AD0000A6822F400620A60C2E7002323632823F5
:103AE00084F83D30CFE7A36B334A1A65A06BFEF72D
:103AF00067FF40B323685A6912F0400F05D01A6976
:103B0000636A1A70636A013363622268136823F080
:103B100001031360202384F83D30A06B036D9847A8
:103B200011E094F83D20D2B2602A1FD05A6912F0F9
:103B3000400F05D01A69636A1A70636A01336362C1
:103B40002046FFF78AFE236C13F00F0F04D0226883
:103B5000536823F4E063536094F83D30DBB2226C89
:103B600012F0040F01D0282B18D010BD202284F8A9
:103B70003D20002222645A6912F0400F05D01A69D4
:103B8000636A1A70636A013363622268136823F000
:103B9000010313602046FFF7E4FED4E7074BE3621E
:103BA00000232363202284F83D2084F83E30204601
:103BB000FFF744FCD9E700BF653900080000FFFFAC
:103BC00030B583B0044690F83D50EDB202685368BA
:103BD00023F4E06353600023019303685A69019260
:103BE0001A6842F001021A60019B0268136823F40C
:103BF0008063136003685A6812F4006F38D0222D76
:103C000021D02A2D1FD0426B1268526892B2428591
:103C1000428D92B21AB1026C42F0040202645A68F8
:103C200022F400625A60606BFEF7CCFF01281FD0BF
:103C3000636B444A1A65606BFEF7C2FEC0B1606BED
:103C4000036D984714E0A26B1268526892B26285C5
:103C5000628D92B21AB1226C42F0040222645A6858
:103C600022F400625A60A06BFEF7ACFF012842D13B
:103C7000638D9BB233B323685A6912F0040F0AD0E4
:103C80001A69636A1A70636A01336362638D9BB257
:103C9000013B9BB2638523685A6912F0400F0AD03A
:103CA0001A69636A1A70636A01336362638D9BB237
:103CB000013B9BB26385638D9BB21BB1236C43F0C8
:103CC00004032364236C13BB2A2D25D094F83D30C4
:103CD000DBB2282B29D0236B222B01D0222D19D126
:103CE00000232363202284F83D2084F83E302046C0
:103CF000FFF74FFB0EE0A36B124A1A65A06BFEF7AD
:103D00005FFE0028B4D0A06B036D9847B0E7204653
:103D1000FFF79AFE03B030BD00232363282384F805
:103D20003D302046FFF735FBD0E7074BE362002329
:103D30002363202284F83D2084F83E302046FFF79C
:103D40007DFBE7E7653900080000FFFFF8B5044692
:103D500002685568C66A90F83E30DBB290F83D10B4
:103D6000C8B2102B13D0402B11D0236C002B7AD06B
:103D70005369002113F0020F78D015F4007F75D03D
:103D8000236C03B191692046FFF72BFBF8BDD2F8F5
:103D900018C0516911F0010705D1B6F52A0FF5D009
:103DA000B6F12A4FF2D017B115F4007F29D111F0E6
:103DB000080F02D015F4007F2AD111F0020F02D0B3
:103DC00015F4007F28D11CF0040F31D0526812F492
:103DD000006FDBD111F0800F05D015F4806F02D099
:103DE00011F0040F1CD011F0040FCFD015F4007F98
:103DF000CCD0212818D0402BC8D12046FFF7C0FBDB
:103E0000C4E72046FFF7AEF92046FEF7E3FFBDE723
:103E10002046FFF733F8B9E72046FFF745F8B5E746
:103E20002046FFF70FFCB1E72046FFF75AFBADE74E
:103E3000536813F4006FA9D111F0400F05D015F4A9
:103E4000806F02D011F0040F09D011F0040F9DD043
:103E500015F4007F9AD02046FFF75FFC96E72046D6
:103E6000FFF7FCFC92E79169536983E713F0100FA9
:103E700002D015F4007F18D121281AD0292818D093
:103E800013F0400F05D015F4806F02D013F0040F2B
:103E900028D013F0040F3FF479AF15F4007F3FF4FE
:103EA00075AF2046FFF72AF970E72046FFF788FE36
:103EB0006CE713F0800F05D015F4806F02D013F07B
:103EC000040F0BD013F0040F3FF460AF15F4007F24
:103ED0003FF45CAF2046FFF701F957E72046FFF7B4
:103EE00032FA53E72046FFF755FA4FE7F8B5044694
:103EF00003685D695F6890F83E20D2B215F4807661
:103F000006D017F4807603D06FF4807159610126D2
:103F100015F4007F08D017F4807F05D046F0020624
:103F200023686FF40071596115F4806F19D017F48C
:103F3000807F16D0638D99B294F83D30DBB2206B50
:103F4000202A1BD023686FF48061596146F0040673
:103F5000102A01D0402A04D12268136843F4007368
:103F6000136015F4006F17D017F4807F14D046F05B
:103F7000080623686FF400625A610EE00029E1D15F
:103F8000212B05D0292B03D0282BDBD12128D9D1F7
:103F90002046FFF755FAE4E72EB1236C3343236440
:103FA0002046FFF751FDF8BD002800F0E08170B514
:103FB00082B00446036813F0010F3BD09F4B9B680F
:103FC00003F00C03042B2CD09C4B9B6803F00C03D8
:103FD000082B21D06368B3F5803F4FD0B3F5A02FF5
:103FE00052D0964B1A6822F480321A601A6822F472
:103FF00080221A606368002B50D0FEF78FFB0546C5
:104000008E4B1B6813F4003F14D1FEF787FB401B57
:104010006428F5D90320B1E1884B5B6813F4800F65
:10402000D8D0864B1B6813F4003F03D06368002B85
:1040300000F09F81236813F0020F54D07F4B9B68E0
:1040400013F00C0F3ED07D4B9B6803F00C03082B44
:1040500033D0E368002B68D0794B01221A60FEF759
:104060005DFB0546754B1B6813F0020F54D1FEF73C
:1040700055FB401B0228F5D903207FE16F4A1368E6
:1040800043F480331360B5E76C4B1A6842F4802226
:104090001A601A6842F480321A60ABE7FEF73EFB02
:1040A0000546664B1B6813F4003FC3D0FEF736FB92
:1040B000401B6428F5D9032060E1604B5B6813F472
:1040C000800FC6D15D4B1B6813F0020F03D0E3686D
:1040D000012B40F05081594A136823F0F8032169FD
:1040E00043EAC1031360236813F0080F42D06369E9
:1040F0006BB3534B0122C3F8802EFEF70FFB05462E
:104100004E4B5B6F13F0020F34D1FEF707FB401BE1
:104110000228F5D9032031E1484A136823F0F80357
:10412000216943EAC1031360DDE7454B00221A60B1
:10413000FEF7F4FA0546414B1B6813F0020FD2D08C
:10414000FEF7ECFA401B0228F5D9032016E13C4BA0
:104150000022C3F8802EFEF7E1FA0546374B5B6F6D
:1041600013F0020F06D0FEF7D9FA401B0228F5D94A
:10417000032003E1236813F0040F77D02F4B1B6C4F
:1041800013F0805F33D1002301932C4B1A6C42F063
:1041900080521A641B6C03F080530193019B01252C
:1041A000284B1B6813F4807F23D0A368012B34D0E5
:1041B000052B38D0214B1A6F22F001021A671A6FB3
:1041C00022F004021A67A368002B3DD0FEF7A6FA7E
:1041D00006461A4B1B6F13F0020F46D1FEF79EFAEC
:1041E000801B41F288339842F3D90320C6E00025B2
:1041F000D6E7144A136843F480731360FEF78EFA0F
:104200000646104B1B6813F4807FCED1FEF786FA6A
:10421000801B0228F5D90320B0E0084A136F43F051
:1042200001031367CFE7054B1A6F42F004021A67C8
:104230001A6F42F001021A67C5E700BF003802405A
:104240000000474200700040FEF768FA0646524BF5
:104250001B6F13F0020F08D0FEF760FA801B41F2CB
:1042600088339842F3D9032088E0EDB9A369002B85
:1042700000F08380484A926802F00C02082A51D06C
:10428000022B17D0454B00221A66FEF747FA044668
:10429000414B1B6813F0007F42D0FEF73FFA001B32
:1042A0000228F5D9032069E03B4A136C23F08053C0
:1042B0001364DBE7394B00221A66FEF72FFA054636
:1042C000354B1B6813F0007F06D0FEF727FA401B22
:1042D0000228F5D9032051E0E369226A1343626A98
:1042E00043EA8213A26A5208013A43EA0243E26AAD
:1042F00043EA0263284A5360284B01221A66FEF7FC
:104300000DFA0446244B1B6813F0007F06D1FEF71C
:1043100005FA001B0228F5D903202FE000202DE02C
:1043200000202BE0012B2BD01B4B5B6803F480019A
:10433000E269914226D103F03F02216A8A4223D1E9
:10434000616A47F6C0721A40B2EB811F1ED103F4B6
:104350004031A26A5208013AB1EB024F18D103F082
:104360007063E26AB3EB026F14D1002006E0012013
:104370007047012002E0012000E0002002B070BD83
:104380000120FBE70120F9E70120F7E70120F5E72D
:104390000120F3E70120F1E7003802400000474226
:1043A00008B5334B9B6803F00C03042B5BD0082B40
:1043B0005BD12F4B5A6802F03F025B6813F4800F09
:1043C0002CD02B4B5868C0F388104FEA401CBCEB34
:1043D000000C6EEB0E0E4FEA8E1343EA9C634FEA1D
:1043E0008C11B1EB0C0163EB0E03DB0043EA51735C
:1043F000C90011EB000C43F10003590200234FEAFE
:104400004C2041EADC51FCF701FB194B5B68C3F31C
:10441000014301335B00B0FBF3F027E0144B586815
:10442000C0F388104FEA401CBCEB000C6EEB0E0E84
:104430004FEA8E1343EA9C634FEA8C11B1EB0C01F7
:1044400063EB0E03DB0043EA5173C90011EB000C70
:1044500043F10003990200234FEA8C2041EA9C516A
:10446000FCF7D4FAD1E7034800E0034808BD00BFD9
:104470000038024000127A000024F400002800F006
:104480009B8070B50D4604464F4B1B6803F0070335
:104490008B4208D2CBB24C4A1370136803F0070367
:1044A0008B4240F08B80236813F0020F17D013F07B
:1044B000040F04D0454A936843F4E05393602368A3
:1044C00013F0080F04D0414A936843F460439360AB
:1044D0003E4A936823F0F003A1680B43936023687E
:1044E00013F0010F32D06368012B21D09A1E012AEC
:1044F00025D9364A126812F0020F61D033498A6812
:1045000022F0030213438B60FEF708F906462F4B97
:104510009B6803F00C036268B3EB820F16D0FEF7C2
:10452000FDF8801B41F288339842F0D9032042E025
:10453000264A126812F4003FE0D101203BE0234AF2
:10454000126812F0007FD9D1012034E01E4B1B68A5
:1045500003F00703AB4207D9EAB21B4B1A701B6882
:1045600003F00703AB422DD1236813F0040F06D0EC
:10457000164A936823F4E053E1680B439360236881
:1045800013F0080F07D0114A936823F460432169A0
:1045900043EAC1039360FFF703FF0C4B9B68C3F32F
:1045A00003130B4AD35CD8400A4B18600A4B1868B7
:1045B000FDF7C6FE002070BD012070470120FAE71C
:1045C0000120F8E70120F6E7003C024000380240F5
:1045D000A8BF00080800002010000020014B186848
:1045E000704700BF0800002008B5FFF7F7FF044B35
:1045F0009B68C3F38223034AD35CD84008BD00BF45
:1046000000380240A0BF000808B5FFF7E7FF044BE1
:104610009B68C3F34233034AD35CD84008BD00BF54
:1046200000380240A0BF00080F2303600B4B9A68BC
:1046300002F0030242609A6802F0F00282609A6817
:1046400002F4E052C2609B68DB0803F4E0530361AC
:10465000034B1B6803F007030B60704700380240F0
:10466000003C02402DE9F04782B0054688461746D7
:104670001E46FEF753F80A9B1B1A03EB0609FEF7CA
:104680004DF88246284B1B68C3F3CB3309FB03F379
:1046900001932B689C6838EA04040CBF01230023B3
:1046A000BB423DD0B6F1FF3FF3D0FEF737F8A0EBA9
:1046B0000A00484507D2019A02B14A46019B013BD4
:1046C00001939146E5E72A68536823F0E0035360BD
:1046D0006B68B3F5827F0BD0AB6AB3F5005F14D083
:1046E000012385F85130002385F85030032018E06D
:1046F000AB68B3F5004F02D0B3F5806FECD12A68F8
:10470000136823F040031360E6E72A68136823F474
:10471000005313602A68136843F400531360DFE703
:10472000002002B0BDE8F0870800002070B584B01A
:1047300004460D46164600920B4601220221FFF761
:1047400091FFD0B9174B1B68174AA2FB03235B0DDF
:104750004FF47A7202FB03F303936368B3F5827F2D
:1047600011D0039B3BB1039B013B039323689B68E0
:1047700013F0800FF5D104B070BD636D43F02003DA
:1047800063650320F7E700962B4600228021204630
:10479000FFF768FF0028EED0636D43F020036365E8
:1047A0000320E8E708000020819F5E1610B582B064
:1047B00004460B464168B1F5827F14D06168B1F5BB
:1047C000827F2AD1A168B1F5806F19D000920022B2
:1047D00080212046FFF746FF30B3636D43F020038E
:1047E0006365032020E08168B1F5004F02D0B1F588
:1047F000806FE3D12068016821F040010160DDE7AE
:104800000092002201212046FFF72CFF60B1636D6A
:1048100043F020036365032006E00092002201219B
:104820002046FFF71FFF08B902B010BD636D43F0CB
:10483000200363650320F7E700285AD010B504462B
:10484000436A33B94368B3F5827F05D00023C3615F
:1048500002E00023036143610023A36294F8513016
:10486000002B40D0022384F851302268136823F0D3
:1048700040031360636803F48273A26802F4044285
:104880001343E26802F400621343226902F0020259
:104890001343626902F001021343A26902F4007239
:1048A0001343E26902F038021343226A02F08002E5
:1048B0001343A26A02F40052216813430B60638B16
:1048C00003F00403626A02F01002216813434B6094
:1048D0002268D36923F40063D3610020606501235B
:1048E00084F8513010BD84F850302046FDF750FC5C
:1048F000B8E7012070472DE9F04383B004468946AC
:1049000090461D46FDF70AFF94F85160F6B2012E5D
:1049100040F0CC800746B9F1000F00F0C880B8F134
:10492000000F00F0C48094F85030012B00F0C380D9
:10493000012384F85030032384F851300023636549
:10494000C4F83090A4F83480A4F83680A363A38719
:10495000E38763642364A368B3F5004F1ED0236824
:104960001A6812F0400F03D11A6842F040021A6030
:10497000E368B3F5006F1CD0636813B1B8F1010FA1
:104980005FD1226B236812781A73236B0133236380
:10499000E38E9BB2013B9BB2E38652E02268136830
:1049A00023F0400313602268136843F480431360CC
:1049B000D5E7636813B1B8F1010F15D1226B2368F5
:1049C0001288DA60236B02332363E38E9BB2013BD0
:1049D0009BB2E38608E0FDF7A1FEC01BA84202D30C
:1049E000B5F1FF3F15D1A5B1E38E9BB2002B42D0AC
:1049F00023689A6812F0020FEDD0226B1288DA60F9
:104A0000236B02332363E38E9BB2013B9BB2E386AD
:104A1000EAE7012384F85130002384F8503003265C
:104A200045E0226B12781A73236B01332363B4F8C9
:104A300036C01FFA8CFC0CF1FF3C1FFA8CFCA4F86A
:104A400036C0E38E9BB2B3B123689A6812F0020FAE
:104A5000E7D1FDF763FEC01BA84202D3B5F1FF3FCB
:104A600001D1002DEDD1012384F85130002384F8C9
:104A7000503003261BE03A4629462046FFF756FEF3
:104A800008B120236365A36833B901932368DA680A
:104A900001929B680193019B012384F8513000230C
:104AA00084F85030636D13B9002600E002263046CA
:104AB00003B0BDE8F0830226F9E72DE9F04383B0A7
:104AC0000446884691461F460A9DFDF727FE064686
:104AD00094F85130DBB26268012B0AD0B2F5827FC4
:104AE00040F00581A268002A40F00581042B40F0C7
:104AF0000481B8F1000F00F00281B9F1000F00F05D
:104B00000081002F00F0FF8094F85030012B00F05E
:104B1000FC80012384F8503094F85130DBB2042B30
:104B200002D0052384F8513000236365C4F838901F
:104B3000E787A787C4F83080E786A7862364636485
:104B400023681A6812F0400F03D11A6842F040023D
:104B50001A60E368B3F5006F11D063680BB1012FE1
:104B60000BD1226B236812781A73236B01332363F2
:104B7000E38E9BB2013B9BB2E386012771E0636841
:104B80000BB1012F0BD1226B23681288DA60236BE3
:104B900002332363E38E9BB2013B9BB2E386012782
:104BA0001BE023689A6812F0010F0ED0E28F92B2D8
:104BB0005AB1DA68A36B1A80A36B0233A363E38F45
:104BC0009BB2013B9BB2E3870127FDF7A7FD801B4A
:104BD000A84202D3B5F1FF3F1ED1E38E9BB21BB9B1
:104BE000E38F9BB2002B62D023689A6812F0020F09
:104BF000D7D0E28E92B2002AD3D0002FD1D0226B30
:104C00001288DA60236B02332363E38E9BB2013B8D
:104C10009BB2E3860027C4E7012384F851300023C8
:104C200084F85030032063E023689A6812F0010F83
:104C30000ED0E28F92B25AB1DA68A36B1A70A36BEE
:104C40000133A363E38F9BB2013B9BB2E387012750
:104C5000FDF764FD831BAB4202D3B5F1FF3F1ED1CC
:104C6000EDB1E38E9BB213B9E38F9BB2FBB1236826
:104C70009A6812F0020FD7D0E28E92B2002AD3D0F7
:104C8000002FD1D0226B12781A73236B0133236368
:104C9000E38E9BB2013B9BB2E3860027C4E701236E
:104CA00084F85130002384F85030032020E032464D
:104CB00029462046FFF73AFD90B9A36833B901931E
:104CC0002368DA6801929B680193019B012384F8B1
:104CD0005130002384F85030636D4BB1012007E060
:104CE00020236365002384F85030012000E0022077
:104CF00003B0BDE8F0830220FAE70220F8E70120C4
:104D0000F6E70120F4E70120F2E70220F0E72DE9C1
:104D1000F04383B090F85160F6B2012E40F0B480B9
:104D20000446894690461D464368B3F5827F01D10B
:104D3000836893B3FDF7F2FC0746B9F1000F00F06A
:104D4000A480B8F1000F00F0A08094F85030012B3F
:104D500000F09F80012384F85030042384F8513000
:104D600000236365C4F83890A4F83C80A4F83E8022
:104D70002363A386E38623646364A368B3F5004FCB
:104D800015D023681A6812F0400F03D11A6842F058
:104D900040021A60E368F3B143E0042380F8513025
:104DA000009513460A46FFF788FE06466DE0226826
:104DB000136823F0400313602268136823F48043D0
:104DC0001360DEE7FDF7AAFCC01BA84202D3B5F1D1
:104DD000FF3F15D1A5B1E38F9BB2002B42D02368D2
:104DE0009A6812F0010FEDD0A26B1B7B1370A36BBE
:104DF0000133A363E38F9BB2013B9BB2E387EAE7F6
:104E0000012384F85130002384F8503003263CE01D
:104E1000FDF784FCC01BA84202D3B5F1FF3F19D1B6
:104E2000C5B1E38F9BB2EBB123689A6812F0010F12
:104E3000EED0DA68A36B1A80A36B0233A363B4F8D5
:104E40003EC01FFA8CFC0CF1FF3C1FFA8CFCA4F84E
:104E50003EC0E6E7012384F85130002384F8503047
:104E6000032612E03A4629462046FFF79FFC08B188
:104E700020236365012384F85130002384F85030E7
:104E8000636D13B9002600E00226304603B0BDE88A
:104E9000F0830226F9E790F85100704710B4036AD6
:104EA000046A24F001040462846924F0F00C4CEAE2
:104EB000021223F00A030B43826103625DF8044B84
:104EC000704710B4036A046A24F010040462846911
:104ED00024F4704C4CEA023223F0A00343EA01139D
:104EE000826103625DF8044B7047836823F07003AE
:104EF0000B4343F0070383607047000090F83D3098
:104F0000DBB2012B37D1022380F83D300268D36831
:104F100043F00103D3600368194A934220D0B3F1F0
:104F2000804F1DD0A2F57C42934219D002F58062D9
:104F3000934215D002F58062934211D002F5784277
:104F400093420DD002F57052934209D0A2F59432EB
:104F5000934205D01A6842F001021A60002070479F
:104F60009A6802F00702062A07D01A6842F0010286
:104F70001A6000207047012070470020704700BF72
:104F800000000140704770477047704770B5044695
:104F90000368DE681D6915F0020F10D016F0020FCD
:104FA0000DD06FF002021A610123037703689B6939
:104FB00013F0030F5ED0FFF7E6FF0023237715F011
:104FC000040F12D016F0040F0FD023686FF0040204
:104FD0001A610223237723689B6913F4407F4FD023
:104FE0002046FFF7D0FF0023237715F0080F12D0DB
:104FF00016F0080F0FD023686FF008021A6104231F
:1050000023772368DB6913F0030F40D02046FFF7B6
:10501000BAFF0023237715F0100F12D016F0100FEF
:105020000FD023686FF010021A61082323772368DA
:10503000DB6913F4407F31D02046FFF7A4FF002343
:10504000237715F0010F02D016F0010F2DD115F0C6
:10505000800F02D016F0800F2FD115F0400F02D034
:1050600016F0400F31D115F0200F02D016F0200FAE
:1050700033D170BDFFF786FF2046FFF785FF9CE721
:105080002046FFF77FFF2046FFF77EFFABE7204675
:10509000FFF778FF2046FFF777FFBAE72046FFF7D4
:1050A00071FF2046FFF770FFC9E723686FF0010228
:1050B0001A612046FCF700FEC9E723686FF0800202
:1050C0001A61204600F07DF9C7E723686FF04002BF
:1050D0001A612046FFF759FFC5E723686FF02002E9
:1050E0001A61204600F06CF9C3E700000368344AF7
:1050F000904212D0B0F1804F0FD0A2F57C42904286
:105100000BD002F58062904207D002F58062904297
:1051100003D002F57842904203D123F070034A682D
:105120001343274A90422AD0B0F1804F27D0A2F5EE
:105130007C42904223D002F5806290421FD002F55B
:10514000806290421BD002F57842904217D002F55F
:105150007052904213D002F5806290420FD002F557
:10516000806290420BD0A2F59832904207D002F5AF
:105170008062904203D002F58062904203D123F412
:105180004073CA68134323F080034A6913430360E2
:105190008B68C3620B688362094B984203D003F5A6
:1051A0008063984201D10B69036301234361036962
:1051B00013F0010F03D0036923F00103036170476B
:1051C0000000014040B310B5044690F83D30F3B103
:1051D000022384F83D30214651F8040BFFF786FF87
:1051E000012384F8463084F83E3084F83F3084F858
:1051F000403084F8413084F8423084F8433084F8F9
:10520000443084F8453084F83D30002010BD80F8EB
:105210003C30FDF7BFF9DBE70120704710B484682C
:1052200024F47F4C42EA03220A4342EA0C028260E1
:105230005DF8044B704790F83C30012B78D010B5E6
:105240000446012380F83C30022380F83D30026898
:10525000936823F47F4323F0770393600B68602BFC
:105260004CD029D8402B54D00CD9502B22D1CA680D
:1052700049680068FFF712FE50212068FFF735FEED
:10528000002005E0202B0DD009D9302B0AD00120B9
:10529000012384F83D30002384F83C3010BD0BB16D
:1052A000102B05D119462068FFF71FFE0020EFE7FD
:1052B0000120EDE70120EBE7B3F5805F34D0B3F5D3
:1052C000005F0CD1CB684A6889680068FFF7A6FFC9
:1052D0002268936843F4804393600020D8E7702BE2
:1052E00024D1CB684A6889680068FFF797FF226875
:1052F000936843F0770393600020C9E7CA68496860
:105300000068FFF7DEFD60212068FFF7EEFD00205A
:10531000BEE7CA6849680068FFF7C0FD4021206801
:10532000FFF7E3FD0020B3E70020B1E70120AFE77E
:105330000220704790F83C20012A3DD010B403466B
:10534000012280F83C20022280F83D20026850684B
:10535000946820F0700C086840EA0C0050601A68ED
:10536000164882421AD0B2F1804F17D0A0F57C4087
:10537000824213D000F5806082420FD000F5806039
:1053800082420BD000F57840824207D000F5705081
:10539000824203D0A0F59430824204D124F08004EC
:1053A000496821439160012283F83D20002083F861
:1053B0003C005DF8044B704702207047000001403C
:1053C00070477047026802F10C0353E8003F23F472
:1053D00090730C3242E800310029F3D1026802F1E7
:1053E000140353E8003F23F00103143242E8003174
:1053F0000029F3D1036B012B05D0202380F8423024
:10540000002303637047026802F10C0353E8003F76
:1054100023F010030C3242E800310029F3D1ECE70D
:1054200010B504460268136923F44053C1680B4366
:105430001361836802691A4343691A43C3691A43B3
:105440000168CB6823F4164323F00C031343CB60AD
:105450000268536923F4407381690B435361036805
:10546000314A934206D002F58062934202D0FFF7A0
:10547000BBF801E0FFF7C8F8E369B3F5004F29D0A6
:105480000021031849411B1841F10001C90041EAFC
:105490005371DB00181863684FEA83024FEA937375
:1054A00041F10001FBF7B2FA204AA2FB00314909A1
:1054B000642303FB11031B013233A2FB03235B09AB
:1054C00003F0F00202EB011203F00F032168134412
:1054D0008B6010BD0023021843EB0301121841F149
:1054E0000001C90041EA5271D200101841F10001D7
:1054F000626892185B41FBF789FA0C4AA2FB003103
:105500004909642303FB1103DB003233A2FB0323AD
:105510005B095A0002F4F87202EB011203F0070370
:10552000216813448B60D4E7001001401F85EB51C4
:105530002DE9F04383B005460E4617469946DDF83F
:1055400028802B681C6836EA04040CBF0124002460
:10555000BC4228D1B8F1FF3FF3D0FDF7DFF8A0EB54
:105560000900404523D8B8F1000F22D02B68DA6833
:1055700012F0040FE5D0802EE3D0402EE1D01A685F
:1055800012F0080FDDD0002401941A6801925B68C4
:105590000193019B2846FFF715FF08236B6485F8EC
:1055A0004040012000E0002003B0BDE8F08303206C
:1055B000FAE70320F8E760B310B5044690F84130ED
:1055C00013B3242384F841302268D36823F40053B2
:1055D000D3602046FFF724FF2268136923F4904329
:1055E00013612268536923F02A0353612268D36848
:1055F00043F40053D36000206064202384F84130DA
:1056000084F84230606310BD80F84030FCF7FCFF46
:10561000D7E7012070472DE9F04182B01E4690F88F
:105620004130DBB2202B56D104460D46904600296E
:1056300055D00AB901204FE000234364212380F8AC
:105640004130FDF76BF80746A4F82480A4F82680C3
:10565000A368B3F5805F02D04FF0000814E023691F
:105660002BB34FF000080FE0202384F841300320D3
:1056700032E038F8023B2268C3F308035360E28C3F
:1056800092B2013A92B2E284E38C9BB293B100965B
:105690003B46002280212046FFF74AFF0028E3D145
:1056A000002DE6D015F8012B23685A60E7E7A846DD
:1056B0000025E9E700963B46002240212046FFF7FF
:1056C00037FF18B9202384F8413005E0202384F8FF
:1056D0004130032000E0022002B0BDE8F08101204B
:1056E000FAE708B54FF0E0231B6901F0CFFB012872
:1056F00000D108BD00F0D6F9FBE70000EFF3058309
:105700002BB9064B186828B901221A6070476FF050
:10571000050070474FF0FF30704700BF601B00204E
:10572000EFF3058373B90A4B1B68012B0DD110B53C
:105730000024084BDC77064B02221A6001F004F9C2
:10574000204610BD6FF0050070474FF0FF307047E6
:10575000601B002000ED00E0F0B587B00024059448
:10576000EFF3058474BB68B322B31568936903B97A
:1057700018235C1E372C49D8546814F0010F47D108
:1057800056696EB14FEA960C94682CB1D7685B2FBE
:1057900002D9176907B1C6B92CB14FF0FF340EE03A
:1057A0004FF0800CF0E7D4688CB9146994B14FF0D5
:1057B000FF3404E01546002418234FF0800C012C20
:1057C0000AD0ACB1059807B0F0BD0124F7E74FF05F
:1057D000FF34F4E70024F2E714699268029201941E
:1057E00000930B466246294601F040F80590E9E730
:1057F00005AA019200930B461FFA8CF2294601F08C
:1058000070F80128DED000230593DBE70020DAE7FB
:105810000020D8E708B5EFF3058333B908B90020B5
:1058200008BD01F0F3F90020FAE76FF00500F7E793
:10583000034B0360034B0B6080231360704700BF72
:10584000041B002004190020034B0360034B0B6072
:105850004FF4807313607047A8180020A81400202C
:1058600000F1080343604FF0FF328260C3600361C0
:1058700000230360704700230361704743684B6057
:105880009A688A6051609960086103680133036017
:10589000704730B40D68B5F1FF3F11D000F1080337
:1058A0001C465B681A68AA42FAD963684B60996023
:1058B0008C606160086103680133036030BC70472D
:1058C0000469F2E70369416882688A60416851604F
:1058D0005A68824206D0002202611A68013A1A60B0
:1058E0001868704782685A60F5E7000082B00023AC
:1058F00001930D4B1B68B3F1FF3F08D04FF05003ED
:1059000083F31188BFF36F8FBFF34F8FFEE74FF024
:10591000500383F31188BFF36F8FBFF34F8F019B49
:10592000002BFCD002B0704714000020084800682B
:10593000006880F308884FF0000080F3148862B696
:1059400061B6BFF34F8FBFF36F8F00DF00BF000062
:1059500008ED00E0DFF80C00016841F4700101601F
:105960007047000088ED00E04FF0807340F8043C81
:1059700021F0010140F8081C054B40F80C3C40F8B0
:10598000202C6FF0020340F8243C4438704700BFDD
:10599000ED580008000000000000000000000000BA
:1059A000074B19680868B0E8F04F80F30988BFF327
:1059B0006F8F4FF0000080F311887047AFF30080C5
:1059C000C85C00204FF0500383F31188BFF36F8F42
:1059D000BFF34F8F0B4A136801331360012B00D0C4
:1059E00070474FF0E023D3F8043D13F0FF0FF7D0DA
:1059F0004FF0500383F31188BFF36F8FBFF34F8FC6
:105A0000FEE700BF14000020094B1B6843B94FF0AC
:105A1000500383F31188BFF36F8FBFF34F8FFEE7FF
:105A2000013B034A13600BB983F31188704700BF31
:105A30001400002000000000000000000000000032
:105A4000EFF30980BFF36F8F154B1A681EF0100F2C
:105A500008BF20ED108A20E9F04F10602DE9090001
:105A60004FF0500080F31188BFF34F8FBFF36F8F5B
:105A700001F0F2F84FF0000080F3118809BC1968BA
:105A80000868B0E8F04F1EF0100F08BFB0EC108AA5
:105A900080F30988BFF36F8F704700BFAFF30080BA
:105AA000C85C002008B54FF0500383F31188BFF3A2
:105AB0006F8FBFF34F8F00F0A1FF28B14FF0E023AD
:105AC0004FF08052C3F8042D002383F3118808BDE2
:105AD0004FF0E022002313619361054B1B680549D9
