:020000040800F2
:100000000000022069270008592200085B2200082E
:100010005D2200085F220008612200080000000045
:100020000000000000000000000000001165000852
:100030006322000800000000B1650008D35E0008DC
:10004000B9270008B9270008B9270008B927000810
:10005000B9270008B9270008B9270008B927000800
:10006000B9270008B9270008B9270008B9270008F0
:10007000B9270008B9270008652200087522000882
:100080008522000895220008B9270008B927000832
:10009000B9270008B9270008B9270008B9270008C0
:1000A000B9270008A5220008B9270008B9270008C9
:1000B000B9270008B9270008B9270008B5220008A9
:1000C000C5220008B9270008B9270008B927000889
:1000D000B9270008D5220008E5220008B927000842
:1000E000B9270008B9270008B9270008B927000870
:1000F000B9270008B9270008B9270008B927000860
:10010000B9270008B9270008B9270008B92700084F
:10011000B9270008B9270008F5220008B927000808
:1001200005230008B9270008152300082523000827
:10013000B9270008B9270008B9270008B92700081F
:10014000B9270008B9270008B9270008B92700080F
:10015000B9270008B927000835230008B927000887
:10016000B9270008B9270008B9270008B9270008EF
:10017000B9270008B9270008B927000800000000C7
:08018000B9270008452300081F
:1001900010B5054C237833B9044B13B10448AFF3C1
:1001A00000800123237010BD4800002000000000E3
:1001B000F485000808B5034B1BB103490348AFF3AE
:1001C000008008BD000000004C000020F4850008FD
:1001D00081F0004102E000BF83F0004330B54FEAF8
:1001E00041044FEA430594EA050F08BF90EA020F65
:1001F0001FBF54EA000C55EA020C7FEA645C7FEAF8
:10020000655C00F0E2804FEA5454D4EB5555B8BF1A
:100210006D420CDD2C4480EA020281EA030382EA8B
:10022000000083EA010180EA020281EA0303362D1D
:1002300088BF30BD11F0004F4FEA01314FF4801CF0
:100240004CEA113102D0404261EB410113F0004F02
:100250004FEA03334CEA133302D0524263EB4303B9
:1002600094EA050F00F0A780A4F10104D5F1200E57
:100270000DDB02FA0EFC22FA05F2801841F10001B2
:1002800003FA0EF2801843FA05F359410EE0A5F186
:1002900020050EF1200E012A03FA0EFC28BF4CF0B7
:1002A000020C43FA05F3C01851EBE37101F000456D
:1002B00007D54FF0000EDCF1000C7EEB00006EEB7A
:1002C0000101B1F5801F1BD3B1F5001F0CD3490804
:1002D0005FEA30004FEA3C0C04F101044FEA44525B
:1002E00012F5800F80F09A80BCF1004F08BF5FEAE2
:1002F000500C50F1000041EB045141EA050130BDC2
:100300005FEA4C0C404141EB0101013C28BFB1F5D3
:10031000801FE9D291F0000F04BF01460020B1FA1E
:1003200081F308BF2033A3F10B03B3F120020CDAF1
:100330000C3208DD02F1140CC2F10C0201FA0CF0CF
:1003400021FA02F10CE002F11402D8BFC2F1200C34
:1003500001FA02F120FA0CFCDCBF41EA0C019040EA
:10036000E41AA2BF01EB0451294330BD6FEA040433
:100370001F3C1CDA0C340EDC04F11404C4F120021E
:1003800020FA04F001FA02F340EA030021FA04F330
:1003900045EA030130BDC4F10C04C4F1200220FA87
:1003A00002F001FA04F340EA0300294630BD21FAC5
:1003B00004F0294630BD94F0000F83F4801306BF8B
:1003C00081F480110134013D4EE77FEA645C18BF7F
:1003D0007FEA655C29D094EA050F08BF90EA020F16
:1003E00005D054EA000C04BF1946104630BD91EA0E
:1003F000030F1EBF0021002030BD5FEA545C05D111
:100400004000494128BF41F0004130BD14F580044F
:100410003CBF01F5801130BD01F0004545F0FE41C3
:1004200041F470014FF0000030BD7FEA645C1ABFF8
:10043000194610467FEA655C1CBF0B46024650EA2F
:10044000013406BF52EA033591EA030F41F400215B
:1004500030BD00BF90F0000F04BF0021704730B5E1
:100460004FF4806404F132044FF000054FF00001B6
:1004700050E700BF90F0000F04BF0021704730B577
:100480004FF4806404F1320410F0004548BF40424C
:100490004FF000013EE700BF42004FEAE2014FEAA1
:1004A00031014FEA02701FBF12F07F4393F07F4F7C
:1004B00081F06051704732F07F4208BF704793F07F
:1004C0007F4F04BF41F40021704730B54FF4607492
:1004D00001F0004521F000411CE700BF50EA010295
:1004E00008BF704730B54FF000050AE050EA01023E
:1004F00008BF704730B511F0004502D5404261EBAE
:1005000041014FF4806404F132045FEA915C3FF4EE
:10051000D8AE4FF003025FEADC0C18BF03325FEA8B
:10052000DC0C18BF033202EBDC02C2F1200300FA3C
:1005300003FC20FA02F001FA03FE40EA0E0021FA61
:1005400002F11444BDE600BF70B54FF0FF0C4CF44F
:10055000E06C1CEA11541DBF1CEA135594EA0C0F01
:1005600095EA0C0F00F0DEF82C4481EA030621EA3C
:100570004C5123EA4C5350EA013518BF52EA033577
:1005800041F4801143F4801338D0A0FB02CE4FF029
:100590000005E1FB02E506F00042E0FB03E54FF059
:1005A0000006E1FB03569CF0000F18BF4EF0010E51
:1005B000A4F1FF04B6F5007F64F5407404D25FEA4D
:1005C0004E0E6D4146EB060642EAC62141EA555100
:1005D0004FEAC52040EA5E504FEACE2EB4F1FD0C42
:1005E00088BFBCF5E06F1ED8BEF1004F08BF5FEAC0
:1005F000500E50F1000041EB045170BD06F0004672
:1006000046EA010140EA020081EA0301B4EB5C041E
:10061000C2BFD4EB0C0541EA045170BD41F4801116
:100620004FF0000E013C00F3AB8014F1360FDEBF3B
:10063000002001F0004170BDC4F10004203C35DA17
:100640000C341BDC04F11404C4F1200500FA05F39A
:1006500020FA04F001FA05F240EA020001F000423B
:1006600021F0004110EBD37021FA04F642EB0601B1
:100670005EEA430E08BF20EAD37070BDC4F10C04DB
:10068000C4F1200500FA04F320FA05F001FA04F29F
:1006900040EA020001F0004110EBD37041F100018B
:1006A0005EEA430E08BF20EAD37070BDC4F1200596
:1006B00000FA05F24EEA020E20FA04F301FA05F2FE
:1006C00043EA020321FA04F001F0004121FA04F2A6
:1006D00020EA020000EBD3705EEA430E08BF20EA76
:1006E000D37070BD94F0000F0FD101F000464000B0
:1006F00041EB010111F4801F08BF013CF7D041EA32
:10070000060195F0000F18BF704703F00046520035
:1007100043EB030313F4801F08BF013DF7D043EA06
:100720000603704794EA0C0F0CEA135518BF95EABC
:100730000C0F0CD050EA410618BF52EA4306D1D143
:1007400081EA030101F000414FF0000070BD50EA62
:10075000410606BF1046194652EA430619D094EAEC
:100760000C0F02D150EA013613D195EA0C0F05D1D6
:1007700052EA03361CBF104619460AD181EA03012A
:1007800001F0004141F0FE4141F470014FF00000E2
:1007900070BD41F0FE4141F4780170BD70B54FF07D
:1007A000FF0C4CF4E06C1CEA11541DBF1CEA1355FD
:1007B00094EA0C0F95EA0C0F00F0A7F8A4EB0504DF
:1007C00081EA030E52EA03354FEA013100F08880D6
:1007D0004FEA03334FF0805545EA131343EA12639F
:1007E0004FEA022245EA111545EA10654FEA002654
:1007F0000EF000419D4208BF964244F1FD0404F50D
:10080000407402D25B084FEA3202B61A65EB030568
:100810005B084FEA32024FF480104FF4002CB6EB25
:10082000020E75EB030E22BFB61A754640EA0C00A5
:100830005B084FEA3202B6EB020E75EB030E22BFE5
:10084000B61A754640EA5C005B084FEA3202B6EB26
:10085000020E75EB030E22BFB61A754640EA9C00E5
:100860005B084FEA3202B6EB020E75EB030E22BFB5
:10087000B61A754640EADC0055EA060E18D04FEA73
:10088000051545EA16754FEA06164FEAC30343EA13
:1008900052734FEAC2025FEA1C1CC0D111F4801FE0
:1008A0000BD141EA00014FF000004FF0004CB6E7D9
:1008B00011F4801F04BF01430020B4F1FD0C88BF78
:1008C000BCF5E06F3FF6AFAEB5EB030C04BFB6EB83
:1008D000020C5FEA500C50F1000041EB045170BD76
:1008E0000EF0004E4EEA113114EB5C04C2BFD4EBA3
:1008F0000C0541EA045170BD41F480114FF0000E27
:10090000013C90E645EA060E8DE60CEA135594EAA2
:100910000C0F08BF95EA0C0F3FF43BAF94EA0C0FA5
:100920000AD150EA01347FF434AF95EA0C0F7FF41A
:1009300025AF104619462CE795EA0C0F06D152EA6E
:1009400003353FF4FDAE1046194622E750EA410652
:1009500018BF52EA43067FF4C5AE50EA41047FF463
:100960000DAF52EA43057FF4EBAE12E74FEA4102C6
:10097000B2F1E04324BFB3F5001CDCF1FE5C0DD9FD
:1009800001F0004C4FEAC0024CEA5070B2F1004F47
:1009900040EB830008BF20F00100704711F0804F4A
:1009A00021D113F13872BCBF01F00040704741F40F
:1009B00080114FEA5252C2F11802C2F1200C10FA13
:1009C0000CF320FA02F018BF40F001004FEAC123F7
:1009D0004FEAD32303FA0CFC40EA0C0023FA02F39B
:1009E0004FEA4303CCE77FEA625307D150EA013371
:1009F0001EBF4FF0FE4040F44000704701F0004041
:100A000040F0FE4040F40000704700BF53B94AB9BF
:100A1000002908BF00281CBF4FF0FF314FF0FF3006
:100A200000F06AB9ADF1080C6DE904CE00F006F8EB
:100A3000DDF804E0DDE9022304B070472DE9F0475A
:100A4000089D0C46002B4ED194468C458646B2FA42
:100A500082F262D94AB1C2F12003914020FA03F335
:100A60000CFA02FC194300FA02FE4FEA1C471FFA77
:100A70008CF6B1FBF7F44FEA1E4307FB141143EA6F
:100A8000014304FB06F199420AD91CEB030304F16C
:100A9000FF3080F01281994240F20F81023C6344A2
:100AA000591A1FFA8EF3B1FBF7F007FB101143EA56
:100AB000014300FB06F69E420AD91CEB030300F13A
:100AC000FF3180F0FC809E4240F2F980634402389E
:100AD0009B1B40EA044000211DB1D3400022C5E920
:100AE0000032BDE8F0878B4205D90DB1C5E90001A0
:100AF00000210846F5E7B3FA83F1002946D1A34265
:100B000002D39042C0F0F080861A64EB0303012008
:100B1000002DE6D0C5E90063E3E7002A40F09080AD
:100B2000A1EB0C044FEA1C481FFA8CF70121B4FB1F
:100B3000F8F64FEA1E4308FB164443EA044307FB5A
:100B400006F0984208D91CEB030306F1FF3402D2E9
:100B5000984200F2CD8026461C1A1FFA8EF3B4FB91
:100B6000F8F008FB104443EA044300FB07F79F42F8
:100B700008D91CEB030300F1FF3402D29F4200F2BC
:100B8000B0802046DB1B40EA0640A5E7C1F1200605
:100B90008B4022FA06F71F4320FA06FC04FA01F301
:100BA00043EA0C03F44000FA01F8380C4FEA134909
:100BB000B4FBF0FE1FFA87FC00FB1E4449EA044424
:100BC0000EFB0CF9A14502FA01F20AD93C190EF10B
:100BD000FF3A80F08480A14540F28180AEF1020EA0
:100BE0003C44A4EB09041FFA83F9B4FBF0F300FBC7
:100BF000134449EA044403FB0CFCA44507D93C19FF
:100C000003F1FF3067D2A44565D9023B3C4443EA77
:100C10000E40A0FB0293A4EB0C049C42CE469C46E3
:100C200051D34ED055B1B8EB0E0364EB0C0404FA6B
:100C300006F6CB401E43CC40C5E90064002150E7D6
:100C4000C2F1200320FA03F10CFA02FC24FA03F3A8
:100C500094400C434FEA1C4800FA02FE1FFA8CF73E
:100C6000B3FBF8F008FB1031230C43EA014300FB0F
:100C700007F1994208D91CEB030300F1FF362CD28F
:100C800099422AD9023863445B1AA4B2B3FBF8F143
:100C900008FB113344EA034401FB07F3A34208D9DC
:100CA0001CEB040401F1FF3613D2A34211D902391F
:100CB0006444E41A41EA004139E70446F0E6084694
:100CC00006E7C845AED2B9EB020E63EB070C01385C
:100CD000A8E73146EDE7034699E73046D4E7D64624
:100CE0007FE7634402384DE70646234608460FE790
:100CF000023E634430E700BF704700BF08B50022E2
:100D0000B0F85C10806D02F061F908BD08B50122F1
:100D1000B0F85C10806D02F059F908BD84B000B5E0
:100D200085B00DF1180C8CE80F0000238DF80F3002
:100D300006A804F0BAF90528FAD04FF4FA73009324
:100D400001230DF10F021CA906A803F0C0FF30B962
:100D50009DF80F0005B05DF804EB04B07047FF206C
:100D6000F8E700002DE9F041AAB080460E4615468E
:100D70001C460846FFF7C2FF14AF582231463846DA
:100D800007F0C6FBCDF84880482218A9684607F04E
:100D9000BFFB97E80F00FFF7C1FF124B00221A803C
:100DA00014E015F80C301293482218A9684607F091
:100DB000AFFB0DF1500C9CE80F00FFF7AFFF0948A7
:100DC000B0F800C00CF1010CA0F800C0054BB3F85E
:100DD00000C0A445E5D33046FFF798FF2AB0BDE830
:100DE000F08100BF6400002030B599B00C46154674
:100DF0008DF80700582202A807F08AFB9DF80730FB
:100E000063F07F038DF807302046FFF777FF4FF43C
:100E1000FA7301220DF1070102A803F076FE4FF4E8
:100E2000FA732A46044902A804F07BF82046FFF72B
:100E30006DFF19B030BD00BF6800002000B583B061
:100E40000B4611468DF8073001230DF10702FFF71D
:100E500089FF03B05DF804FB08B513460A4619463E
:100E6000FFF7C2FF08BD70B506460D4614460C21BB
:100E70002520FFF7E3FF224631462620FFF7DEFF5D
:100E8000224629466320FFF7D9FF224687212720E3
:100E9000FFF7D4FF70BD70B506460D4614468C2191
:100EA0002520FFF7CBFF224631462620FFF7C6FF5D
:100EB000224645F080016320FFF7C0FF012001F0CA
:100EC000A9FC224629464920FFF7C6FF70BD84B021
:100ED00010B504460DF10C0C8CE80E00582261464A
:100EE00007F016FB199BA365BDF86830A4F85C30C9
:100EF00000231EE003F11C0204EB8202002151607A
:100F000003F1200204EB8202116003F1220204EBE0
:100F10008202516003F13002002124F8121004EB28
:100F20004202D18003F1340204EB4202918001338A
:100F3000DBB2022BDED9BDE8104004B070470000E0
:100F40002DE9F04F97B007460E4691469846DDF8DA
:100F500080A00170002417E007F1040B582505FB61
:100F600004953AF81430149358F8243013934C2213
:100F700005F10C01684607F0CBFA95E80E005846DB
:100F8000FFF7A5FF0134E4B2B44216D2032C14D803
:100F900001A353F824F000BF590F0008A90F00085F
:100FA000AF0F0008B50F000807F19C0BD6E707F557
:100FB0009A7BD3E707F5E67BD0E717B0BDE8F08F63
:100FC00010B50446024680216B20FFF737FF0A2048
:100FD00001F020FC224620216A20FFF72FFF224645
:100FE0000D212420FFF72AFF224600210A20FFF7C7
:100FF0003AFF224680216B20FFF720FF0A2001F0F4
:1010000009FC224601210B20FFF72DFF224601217A
:101010006B20FFF713FF224600216C20FFF70EFF25
:10102000224600211920FFF709FF224618211B2024
:10103000FFF704FF224618211C20FFF7FFFE22467F
:1010400000211D20FFF7FAFE224600211A20FFF79B
:10105000F5FE224620216A20FFF7F0FE22460D21F0
:101060002420FFF7EBFE224600210A20FFF7FBFEBB
:10107000642001F0CFFB22460F210A20FFF7F3FE88
:10108000642001F0C7FB224600210A20FFF7EBFE97
:10109000642001F0BFFB224616210A20FFF7E3FE81
:1010A000642001F0B7FB224601216B20FFF7C6FE4A
:1010B000224601210320FFF7EEFE224601210920EE
:1010C000FFF7E9FE002010BD70B505460678002444
:1010D00004E0281DFFF774FF0134E4B2B44216D2D5
:1010E000032CF9D801A353F824F000BFD310000853
:1010F000FD100008031100080911000805F19C000B
:10110000E8E705F59A70E5E705F5E670E2E7002007
:1011100070BD00BF000000002DE9F04784B0054617
:10112000714B1B88ADF80C3000248DF80E400194F3
:10113000ADF80840024603211020FFF7ACFE6B4BD0
:1011400093F800A08DF80CA093F801908DF80D9005
:1011500093F802808DF80E802A4607210320FFF7BE
:101160009AFE234607E0614AD15C03F110026A440B
:1011700002F80C1C0133052BF5DD9DF805209DF8C8
:10118000043043EA02231BB2A5F86C309DF8072017
:101190009DF8063043EA02231BB2A5F86E309DF895
:1011A00009209DF8083043EA02231BB2A5F87030ED
:1011B000B5F86C0000B207EE900AF8EEE77A17EE89
:1011C000900AFFF769F906460F46AAF18000FFF77B
:1011D00051F90022464BFFF7B7F90022454BFEF7C5
:1011E000FDFF02460B4630463946FFF7ADF9FFF7E3
:1011F000BDFBC5F88C00B5F86C0000B2FFF73AF9FA
:1012000037A3D3E90023FFF79FF9FFF7AFFBC5F83A
:101210008C00B5F86E0000B207EE900AF8EEE77A9F
:1012200017EE900AFFF738F906460F46A9F180003D
:10123000FFF720F900222E4BFFF786F900222D4BF5
:10124000FEF7CCFF02460B4630463946FFF77CF9E5
:10125000FFF78CFBC5F89000B5F86E0000B2FFF701
:1012600009F91FA3D3E90023FFF76EF9FFF77EFB0F
:10127000C5F89000B5F8700000B207EE900AF8EEDD
:10128000E77A17EE900AFFF707F906460F46A8F12E
:101290008000FFF7EFF80022154BFFF755F9002209
:1012A000144BFEF79BFF02460B4630463946FFF7CC
:1012B0004BF9FFF75BFBC5F89400B5F8700000B27E
:1012C000FFF7D8F806A3D3E90023FFF73DF9FFF7AE
:1012D0004DFBC5F8940004B0BDE8F087AFF3008083
:1012E000333333333333C33F0C86000868000020A8
:1012F0000000703F0000F03F70B5054606780024FE
:1013000004E0281DFFF708FF0134E4B2B44216D20E
:10131000032CF9D801A353F824F000BF03130008ED
:101320002D130008331300083913000805F19C0041
:10133000E8E705F59A70E5E705F5E670E2E770BDC8
:1013400010B582B0002400942A4B1A6B42F480023C
:101350001A631A6B02F480020092009A01941A6BCD
:1013600042F400121A631B6B03F400130193019BF8
:10137000224605210E2001F0B5FA0E2001F0C2FA36
:10138000224605210F2001F0ADFA0F2001F0BAFA34
:1013900022460521102001F0A5FA102001F0B2FA32
:1013A00022460521112001F09DFA112001F0AAFA30
:1013B00022460521382001F095FA382001F0A2FAE2
:1013C000224605213A2001F08DFA3A2001F09AFADE
:1013D000224605213B2001F085FA3B2001F092FADC
:1013E00022460521462001F07DFA462001F08AFAC6
:1013F00002B010BD00380240704700207047000066
:1014000008B5284A0121084604F01EFE264B186044
:10141000264A0121084604F017FE254B1860254A8C
:101420000121084604F010FE234B1860234A0421D2
:10143000012004F062FE224B1860224A04210120A0
:1014400004F05BFE204B1860204A0421012004F0C8
:1014500054FE1F4B18601F4A00211F4804F074FD02
:101460001E4B18601E4A00211E4804F06DFD1E4BE5
:1014700018601E4A00211E4804F066FD1D4B1860CE
:101480001D4A00211D4804F05FFD1D4B18601D48DA
:1014900004F0B8FD1C4B186004F0C4FE1B4B186030
:1014A00008BD00BF0C870008B4000020FC860008BF
:1014B000B0000020EC860008AC0000204C8700083B
:1014C000C000002034870008BC0000201C870008F2
:1014D000B8000020D087000811150008D0000020B7
:1014E000AC8700085D150008CC0000208887000844
:1014F000A9150008C800002064870008F515000839
:10150000C4000020DC860008A8000020D4000020D1
:1015100008B54FF0FF310D4B186805F060FE01284B
:101520000ED0022300220A490A48006805F024FC74
:101530000128EED10121084B186804F006FFE8E706
:10154000034B1868FFF7D8FEEBE700BFB40000209C
:1015500030000020C0000020D400002008B54FF06B
:10156000FF310D4B186805F03AFE01280ED002231A
:1015700000220A490A48006805F0FEFB0128EED166
:101580000221084B186804F0E0FEE8E7034B1868F6
:10159000FFF7B2FEEBE700BFB00000202C000020F8
:1015A000BC000020D400002008B54FF0FF310D4BE7
:1015B000186805F014FE01280ED0022300220A4903
:1015C0000A48006805F0D8FB0128EED10421084B39
:1015D000186804F0BAFEE8E7034B1868FFF78CFEC2
:1015E000EBE700BFAC00002028000020B80000207E
:1015F000D400002000B587B04FF400633F4A404953
:10160000404800F003FF4FF0FF34009401231A46D6
:1016100007213D48006804F013FE224603A93B4B16
:10162000186805F02DFD224604A9394B186805F00D
:1016300027FD224605A9374B186805F021FD039DBB
:10164000354C2346D5F89000D5F89410D5F898205D
:1016500007C3D5F82801D5F82C11D5F8302107C3D8
:10166000D5F8C001D5F8C411D5F8C82107C3D5F8FD
:101670005802D5F85C12D5F8602207C3049DD5F84E
:101680009000D5F89410D5F8982007C3D5F8280114
:10169000D5F82C11D5F8302107C3D5F8C001D5F8FD
:1016A000C411D5F8C82107C3D5F85802D5F85C1283
:1016B000D5F8602207C3059DD5F89000D5F89410A1
:1016C000D5F8982007C3D5F82801D5F82C11D5F8FE
:1016D000302107C3D5F8C001D5F8C411D5F8C82109
:1016E00007C3D5F85802D5F85C12D5F8602207C3B5
:1016F00090222146034800F090FE84E7D8000020A5
:10170000601A0020BC180020D4000020C000002077
:10171000BC000020B8000020D80800202DE9F043CC
:101720008DB000240794089409940A940B940194B2
:101730003F4B1A6B42F004021A631A6B02F0040268
:101740000192019A02941A6B42F020021A631A6BFA
:1017500002F020020292029A03941A6B42F0800275
:101760001A631A6B02F080020392039A04941A6BB4
:1017700042F001021A631A6B02F001020492049A09
:1017800005941A6B42F002021A631A6B02F002020D
:101790000592059A06941A6B42F040021A631B6B7D
:1017A00003F040030693069BDFF890902246C02189
:1017B000484601F00BFCDFF8888022463321404682
:1017C00001F004FC1B4F22463F21384601F0FEFB8E
:1017D000194E224646F6C011304601F0F7FBC023F1
:1017E00007930125089509940A9407A9484601F032
:1017F000F7FA33230793089509940A9407A94046FA
:1018000001F0EEFA3F230793089509940A9407A97B
:10181000384601F0E5FA46F6C01307930895099497
:101820000A9407A9304601F0DBFA0DB0BDE8F08359
:101830000038024000040240001802400014024038
:101840000008024008B50B480B4B03600B4B43608C
:1018500000238360C3604FF480420261436183616F
:10186000C361036201F098FD00B908BD00F0EEF815
:10187000FBE700BFBC09002000540040A086010027
:1018800008B50B480B4B03600B4B43600023836090
:10189000C3604FF48042026143618361C3610362AC
:1018A00001F07AFD00B908BD00F0D0F8FBE700BFF9
:1018B0006809002000580040A086010030B58BB0B8
:1018C00000230593069307930893099303682F4A0F
:1018D000934204D02E4A934236D00BB030BD00253F
:1018E00001952C4C236B43F002032363236B03F01D
:1018F00002030193019BC023059312230693012346
:101900000793032308930423099305A9224801F0B0
:1019100067FA0295236C43F400132364236C03F4E9
:1019200000130293029B2A4605211F2000F0DAFFD4
:101930001F2000F0E7FF2A460521202000F0D2FFFB
:10194000202000F0DFFFC8E700250395114C236B32
:1019500043F020032363236B03F020030393039BD3
:10196000032305931222069208930423099305A9E1
:101970000A4801F035FA0495236C43F4800323648C
:10198000236C03F480030493049BA6E700540040F7
:101990000058004000380240000402400014024099
:1019A00010B582B004460268234B9A4205D02268E3
:1019B000224B9A4204D002B010BD00F019FFF6E7A6
:1019C000002301931E4B186870B101A905F0FFFABE
:1019D000019B4BB14FF0E0234FF08052C3F8042D30
:1019E000BFF34F8FBFF36F8F164B186870B101A90B
:1019F00005F0EDFA019B4BB14FF0E0234FF0805220
:101A0000C3F8042DBFF34F8FBFF36F8F0E4B1868D1
:101A10000028D0D001A905F0DAFA019B002BCAD02A
:101A20004FF0E0234FF08052C3F8042DBFF34F8FE7
:101A3000BFF36F8FBFE700BF001000400000014000
:101A4000B4000020B0000020AC00002072B6FEE719
:101A500000B595B03022002108A806F02AFD002329
:101A6000039304930593069307930193214A116C02
:101A700041F080511164126C02F080520192019A7F
:101A800002931D4B1A6842F480421A601B6803F4EB
:101A900080430293029B012308934FF48033099300
:101AA00002230E934FF480020F92082210924FF4FB
:101AB000A872119212930423139308A802F07EFBDC
:101AC00098B90F23039302230493002305934FF443
:101AD000A05306934FF480530793052103A802F007
:101AE000D7FD20B915B05DF804FBFFF7AFFFFFF796
:101AF000ADFF00BF0038024000700040F0B583B079
:101B000000F05CFEFFF7A4FFFFF708FEFFF718FCEC
:101B100000F00CFDFFF796FEFFF7B2FE00F0A2F911
:101B200000F0C0F900F01AFC00F0DCF900F018FD3C
:101B300000242CE0582505FB04F62A4684498548F4
:101B4000304406F0E5FC844F844B43F82470844B0A
:101B5000012223F814202A4682498348304406F0A3
:101B6000D7FC824B43F824701027814B23F8147064
:101B70002A4680498048304406F0CAFC7F4B804AA0
:101B800043F824207F4B23F814700134E4B27E4BD9
:101B90001978A14240F29680032CF6D801A353F89D
:101BA00024F000BF351B0008B51B00080D1C000801
:101BB000691C0008582505FB04F62A466449654857
:101BC000304406F0A5FC644F644B43F82470644B2A
:101BD000022223F814202A4662496348304406F062
:101BE00097FC624B43F824702027614B23F8147054
:101BF0002A4660496048304406F08AFC5F4B604AE0
:101C000043F824205F4B23F81470BEE7582505FBEA
:101C100004F62A464E494F48304406F079FC4F4BB3
:101C20004D4A43F824204E4B042223F814202A4620
:101C30004C494D48304406F06BFC4C4B504A43F83D
:101C400024204B4B012223F814202A4649494A48B4
:101C5000304406F05DFC494B4C4A43F82420494B84
:101C6000402223F8142090E7582505FB04F62A4665
:101C700037493848304406F04BFC384B364A43F875
:101C80002420374B082223F814202A4635493648A9
:101C9000304406F03DFC354B394A43F82420344BA0
:101CA000022223F814202A4632493348304406F0F1
:101CB0002FFC324B354A43F82420324B802223F844
:101CC000142062E7324E334B1B680093324B1B6883
:101CD000324A12683068FFF733F92B4F304D314BE1
:101CE0001B680093304B1B68304A126839782868AB
:101CF000FFF726F92E4C2F4B1B6800932E4B1B68C9
:101D00002E4A126839782068FFF71AF93068FFF711
:101D1000DBF92868FFF7D8F92068FFF7D5F92848DC
:101D200003F0F6F904F0E2F8FFF76AFB04F0F0F8CC
:101D3000174B1868FFF7E0FA194B1868FFF7DCFA41
:101D40001B4B1868FFF7D8FA642000F063FDEFE73B
:101D5000D4170020180D002000040240080D0020B8
:101D6000000D00207C170020A00B0020900B00200D
:101D7000880B002024170020280A0020180A0020C1
:101D800000080240100A0020240000200014024035
:101D900030000020180000201C000020200000203F
:101DA0002C0000200C000020100000201400002057
:101DB000280000200000002004000020080000206F
:101DC0007418002070B50E461946C46883684568CB
:101DD0005B1B1C44A2421CD84FF0000C0EE0446870
:101DE000C568B4FBF5FE05FB1E4416F80C500368ED
:101DF0001D554468013444600CF1010C6245EED875
:101E000043690BB9012070BD006905F0E0F80120BD
:101E1000F9E70020F7E778B110B4C4688168426838
:101E2000891AE14209D00068B2FBF4F304FB1322E3
:101E300010445DF8044B704770470020F9E770B11B
:101E400008B50346406808445860596909B901203B
:101E500008BD1146186905F0BAF80120F8E700201E
:101E60007047000008B50D480D4B03604FF48273B6
:101E7000436000238360C360036143614FF40072D9
:101E80008261C3610362436283620A23C36202F018
:101E9000DDFD00B908BDFFF7D9FDFBE7D417002031
:101EA0000030014008B50D480D4B03604FF48273BC
:101EB000436000238360C360036143614FF4007299
:101EC0008261C3610362436283620A23C36202F0D8
:101ED000BDFD00B908BDFFF7B9FDFBE77C17002089
:101EE0000038004008B50D480D4B03604FF4827375
:101EF000436000238360C360036143614FF4007259
:101F00008261C3610362436283620A23C36202F097
:101F10009DFD00B908BDFFF799FDFBE724170020E0
:101F2000003C00402DE9F0438DB0044600230793A8
:101F3000089309930A930B9303687A4A934209D052
:101F4000794A93425DD0794A934200F0C6800DB041
:101F5000BDE8F08300250095754B5A6C42F4805221
:101F60005A645A6C02F480520092009A01951A6BDE
:101F700042F001021A631B6B03F001030193019B02
:101F8000E02307930223089303230A9305230B936B
:101F900007A9684800F024FF6748684B03604FF0CA
:101FA000C06343608560C5604FF480630361456131
:101FB0008561C5610562456200F028FDD8B95E4BB8
:101FC000E3649C635E485F4B03604FF0C063436013
:101FD000402383600023C3604FF480620261436149
:101FE0008361C3610362436200F010FD30B9544B5A
:101FF000A3649C63ABE7FFF729FDE0E7FFF726FD4D
:10200000F5E7002502954A4B1A6C42F480421A64A7
:102010001A6C02F480420292029A03951A6B42F003
:1020200004021A631A6B02F004020392039A0495E5
:102030001A6B42F002021A631B6B03F00203049353
:10204000049B0C2307934FF00209CDF820904FF02A
:102050000308CDF8288005270B9707A93A4800F018
:10206000BFFE4FF480660796CDF820900995CDF815
:1020700028800B9707A9354800F0B2FE3448354B4D
:10208000036045608560C560066145618561C56125
:102090000562456200F0BAFCC8B92D4BE3649C634D
:1020A0002D482E4B03600023436040228260C360B2
:1020B0004FF48062026143618361C36103624362E2
:1020C00000F0A4FC30B9244BA3649C633FE7FFF706
:1020D000BDFCE2E7FFF7BAFCF5E700210591144BE0
:1020E0001A6C42F400421A641A6C02F4004205921F
:1020F000059A06911A6B42F004021A631B6B03F0F7
:1021000004030693069B4FF4E053079302230893BE
:1021100003230A9306230B9307A90B4800F060FEE4
:1021200015E700BF0030014000380040003C00408F
:102130000038024000000240C41600201064024033
:102140006416002058640240000802400004024067
:102150000416002058600240A41500207060024060
:1021600010B582B000240094114B5A6C42F48042A6
:102170005A645A6C02F480420092009A01941A6CDC
:1021800042F080521A641B6C03F080530193019B50
:1021900022460F216FF0010000F0A4FB224605212A
:1021A000512000F09FFB512000F0ACFB02B010BDAD
:1021B0000038024030B589B0044600230193214B1A
:1021C0001A6C42F010021A641B6C03F010030193A6
:1021D000019B02A903A802F031FB069BCBB902F0D8
:1021E0000DFB0346184AA2FB03239B0C013B174837
:1021F000174A026040F2E732C26043600023036185
:102200008360836103F0E8F8054630B1284609B0E1
:1022100030BD02F0F3FA4300E4E70C4802F078FF27
:1022200005460028F2D1362000F06CFB0F2C01D9B6
:102230000125EBE700222146362000F053FB054B39
:102240001C60E3E70038024083DE1B432C180020AB
:10225000001000403C000020FEE7FEE7FEE7FEE73E
:10226000FEE7704708B5024800F0C8FC08BD00BF93
:102270000416002008B5024800F0C0FC08BD00BFED
:10228000A415002008B5024800F0B8FC08BD00BF46
:10229000E018002008B5024800F0B0FC08BD00BFFF
:1022A0004019002008B5024802F07AFF08BD00BFBF
:1022B0007418002008B5024801F052FE08BD00BFA6
:1022C000BC09002008B5024801F01AFF08BD00BF94
:1022D000BC09002008B5024803F0CAFB08BD00BFD6
:1022E000A81A002008B5024803F0C2FB08BD00BFD1
:1022F000601A002008B5024802F052FF08BD00BF76
:102300002C18002008B5024800F078FC08BD00BF7A
:10231000C416002008B5024800F070FC08BD00BFDC
:10232000A019002008B5024800F068FC08BD00BFF5
:102330006416002008B5024800F060FC08BD00BF2C
:10234000001A002070470000034AD2F8883043F496
:102350007003C2F88830704700ED00E000B587B028
:10236000002302930393049305930093019315486C
:10237000154A026042F2CF02426083606322C2606B
:1023800003614361836103F027F890B94FF48053F0
:10239000029302A90B4803F058F868B90023009390
:1023A00001936946074803F0CFF840B907B05DF8DC
:1023B00004FBFFF74BFBE9E7FFF748FBEEE7FFF70E
:1023C00045FBF3E7741800200000014002680E4B43
:1023D0009A4200D0704700B583B00022019203F505
:1023E0009C33596C41F0010159645B6C03F00103AB
:1023F0000193019B0521192000F074FA192000F0C7
:1024000081FA03B05DF804FB000001400260002285
:102410008280827181608381704770B58389934225
:1024200012D30446154686790EB100260DE00068E9
:1024300006F06EF8A5802A462168A06803F0F2F93C
:1024400018B90126A67100E00026304670BD0023B1
:102450008371704710B582B004460023019301AA2E
:1024600001890068FFF7EBFC2068FFF7D4FC20B17E
:1024700001462289606803F019FD019B4BB14FF0C2
:10248000E0234FF08052C3F8042DBFF34F8FBFF30A
:102490006F8F02B010BD000030B583B0044600233A
:1024A0000193026803F1804303F588339A4205D013
:1024B0002268124B9A421CD003B030BD104D01ABC4
:1024C000012229460F480068FFF77CFC01222946BB
:1024D0000D4803F086FC019B002BE9D04FF0E02370
:1024E0004FF08052C3F8042DBFF34F8FBFF36F8FAF
:1024F000DEE70648FFF7AEFFDEE700BF004400401E
:10250000D8180020DC180020A81A0020CC180020C1
:1025100008B50268034B9A4200D008BD0248FFF795
:1025200096FFFAE700440040BC18002008B50A48AE
:102530000A4B03604FF4E133436000238360C360C0
:1025400003610C2242618361C36103F03BF900B96E
:1025500008BDFFF77BFAFBE7A81A00200010014036
:1025600008B50A480A4B03604FF47A2343600023FE
:102570008360C36003610C2242618361C36103F025
:1025800021F900B908BDFFF761FAFBE7601A0020E6
:102590000044004030B58BB00446002305930693F9
:1025A0000793089309930368634A934204D0634AEC
:1025B000934261D00BB030BD00250195604B5A6C41
:1025C00042F010025A645A6C02F010020192019A11
:1025D00002951A6B42F001021A631B6B03F00103B0
:1025E0000293029B4FF4C0630593022306930323D7
:1025F00008930723099305A9524800F0F1FB5248BC
:10260000524B03604FF00063436040238360C5601A
:102610004FF48063036145618561C5610562456270
:1026200000F0F4F910BB484BA3639C634848494B46
:1026300003604FF00063436000238360C3604FF486
:102640008062026143618361C3610362436200F09F
:10265000DDF970B93E4BE3639C6300220521252020
:1026600000F040F9252000F04DF9A3E7FFF7EEF95F
:10267000D9E7FFF7EBF9EDE700250395304B1A6C2E
:1026800042F400321A641A6C02F400320392039A84
:1026900004951A6B42F001021A631B6B03F00103ED
:1026A0000493049B0C2305930223069303230893AE
:1026B0000723099305A9234800F092FB2648274BDE
:1026C00003604FF00063436040238360C5604FF4B4
:1026D0008063036145618561C5610562456200F003
:1026E00095F910BB1C4BA3639C631D481D4B0360F5
:1026F0004FF00063436000238360C3604FF4806247
:10270000026143618361C3610362436200F07EF949
:1027100070B9134BE3639C6300220521262000F06F
:10272000E1F8262000F0EEF844E7FFF78FF9D9E74B
:10273000FFF78CF9EDE700BF0010014000440040B6
:102740000038024000000240001A0020B864024035
:10275000A01900204064024040190020A0600240FF
:10276000E018002088600240DFF834D0FFF7ECFD6D
:102770000C480D490D4A002302E0D458C4500433DC
:10278000C4188C42F9D30A4A0A4C002301E01360B2
:102790000432A242FBD305F095FEFFF7AFF9704774
:1027A00000000220000000204800002040880008AF
:1027B00048000020EC650020FEE7000008B50B4B48
:1027C0001A6842F400721A601A6842F480621A6051
:1027D0001A6842F480721A60032000F071F80F202A
:1027E000FFF7E8FCFFF7BCFC002008BD003C0240FE
:1027F000034A1168034B1B780B441360704700BFFA
:10280000F01A002038000020014B1868704700BF04
:10281000F01A002038B50446FFF7F6FF0546B4F17C
:10282000FF3F02D0044B1B781C44FFF7EDFF401B19
:10283000A042FAD338BD00BF38000020002807DBD3
:1028400000F01F02400901239340024A42F8203061
:10285000704700BF00E100E0002808DB0901C9B2B1
:1028600000F1604000F5614080F80013704700F00F
:102870000F000901C9B2014B1954704714ED00E073
:1028800000B500F00700C0F1070CBCF1040F28BF31
:102890004FF0040C031D062B0FD9C31E4FF0FF3E53
:1028A0000EFA0CF021EA000199400EFA03FE22EA2A
:1028B0000E0241EA02005DF804FB0023EEE700008F
:1028C000074AD36823F4E0631B041B0C000200F4E6
:1028D000E060034343F0BF6343F40033D3607047C9
:1028E00000ED00E010B50446054BD868C0F30220A7
:1028F000FFF7C6FF01462046FFF7AEFF10BD00BF41
:1029000000ED00E008B5FFF799FF08BD30B4056899
:102910002C6824F480242C60046863608368402B56
:1029200005D0036899600368DA6030BC70470368BB
:102930009A600368D960F8E710B40368D9B2103917
:102940000C4AA2FB014212090B4CA25CC2655F2932
:1029500009D923F47F7323F0030304338365806D67
:102960005DF8044B704723F47F7323F00303836502
:10297000F5E700BFABAAAAAA0C880008836A82699F
:1029800092B9012B0AD0022B02D00BB10020704764
:10299000C36A13F0807F28D100207047C36AB3F167
:1029A000C07F24D000207047B2F5005F09D0022B11
:1029B00025D9032B25D1C36A13F0807F23D10020B2
:1029C0007047032B03D8DFE803F01404140A002037
:1029D0007047C36A13F0807F0DD100207047C36A2F
:1029E000B3F1C07F09D0002070470120704701205B
:1029F0007047012070470120704701207047012077
:102A000070470020704701207047000070B50446F1
:102A1000FFF7FAFE002C5BD00546022384F8353020
:102A2000002384F834302268136823F00103136014
:102A300023681A6812F0010F0AD0FFF7E5FE431B66
:102A4000052BF5D920236365032084F8350070BD7C
:102A50001A68204911406268A0680243E068024396
:102A60002069024360690243A0690243E0690243AE
:102A7000206A02430A43616A04291ED01A6026684C
:102A8000756925F00705636A1D43042B07D1A36A06
:102A90001D43E36A1BB12046FFF770FF90B97561D3
:102AA0002046FFF749FFE26D3F23934083600020FB
:102AB0006065012384F83530C9E7E16A206B014382
:102AC0000A43DBE740236365012084F83500BEE755
:102AD0000120BCE73F8010F038B50446856D90F8C2
:102AE000340001282BD0012084F8340094F83500FC
:102AF000C0B2012804D0002384F83430022038BD4D
:102B0000022084F83500002060652046FFF7FEFEB5
:102B1000E26D3F239340AB602268136843F01603D5
:102B20001360236C23B12268136843F00803136019
:102B30002268136843F0010313600020DFE70220DE
:102B4000DDE770B50446866DFFF75EFE94F835301C
:102B5000DBB2022B06D080236365002384F8343077
:102B6000012070BD05462268136823F01603136028
:102B70002268536923F080035361236CE3B1226818
:102B8000136823F0080313602268136823F001031D
:102B9000136023681B6813F0010F11D0FFF734FE98
:102BA000431B052BF5D920236365032084F83500EA
:102BB000002384F83430D4E7A36C002BDFD1E3E7A3
:102BC000E26D3F239340B360012384F83530002049
:102BD00084F83400C5E790F83530DBB2022B03D01F
:102BE0008023436501207047052380F83530026853
:102BF000136823F00103136000207047F0B583B021
:102C0000044600230193724B1D68724BA3FB0535EC
:102C1000AD0A876D3E68C26D08239340334210D0E1
:102C200003681A6812F0040F0BD01A6822F004022D
:102C30001A60C26D08239340BB60436D43F00103EB
:102C40004365E26D01239340334209D02268526903
:102C500012F0800F04D0BB60636D43F00203636524
:102C6000E26D04239340334209D02268126812F0C7
:102C7000020F04D0BB60636D43F004036365E26D33
:102C800010239340334224D02268126812F0080FB8
:102C90001FD0BB6023681A6812F4802F0DD01B6808
:102CA00013F4002F04D1236C9BB12046984710E009
:102CB000A36C73B1204698470BE01A6812F4807F2A
:102CC00003D11A6822F008021A60236C0BB1204667
:102CD0009847E26D20239340334255D02268126812
:102CE00012F0100F50D0BB6094F83530DBB2052BDA
:102CF0000ED023681A6812F4802F33D01B6813F4A7
:102D0000002F2AD1636C002B3ED0204698473BE031
:102D10002268136823F0160313602268536923F0B6
:102D200080035361236CA3B12268136823F0080366
:102D30001360E26D3F239340BB60012384F835307C
:102D4000002384F83430236D002B3FD02046984771
:102D50003CE0A36C002BE7D1EBE7E36BA3B120468B
:102D6000984711E01A6812F4807F09D11A6822F09E
:102D700010021A60012384F83530002384F83430BF
:102D8000E36B0BB120469847636DFBB1636D13F0A5
:102D9000010F17D0052384F835302268136823F01B
:102DA00001031360019B01330193AB4204D82368F4
:102DB0001B6813F0010FF5D1012384F8353000238F
:102DC00084F83430E36C0BB12046984703B0F0BD73
:102DD00034000020B5814E1B90F83500704700008C
:102DE00000230F2B00F2E98070B582B065E08568A2
:102DF0004FEA430E032404FA0EF425EA0405CC68D6
:102E000004FA0EF42C438460446824EA02044A68FD
:102E1000C2F300129A40224342605CE0DC080834AE
:102E200050F8242003F00705AD004FF00F0E0EFA06
:102E300005FE22EA0E0E0A69AA4042EA0E0240F896
:102E400024205CE0072200E0002202FA0EF22A436E
:102E500002345A4D45F82420594A94686FEA0C020E
:102E600024EA0C054E6816F4801F01D04CEA0405D4
:102E7000534CA560E46802EA04054E6816F4001F8E
:102E800001D04CEA04054E4CE560646802EA040592
:102E90004E6816F4003F01D04CEA0405484C6560CA
:102EA000246822404D6815F4803F01D04CEA0402AA
:102EB000434C226001330F2B7DD801229A400C68CD
:102EC00004EA020C32EA0404F4D14C6804F003046E
:102ED000013C012C8BD94A6802F00302032A09D075
:102EE000C4685D000322AA4024EA02048A68AA405A
:102EF0002243C2604A6802F00302022A8ED00468AC
:102F00004FEA430E032202FA0EF224EA02044A6850
:102F100002F0030202FA0EF2224302604A6812F43F
:102F2000403FC7D000220192264A546C44F48044AA
:102F30005464526C02F480420192019A9C08A51CD0
:102F40001E4A52F8255003F0030E4FEA8E0E0F2250
:102F500002FA0EF225EA02051B4A90423FF474AFD2
:102F600002F5806290421AD002F58062904218D039
:102F700002F58062904216D002F58062904214D031
:102F800002F58062904212D002F58062904210D029
:102F900002F5806290423FF455AF082255E70122C6
:102FA00053E7022251E703224FE704224DE70522AF
:102FB0004BE7062249E702B070BD70470038014078
:102FC000003C014000380240000002400AB181612B
:102FD000704709048161704703685A6912F0800FD5
:102FE00001D000221A61704790F83E30DBB2402BCE
:102FF00010D00369B3F5804F1BD0036D002B39D17E
:10300000436CC3F3C813026803F0060343F0F003F4
:1030100013617047036D2BB9436C026803F0FE0324
:1030200013617047436C026843F00103DBB2136124
:10303000704790F83D30DBB2212B0FD0436C026813
:1030400043F00103DBB21361436B6BB1DB6B5BB12C
:103050000268536843F4006353607047436C02682E
:1030600003F0FE031361EFE7836B33B1DB6B002BDF
:10307000EED102E0036D012B00D07047436CC3F327
:10308000C813026803F0060343F0F1031361F4E789
:10309000436C0268DBB21361436B3BB1DB6B2BB15A
:1030A0000268536843F4006353607047836B002BDE
:1030B000FBD0DB6B002BF3D1F7E7000010B48BB033
:1030C00090F83E30DAB2C16A046B90F83D30DBB262
:1030D000222B0BD00023099303685A6909929B693C
:1030E0000993099B0BB05DF8044B7047036D0BB956
:1030F000402A17D0036D1BB90369B3F5404F19D0AF
:10310000438D9BB2002B25D1029303685A6902922A
:103110009A690292029A1A6842F400721A600023B5
:103120000365DFE7009303685A6900929B69009387
:10313000009BD7E70023019303685A6901929A69BB
:103140000192019A1A6842F480721A60036D013389
:103150000365C7E7438D9BB2012B1CD0438D9BB207
:10316000022B72D00268136843F480631360036813
:103170005A6812F4006F00F0A980202900F2AF8095
:10318000082980F09C80012940F0A0805A6842F410
:1031900080525A609AE011F5803F11D0082934D04E
:1031A000202932D0122C2ED0042940D002293ED022
:1031B00010293CD00268136823F4806313603BE05D
:1031C0000268136823F48063136003685A6812F47A
:1031D000006F0CD01A6822F480621A6000230393F7
:1031E00003685A6903929B690393039B97E7002244
:1031F00004925A6904929A690492049A1A6842F4F1
:1032000000721A608BE70129D0D00268136823F49A
:10321000806313600023069303685A6906929A69D3
:103220000692069A1A6842F400721A6077E70268FA
:10323000136843F4806313600023059303685A699D
:1032400005929B690593059B69E7102904D8264BD5
:10325000CB4013F0010F19D10268136823F4806387
:1032600013600268136843F40063136003685A68CC
:1032700012F4006F16D020291DD808290CD201297C
:1032800010D15A6842F480525A600BE00268136809
:1032900043F480631360E9E70839144ACA4012F026
:1032A000010FEED10023079303685A6907929B69C7
:1032B0000793079B33E711F5803FF3D1E1E7083926
:1032C0000A4ACA4012F0010F7FF460AF002308934E
:1032D00003685A6908929B690893089B1FE711F5D8
:1032E000803FF3D152E700BF14000100010100014B
:1032F000438D9BB25BB1426A036812781A61436ADC
:1033000001334362438D9BB2013B9BB243857047BF
:10331000438D9BB25BB103681A69436A1A70436AB2
:1033200001334362438D9BB2013B9BB2438570479F
:1033300082B0002301930E4B1B68DB080D4AA2FBF1
:1033400003231B0A03EB83030193019B013B0193BE
:10335000019B33B103681B6813F4007FF5D1002093
:1033600004E0036C43F020030364012002B07047C3
:103370003400002089B5F814C36AB3F52A0F04D0CD
:10338000C36AB3F12A4F03D070470123C362704769
:103390000823C362F8E70000002800F0CC8070B575
:1033A000044690F83D30002B77D0242384F83D303C
:1033B0002268136823F0010313602268136843F442
:1033C000004313602268136823F40043136001F084
:1033D00015FA62685A4B9A4264D85A4B98428CBF8D
:1033E00000230123002B40F0A8805749A1FB0031A6
:1033F0008B0C25686A6822F03F0242EA91426A60BB
:1034000021680A6A22F03F0266684D4DAE424FD8ED
:10341000013313430B622168CA6922F44F4222F040
:10342000FF026568464B9D424CD8431E6D00B3FBBE
:10343000F5F3013340F6FC70034278D0C3F30B037D
:103440001A43CA6121680B6823F0C003E269206A4D
:10345000024313430B6021688B6823F4034323F07A
:10346000FF032269E068024313438B602168CB6845
:1034700023F0FF036269A06902431343CB60226813
:10348000136843F00103136000202064202384F8B4
:103490003D30206384F83E0070BD80F83C30FEF77C
:1034A0000DFA82E7294B98428CBF0023012399E74C
:1034B0004FF4967505FB03F3254DA5FB03539B09BC
:1034C0000133A6E7A668BEB9431E05EB450CB3FB66
:1034D000FCF30133C3F30B03B3FA83F35B0943BB80
:1034E000C6B9431E05EB4505B3FBF5F30133C3F342
:1034F0000B0343F40043A3E7431E05EB850C0CEBE1
:103500008C0CB3FBFCF30133C3F30B03B3FA83F36B
:103510005B09E4E7431E05EB850505EB8505B3FB79
:10352000F5F30133C3F30B0343F4404388E704236B
:1035300086E7012384E7012070470120ACE700BF44
:10354000A08601007F841E0083DE1B43FF083D0030
:10355000D34D621070477047704708B590F83D3002
:10356000DAB2438D9BB283B1416A0368097819616D
:10357000436A01334362438D9BB2013B9BB2438557
:10358000438D9BB20BB9292A00D008BD026853684D
:1035900023F48063536021230363282380F83D30A4
:1035A000FFF7DAFFF1E7704708B590F83D30DAB27F
:1035B000438D9BB283B103681969436A1970436AEA
:1035C00001334362438D9BB2013B9BB24385438DE4
:1035D0009BB20BB92A2A00D008BD0268536823F4B5
:1035E0008063536022230363282380F83D30FFF774
:1035F000DAFFF1E7704700B583B090F83D3003F093
:103600002803282B0CD000230193026851690191F3
:1036100092690192019A80F83C3003B05DF804FB96
:103620000268536823F48063536011F0040F0BD0D9
:10363000002311F0800F09D18289002180F83C100D
:103640001946FFF7D7FFE8E70123F2E7028BF4E71B
:103650007047000010B5044690F83D30DBB2C26AF6
:10366000082A01D0202A01D1282B06D0212B1FD0D7
:1036700023686FF480625A6110BD1D4BE3622268BB
:10368000536823F4E063536023686FF480625A61E7
:103690002268136823F480631360002323632022CD
:1036A00084F83D2084F83E302046FFF7D1FFE3E761
:1036B0000F4BE36221232363202384F83D30002352
:1036C00084F83E302268536823F4E0635360236833
:1036D0006FF480625A612268136823F48063136078
:1036E0002046FFF779FC2046FFF736FFC4E700BF0E
:1036F0000000FFFF704708B5C26A90F83D30DBB2AA
:10370000212B00D008BD438D9BB263B1426A036890
:1037100012781A61436A01334362438D9BB2013BC5
:103720009BB24385EEE7082A04D0202A02D012F586
:10373000803F19D10268536823F4E0635360026844
:10374000136843F40073136000230363202380F89D
:103750003D3090F83E30DBB2402B15D0002380F88E
:103760003E30FFF7F7FECDE70268536823F4E063CD
:10377000536011230363002380F83E30202380F838
:103780003D30FFF7E7FEBDE7002380F83E30FFF74E
:10379000B1FFB7E708B590F83D30026D9AB9C36C38
:1037A000012B08D0836CC3F3072302681361036DF8
:1037B0000133036508BD836C0268DBB21361036DDE
:1037C00002330365F6E7DBB2026D012A23D0026DF6
:1037D000022A3ED1222B26D0428D92B20AB1212B51
:1037E0002AD0428D92B2002AE4D1212BE2D1026884
:1037F000536823F4E06353600268136843F4007372
:10380000136000230363202280F83D2080F83E30BF
:10381000FFF770FFCEE7836C0268DBB21361036DC4
:1038200001330365C6E70268136843F480731360CD
:10383000036D01330365BDE7426A036812781A61BC
:10384000436A01334362438D9BB2013B9BB2438584
:10385000B0E7FFF7C1FBADE710B590F83D30DBB244
:1038600090F83E20D2B2C46A018D00293BD1212BB1
:1038700002D0402A42D010BD082C04D0202C02D007
:1038800014F5803F19D10268536823F4E063536054
:103890000268136843F4007313600023036320235A
:1038A00080F83D3090F83E30DBB2402B15D000233D
:1038B00080F83E30FFF74EFEDDE70268536823F4E0
:1038C000E063536011230363002380F83E3020231C
:1038D00080F83D30FFF73EFECDE7002380F83E3014
:1038E000FFF708FFC7E7212BC3D1438D9BB243B934
:1038F0000268536823F480635360BCE7222BBAD17B
:10390000F3E790F83E30DBB2402B0CD0426A0368FC
:1039100012781A61436A01334362438D9BB2013BC3
:103920009BB24385A7E7FFF735FFA4E7704708B5CB
:10393000C26A438D9BB2042B14D0438D9BB2032BE0
:1039400022D0438D9BB2022B39D003681A69436A97
:103950001A70436A01334362438D9BB2013B9BB2B1
:10396000438510E00268536823F480635360036862
:103970001A69436A1A70436A01334362438D9BB2EA
:10398000013B9BB2438508BD01684B6823F480630B
:103990004B60042A06D0022A04D00268136823F47C
:1039A0008063136003681A69436A1A70436A0133BB
:1039B0004362438D9BB2013B9BB24385E3E7531EB9
:1039C0000F2B42D8DFE803F0083B413B4141414126
:1039D000414141414141410801680B6823F4806342
:1039E0000B6003681969436A1970416A4B1C436292
:1039F000438D9BB2013B9BB2438503681B694B70AF
:103A0000436A01334362438D9BB2013B9BB24385C2
:103A100001684B6823F440734B60202380F83D30ED
:103A200090F83E30DBB2402B15D0002380F83E30BA
:103A3000082A17D0202A15D01223036314E0016846
:103A40000B6843F480630B60CBE701680B6843F4B9
:103A500000730B60C5E7002380F83E300363FFF777
:103A600065FF90E700230363FFF775FD8BE7704761
:103A700038B590F83D30DBB2222B00D038BD04467B
:103A8000C56A438D9BB2032B15D903681A69436A33
:103A90001A70436A01334362438D9BB2013B9BB270
:103AA0004385438D9BB2032BE8D10268536823F40E
:103AB00080635360E2E7C26A022A01D0012B05D974
:103AC0002268536823F480635360D7E7FFF730FC24
:103AD000002835D12268136823F4806313602268BC
:103AE000536823F4E063536023681A69636A1A70A9
:103AF000636A01336362638D9BB2013B9BB2638552
:103B0000202384F83D3094F83E30DBB2402B09D0BE
:103B1000002384F83E30082D0CD0202D0AD012232B
:103B2000236309E0002384F83E3023632046FFF737
:103B3000FDFEA3E7002323632046FFF70CFD9DE76E
:103B40002268536823F4E063536023681A69636A48
:103B50001A70636A01336362638D9BB2013B9BB24F
:103B60006385202384F83D30002384F83E302046CE
:103B7000FFF77DFF82E7704700B583B00023019314
:103B8000806B90F83D20D2B2324B1B68DB08324983
:103B9000A1FB03131B0A03EB8303C3EBC3030193D2
:103BA000019B43B1019B013B019303681B6813F424
:103BB000007FF5D103E0036C43F020030364436B03
:103BC0000BB10021D963836B0BB10021D96301686C
:103BD0000B6823F480630B6000234385436B0BB1B8
:103BE00000211965836B0BB10021196501680B6811
:103BF00023F001030B6090F83D30DBB2602B0ED058
:103C000002F02802282A14D0202380F83D30002317
:103C100080F83E30FFF72BFF03B05DF804FB202354
:103C200080F83D30002380F83E300364FFF7A3FFA7
:103C3000F2E70268136843F0010313600268136837
:103C400043F48063136000230363282380F83D302E
:103C5000E0E700BF3400002089B5F81410B5044631
:103C600090F83D30DBB290F83E20D2B2102A36D028
:103C7000402A34D003F02802282A38D0226852681B
:103C800012F4006F07D1602B05D0202384F83D305B
:103C9000002384F83E300023236323685A6812F41B
:103CA000006F48D05A6822F400625A60626B92F842
:103CB0003530DBB2012B20D0444B1365606BFEF72F
:103CC0008AFF002849D02268136823F0010313609B
:103CD000202384F83D30606B036D98473DE0222B34
:103CE000C8D121680A6822F400620A60C2E7002392
:103CF0002363282384F83D30CFE7A36B334A1A654A
:103D0000A06BFEF768FF40B323685A6912F0400FBA
:103D100005D01A69636A1A70636A013363622268A4
:103D2000136823F001031360202384F83D30A06B57
:103D3000036D984711E094F83D20D2B2602A1FD05D
:103D40005A6912F0400F05D01A69636A1A70636AE3
:103D5000013363622046FFF78AFE236C13F00F0FD6
:103D600004D02268536823F4E063536094F83D3034
:103D7000DBB2226C12F0040F01D0282B18D010BD3A
:103D8000202284F83D20002222645A6912F0400F5C
:103D900005D01A69636A1A70636A01336362226824
:103DA000136823F0010313602046FFF7E4FED4E715
:103DB000074BE36200232363202284F83D2084F82C
:103DC0003E302046FFF744FCD9E700BF793B0008AE
:103DD0000000FFFF30B583B0044690F83D50EDB2CF
:103DE0000268536823F4E06353600023019303687F
:103DF0005A6901921A6842F001021A60019B026836
:103E0000136823F48063136003685A6812F4006F28
:103E100038D0222D21D02A2D1FD0426B1268526833
:103E200092B24285428D92B21AB1026C42F0040203
:103E300002645A6822F400625A60606BFEF7CCFF9D
:103E400001281FD0636B444A1A65606BFEF7C3FEFE
:103E5000C0B1606B036D984714E0A26B12685268A2
:103E600092B26285628D92B21AB1226C42F0040263
:103E700022645A6822F400625A60A06BFEF7ACFF1D
:103E8000012842D1638D9BB233B323685A6912F083
:103E9000040F0AD01A69636A1A70636A0133636295
:103EA000638D9BB2013B9BB2638523685A6912F014
:103EB000400F0AD01A69636A1A70636A0133636239
:103EC000638D9BB2013B9BB26385638D9BB21BB13B
:103ED000236C43F004032364236C13BB2A2D25D0E9
:103EE00094F83D30DBB2282B29D0236B222B01D054
:103EF000222D19D100232363202284F83D2084F849
:103F00003E302046FFF74FFB0EE0A36B124A1A65C6
:103F1000A06BFEF760FE0028B4D0A06B036D98473D
:103F2000B0E72046FFF79AFE03B030BD00232363BD
:103F3000282384F83D302046FFF735FBD0E7074BB8
:103F4000E36200232363202284F83D2084F83E307E
:103F50002046FFF77DFBE7E7793B00080000FFFF05
:103F6000F8B5044602685568C66A90F83E30DBB280
:103F700090F83D10C8B2102B13D0402B11D0236CF9
:103F8000002B7AD05369002113F0020F78D015F47A
:103F9000007F75D0236C03B191692046FFF72BFB9E
:103FA000F8BDD2F818C0516911F0010705D1B6F576
:103FB0002A0FF5D0B6F12A4FF2D017B115F4007FD1
:103FC00029D111F0080F02D015F4007F2AD111F089
:103FD000020F02D015F4007F28D11CF0040F31D05D
:103FE000526812F4006FDBD111F0800F05D015F488
:103FF000806F02D011F0040F1CD011F0040FCFD04D
:1040000015F4007FCCD0212818D0402BC8D12046F1
:10401000FFF7C0FBC4E72046FFF7AEF92046FEF7E6
:10402000E3FFBDE72046FFF733F8B9E72046FFF787
:1040300045F8B5E72046FFF70FFCB1E72046FFF74C
:104040005AFBADE7536813F4006FA9D111F0400F8C
:1040500005D015F4806F02D011F0040F09D011F0D3
:10406000040F9DD015F4007F9AD02046FFF75FFC27
:1040700096E72046FFF7FCFC92E79169536983E7D6
:1040800013F0100F02D015F4007F18D121281AD098
:10409000292818D013F0400F05D015F4806F02D0F6
:1040A00013F0040F28D013F0040F3FF479AF15F488
:1040B000007F3FF475AF2046FFF72AF970E72046EE
:1040C000FFF788FE6CE713F0800F05D015F4806FC2
:1040D00002D013F0040F0BD013F0040F3FF460AFC5
:1040E00015F4007F3FF45CAF2046FFF701F957E776
:1040F0002046FFF732FA53E72046FFF755FA4FE71D
:10410000F8B5044603685D695F6890F83E20D2B256
:1041100015F4807606D017F4807603D06FF48071A2
:104120005961012615F4007F08D017F4807F05D06F
:1041300046F0020623686FF40071596115F4806F30
:1041400019D017F4807F16D0638D99B294F83D3062
:10415000DBB2206B202A1BD023686FF48061596189
:1041600046F00406102A01D0402A04D122681368C0
:1041700043F40073136015F4006F17D017F4807FB9
:1041800014D046F0080623686FF400625A610EE00E
:104190000029E1D1212B05D0292B03D0282BDBD1FD
:1041A0002128D9D12046FFF755FAE4E72EB1236C38
:1041B000334323642046FFF751FDF8BD002800F08B
:1041C000E08170B582B00446036813F0010F3BD064
:1041D0009F4B9B6803F00C03042B2CD09C4B9B68DB
:1041E00003F00C03082B21D06368B3F5803F4FD058
:1041F000B3F5A02F52D0964B1A6822F480321A6081
:104200001A6822F480221A606368002B50D0FEF7EF
:10421000FBFA05468E4B1B6813F4003F14D1FEF7E2
:10422000F3FA401B6428F5D90320B1E1884B5B68A1
:1042300013F4800FD8D0864B1B6813F4003F03D0D3
:104240006368002B00F09F81236813F0020F54D0A5
:104250007F4B9B6813F00C0F3ED07D4B9B6803F0A7
:104260000C03082B33D0E368002B68D0794B012274
:104270001A60FEF7C9FA0546754B1B6813F0020F6A
:1042800054D1FEF7C1FA401B0228F5D903207FE183
:104290006F4A136843F480331360B5E76C4B1A68B8
:1042A00042F480221A601A6842F480321A60ABE746
:1042B000FEF7AAFA0546664B1B6813F4003FC3D00D
:1042C000FEF7A2FA401B6428F5D9032060E1604B99
:1042D0005B6813F4800FC6D15D4B1B6813F0020FAF
:1042E00003D0E368012B40F05081594A136823F052
:1042F000F803216943EAC1031360236813F0080F30
:1043000042D063696BB3534B0122C3F8802EFEF792
:104310007BFA05464E4B5B6F13F0020F34D1FEF76C
:1043200073FA401B0228F5D9032031E1484A13688B
:1043300023F0F803216943EAC1031360DDE7454B2D
:1043400000221A60FEF760FA0546414B1B6813F025
:10435000020FD2D0FEF758FA401B0228F5D90320ED
:1043600016E13C4B0022C3F8802EFEF74DFA0546BD
:10437000374B5B6F13F0020F06D0FEF745FA401B78
:104380000228F5D9032003E1236813F0040F77D046
:104390002F4B1B6C13F0805F33D1002301932C4B08
:1043A0001A6C42F080521A641B6C03F08053019324
:1043B000019B0125284B1B6813F4807F23D0A36841
:1043C000012B34D0052B38D0214B1A6F22F001027B
:1043D0001A671A6F22F004021A67A368002B3DD0F7
:1043E000FEF712FA06461A4B1B6F13F0020F46D166
:1043F000FEF70AFA801B41F288339842F3D9032072
:10440000C6E00025D6E7144A136843F480731360AE
:10441000FEF7FAF90646104B1B6813F4807FCED1E5
:10442000FEF7F2F9801B0228F5D90320B0E0084A14
:10443000136F43F001031367CFE7054B1A6F42F088
:1044400004021A671A6F42F001021A67C5E700BF3B
:10445000003802400000474200700040FEF7D4F9E7
:104460000646524B1B6F13F0020F08D0FEF7CCF933
:10447000801B41F288339842F3D9032088E0EDB9DC
:10448000A369002B00F08380484A926802F00C0276
:10449000082A51D0022B17D0454B00221A66FEF78E
:1044A000B3F90446414B1B6813F0007F42D0FEF77E
:1044B000ABF9001B0228F5D9032069E03B4A136CD5
:1044C00023F080531364DBE7394B00221A66FEF7B2
:1044D0009BF90546354B1B6813F0007F06D0FEF7AD
:1044E00093F9401B0228F5D9032051E0E369226AC1
:1044F0001343626A43EA8213A26A5208013A43EA0A
:104500000243E26A43EA0263284A5360284B0122CD
:104510001A66FEF779F90446244B1B6813F0007FF6
:1045200006D1FEF771F9001B0228F5D903202FE010
:1045300000202DE000202BE0012B2BD01B4B5B68D3
:1045400003F48001E269914226D103F03F02216A1F
:104550008A4223D1616A47F6C0721A40B2EB811FCA
:104560001ED103F44031A26A5208013AB1EB024F66
:1045700018D103F07063E26AB3EB026F14D100202C
:1045800006E001207047012002E0012000E0002049
:1045900002B070BD0120FBE70120F9E70120F7E739
:1045A0000120F5E70120F3E70120F1E700380240A0
:1045B0000000474208B5334B9B6803F00C03042B03
:1045C0005BD0082B5BD12F4B5A6802F03F025B682F
:1045D00013F4800F2CD02B4B5868C0F388104FEA8F
:1045E000401CBCEB000C6EEB0E0E4FEA8E1343EA40
:1045F0009C634FEA8C11B1EB0C0163EB0E03DB0003
:1046000043EA5173C90011EB000C43F10003590256
:1046100000234FEA4C2041EADC51FCF7F7F9194B33
:104620005B68C3F3014301335B00B0FBF3F027E0A9
:10463000144B5868C0F388104FEA401CBCEB000CC8
:104640006EEB0E0E4FEA8E1343EA9C634FEA8C1119
:10465000B1EB0C0163EB0E03DB0043EA5173C900BD
:1046600011EB000C43F10003990200234FEA8C2068
:1046700041EA9C51FCF7CAF9D1E7034800E003483E
:1046800008BD00BF0038024000127A000024F40088
:10469000002800F09B8070B50D4604464F4B1B6808
:1046A00003F007038B4208D2CBB24C4A1370136855
:1046B00003F007038B4240F08B80236813F0020F56
:1046C00017D013F0040F04D0454A936843F4E05325
:1046D0009360236813F0080F04D0414A936843F4B1
:1046E000604393603E4A936823F0F003A1680B4354
:1046F0009360236813F0010F32D06368012B21D03F
:104700009A1E012A25D9364A126812F0020F61D08A
:1047100033498A6822F0030213438B60FEF774F872
:1047200006462F4B9B6803F00C036268B3EB820FC5
:1047300016D0FEF769F8801B41F288339842F0D911
:10474000032042E0264A126812F4003FE0D1012023
:104750003BE0234A126812F0007FD9D1012034E0F7
:104760001E4B1B6803F00703AB4207D9EAB21B4B91
:104770001A701B6803F00703AB422DD1236813F0B6
:10478000040F06D0164A936823F4E053E1680B4304
:104790009360236813F0080F07D0114A936823F43D
:1047A0006043216943EAC1039360FFF703FF0C4BA9
:1047B0009B68C3F303130B4AD35CD8400A4B1860C1
:1047C0000A4B1868FDF7F6FC002070BD0120704709
:1047D0000120FAE70120F8E70120F6E7003C02405B
:1047E00000380240FC870008340000203C00002014
:1047F000014B1868704700BF3400002008B5FFF770
:10480000F7FF044B9B68C3F38223034AD35CD84071
:1048100008BD00BF00380240F487000808B5FFF764
:10482000E7FF044B9B68C3F34233034AD35CD84091
:1048300008BD00BF00380240F48700080F23036062
:104840000B4B9A6802F0030242609A6802F0F00291
:1048500082609A6802F4E052C2609B68DB0803F44D
:10486000E0530361034B1B6803F007030B607047C1
:1048700000380240003C02402DE9F04782B0054676
:10488000884617461E46FDF7BFFF0A9B1B1A03EB1F
:104890000609FDF7B9FF8246284B1B68C3F3CB33EB
:1048A00009FB03F301932B689C6838EA04040CBFEE
:1048B00001230023BB423DD0B6F1FF3FF3D0FDF70B
:1048C000A3FFA0EB0A00484507D2019A02B14A466D
:1048D000019B013B01939146E5E72A68536823F069
:1048E000E00353606B68B3F5827F0BD0AB6AB3F51E
:1048F000005F14D0012385F85130002385F8503033
:10490000032018E0AB68B3F5004F02D0B3F5806F19
:10491000ECD12A68136823F040031360E6E72A68A5
:10492000136823F4005313602A68136843F4005398
:104930001360DFE7002002B0BDE8F08734000020FC
:1049400070B584B004460D46164600920B4601220F
:104950000221FFF791FFD0B9174B1B68174AA2FB42
:1049600003235B0D4FF47A7202FB03F30393636836
:10497000B3F5827F11D0039B3BB1039B013B0393B3
:1049800023689B6813F0800FF5D104B070BD636D90
:1049900043F0200363650320F7E700962B460022CF
:1049A00080212046FFF768FF0028EED0636D43F0BA
:1049B000200363650320E8E734000020819F5E1632
:1049C00010B582B004460B464168B1F5827F14D021
:1049D0006168B1F5827F2AD1A168B1F5806F19D0E5
:1049E0000092002280212046FFF746FF30B3636D1E
:1049F00043F020036365032020E08168B1F5004F98
:104A000002D0B1F5806FE3D12068016821F0400148
:104A10000160DDE70092002201212046FFF72CFF14
:104A200060B1636D43F020036365032006E00092EC
:104A3000002201212046FFF71FFF08B902B010BD78
:104A4000636D43F0200363650320F7E700285AD025
:104A500010B50446436A33B94368B3F5827F05D085
:104A60000023C36102E00023036143610023A362CA
:104A700094F85130002B40D0022384F85130226842
:104A8000136823F040031360636803F48273A26821
:104A900002F404421343E26802F400621343226901
:104AA00002F002021343626902F001021343A26999
:104AB00002F400721343E26902F038021343226ADF
:104AC00002F080021343A26A02F4005221681343E9
:104AD0000B60638B03F00403626A02F0100221682A
:104AE00013434B602268D36923F40063D361002031
:104AF0006065012384F8513010BD84F850302046A1
:104B0000FDF710FAB8E7012070472DE9F04383B0B4
:104B10000446894690461D46FDF776FE94F851609E
:104B2000F6B2012E40F0CC800746B9F1000F00F03C
:104B3000C880B8F1000F00F0C48094F85030012B09
:104B400000F0C380012384F85030032384F85130EF
:104B500000236365C4F83090A4F83480A4F836804C
:104B6000A363A387E38763642364A368B3F5004F5B
:104B70001ED023681A6812F0400F03D11A6842F061
:104B800040021A60E368B3F5006F1CD0636813B18C
:104B9000B8F1010F5FD1226B236812781A73236B6F
:104BA00001332363E38E9BB2013B9BB2E38652E069
:104BB0002268136823F0400313602268136843F4EB
:104BC00080431360D5E7636813B1B8F1010F15D1C5
:104BD000226B23681288DA60236B02332363E38E2F
:104BE0009BB2013B9BB2E38608E0FDF70DFEC01BC4
:104BF000A84202D3B5F1FF3F15D1A5B1E38E9BB218
:104C0000002B42D023689A6812F0020FEDD0226B7D
:104C10001288DA60236B02332363E38E9BB2013B7D
:104C20009BB2E386EAE7012384F85130002384F83D
:104C30005030032645E0226B12781A73236B013340
:104C40002363B4F836C01FFA8CFC0CF1FF3C1FFA4A
:104C50008CFCA4F836C0E38E9BB2B3B123689A688B
:104C600012F0020FE7D1FDF7CFFDC01BA84202D31F
:104C7000B5F1FF3F01D1002DEDD1012384F8513072
:104C8000002384F8503003261BE03A46294620468C
:104C9000FFF756FE08B120236365A36833B901937B
:104CA0002368DA6801929B680193019B012384F8D1
:104CB0005130002384F85030636D13B9002600E0B2
:104CC0000226304603B0BDE8F0830226F9E72DE95D
:104CD000F04383B00446884691461F460A9DFDF77F
:104CE00093FD064694F85130DBB26268012B0AD07E
:104CF000B2F5827F40F00581A268002A40F005816C
:104D0000042B40F00481B8F1000F00F00281B9F1EA
:104D1000000F00F00081002F00F0FF8094F8503069
:104D2000012B00F0FC80012384F8503094F85130BE
:104D3000DBB2042B02D0052384F8513000236365D5
:104D4000C4F83890E787A787C4F83080E786A7863D
:104D50002364636423681A6812F0400F03D11A6851
:104D600042F040021A60E368B3F5006F11D0636847
:104D70000BB1012F0BD1226B236812781A73236BAE
:104D800001332363E38E9BB2013B9BB2E386012791
:104D900071E063680BB1012F0BD1226B236812887D
:104DA000DA60236B02332363E38E9BB2013B9BB239
:104DB000E38601271BE023689A6812F0010F0ED0EA
:104DC000E28F92B25AB1DA68A36B1A80A36B0233F6
:104DD000A363E38F9BB2013B9BB2E3870127FDF7FF
:104DE00013FD801BA84202D3B5F1FF3F1ED1E38E15
:104DF0009BB21BB9E38F9BB2002B62D023689A68E9
:104E000012F0020FD7D0E28E92B2002AD3D0002F38
:104E1000D1D0226B1288DA60236B02332363E38ED6
:104E20009BB2013B9BB2E3860027C4E7012384F8D1
:104E30005130002384F85030032063E023689A68DF
:104E400012F0010F0ED0E28F92B25AB1DA68A36B62
:104E50001A70A36B0133A363E38F9BB2013B9BB238
:104E6000E3870127FDF7D0FC831BAB4202D3B5F1EA
:104E7000FF3F1ED1EDB1E38E9BB213B9E38F9BB21E
:104E8000FBB123689A6812F0020FD7D0E28E92B27B
:104E9000002AD3D0002FD1D0226B12781A73236B43
:104EA00001332363E38E9BB2013B9BB2E386002771
:104EB000C4E7012384F85130002384F850300320E4
:104EC00020E0324629462046FFF73AFD90B9A36814
:104ED00033B901932368DA6801929B680193019BBF
:104EE000012384F85130002384F85030636D4BB1B6
:104EF000012007E020236365002384F8503001205F
:104F000000E0022003B0BDE8F0830220FAE70220AF
:104F1000F8E70120F6E70120F4E70120F2E702209C
:104F2000F0E72DE9F04383B090F85160F6B2012E1E
:104F300040F0B4800446894690461D464368B3F568
:104F4000827F01D1836893B3FDF75EFC0746B9F118
:104F5000000F00F0A480B8F1000F00F0A08094F8DA
:104F60005030012B00F09F80012384F8503004233F
:104F700084F8513000236365C4F83890A4F83C806D
:104F8000A4F83E802363A386E38623646364A36856
:104F9000B3F5004F15D023681A6812F0400F03D103
:104FA0001A6842F040021A60E368F3B143E0042358
:104FB00080F85130009513460A46FFF788FE0646F2
:104FC0006DE02268136823F04003136022681368C1
:104FD00023F480431360DEE7FDF716FCC01BA842F4
:104FE00002D3B5F1FF3F15D1A5B1E38F9BB2002BE2
:104FF00042D023689A6812F0010FEDD0A26B1B7BA0
:105000001370A36B0133A363E38F9BB2013B9BB28D
:10501000E387EAE7012384F85130002384F8503015
:1050200003263CE0FDF7F0FBC01BA84202D3B5F11C
:10503000FF3F19D1C5B1E38F9BB2EBB123689A68EA
:1050400012F0010FEED0DA68A36B1A80A36B023363
:10505000A363B4F83EC01FFA8CFC0CF1FF3C1FFAAE
:105060008CFCA4F83EC0E6E7012384F8513000230D
:1050700084F85030032612E03A4629462046FFF7CE
:105080009FFC08B120236365012384F8513000237D
:1050900084F85030636D13B9002600E002263046D4
:1050A00003B0BDE8F0830226F9E790F8510070479D
:1050B00010B4036A046A24F001040462846924F0D1
:1050C000F00C4CEA021223F00A030B4382610362E4
:1050D0005DF8044B704710B4036A046A24F01004AE
:1050E0000462846924F4704C4CEA023223F0A00379
:1050F00043EA0113826103625DF8044B70478368E1
:1051000023F070030B4343F00703836070470000F4
:1051100090F83D30DBB2012B37D1022380F83D30CF
:105120000268D36843F00103D3600368194A9342CD
:1051300020D0B3F1804F1DD0A2F57C42934219D00C
:1051400002F58062934215D002F58062934211D03D
:1051500002F5784293420DD002F57052934209D085
:10516000A2F59432934205D01A6842F001021A6007
:10517000002070479A6802F00702062A07D01A68D2
:1051800042F001021A6000207047012070470020A1
:10519000704700BF0000014070477047704770477C
:1051A00070B504460368DE681D6915F0020F10D063
:1051B00016F0020F0DD06FF002021A61012303777F
:1051C00003689B6913F0030F5ED0FFF7E6FF00232F
:1051D000237715F0040F12D016F0040F0FD02368B8
:1051E0006FF004021A610223237723689B6913F48A
:1051F000407F4FD02046FFF7D0FF0023237715F0E4
:10520000080F12D016F0080F0FD023686FF00802B5
:105210001A61042323772368DB6913F0030F40D05E
:105220002046FFF7BAFF0023237715F0100F12D0A6
:1052300016F0100F0FD023686FF010021A610823C8
:1052400023772368DB6913F4407F31D02046FFF7D2
:10525000A4FF0023237715F0010F02D016F0010FF1
:105260002DD115F0800F02D016F0800F2FD115F040
:10527000400F02D016F0400F31D115F0200F02D0B0
:1052800016F0200F33D170BDFFF786FF2046FFF7E1
:1052900085FF9CE72046FFF77FFF2046FFF77EFF54
:1052A000ABE72046FFF778FF2046FFF777FFBAE726
:1052B0002046FFF771FF2046FFF770FFC9E723681C
:1052C0006FF001021A612046FCF76AFBC9E7236808
:1052D0006FF080021A61204600F07DF9C7E723686D
:1052E0006FF040021A612046FFF759FFC5E72368B7
:1052F0006FF020021A61204600F06CF9C3E700004D
:105300000368344A904212D0B0F1804F0FD0A2F51A
:105310007C4290420BD002F58062904207D002F5A9
:105320008062904203D002F57842904203D123F08C
:1053300070034A681343274A90422AD0B0F1804F45
:1053400027D0A2F57C42904223D002F580629042A1
:105350001FD002F5806290421BD002F57842904245
:1053600017D002F57052904213D002F5806290423D
:105370000FD002F5806290420BD0A2F59832904295
:1053800007D002F58062904203D002F5806290421D
:1053900003D123F44073CA68134323F080034A699E
:1053A000134303608B68C3620B688362094B9842A6
:1053B00003D003F58063984201D10B690363012395
:1053C0004361036913F0010F03D0036923F0010364
:1053D000036170470000014040B310B5044690F8E7
:1053E0003D30F3B1022384F83D30214651F8040BDF
:1053F000FFF786FF012384F8463084F83E3084F8B6
:105400003F3084F8403084F8413084F8423084F8EA
:10541000433084F8443084F8453084F83D3000202F
:1054200010BD80F83C30FCF7D1FFDBE7012070476E
:1054300010B4846824F47F4C42EA03220A4342EA0F
:105440000C0282605DF8044B704790F83C30012BF1
:1054500078D010B50446012380F83C30022380F850
:105460003D300268936823F47F4323F07703936011
:105470000B68602B4CD029D8402B54D00CD9502B22
:1054800022D1CA6849680068FFF712FE50212068DF
:10549000FFF735FE002005E0202B0DD009D9302B79
:1054A0000AD00120012384F83D30002384F83C30E9
:1054B00010BD0BB1102B05D119462068FFF71FFE58
:1054C0000020EFE70120EDE70120EBE7B3F5805F77
:1054D00034D0B3F5005F0CD1CB684A6889680068A6
:1054E000FFF7A6FF2268936843F48043936000208F
:1054F000D8E7702B24D1CB684A6889680068FFF729
:1055000097FF2268936843F0770393600020C9E710
:10551000CA6849680068FFF7DEFD60212068FFF770
:10552000EEFD0020BEE7CA6849680068FFF7C0FDCD
:1055300040212068FFF7E3FD0020B3E70020B1E73A
:105540000120AFE70220704790F83C20012A3DD0AF
:1055500010B40346012280F83C20022280F83D204E
:1055600002685068946820F0700C086840EA0C00EB
:1055700050601A68164882421AD0B2F1804F17D094
:10558000A0F57C40824213D000F5806082420FD0AB
:1055900000F5806082420BD000F57840824207D04F
:1055A00000F57050824203D0A0F59430824204D1BD
:1055B00024F08004496821439160012283F83D2052
:1055C000002083F83C005DF8044B704702207047D0
:1055D0000000014070477047026802F10C0353E875
:1055E000003F23F0C0030C3242E800310029F3D120
:1055F000202380F841307047026802F10C0353E821
:10560000003F23F490730C3242E800310029F3D1BB
:10561000026802F1140353E8003F23F0010314323F
:1056200042E800310029F3D1036B012B05D0202380
:1056300080F84230002303637047026802F10C03D4
:1056400053E8003F23F010030C3242E800310029F8
:10565000F3D1ECE790F84130DBB2212B01D00220EE
:1056600070478368B3F5805F17D0036A5A1C0262E3
:105670001A7803685A60C38C9BB2013B9BB2C38407
:105680004BB90268D36823F08003D3600268D36803
:1056900043F04003D360002070470369002BE4D13E
:1056A000036A1B880268C3F308035360036A02336A
:1056B0000362E0E710B504460268136923F440531F
:1056C000C1680B431361836802691A4343691A4333
:1056D000C3691A430168CB6823F4164323F00C0313
:1056E0001343CB600268536923F4407381690B4311
:1056F00053610368314A934206D002F580629342B7
:1057000002D0FFF77BF801E0FFF788F8E369B3F513
:10571000004F29D00021031849411B1841F1000115
:10572000C90041EA5371DB00181863684FEA83022D
:105730004FEA937341F10001FBF768F9204AA2FB9D
:1057400000314909642303FB11031B013233A2FB1F
:1057500003235B0903F0F00202EB011203F00F03D5
:10576000216813448B6010BD0023021843EB030132
:10577000121841F10001C90041EA5271D20010181B
:1057800041F10001626892185B41FBF73FF90C4A56
:10579000A2FB00314909642303FB1103DB00323310
:1057A000A2FB03235B095A0002F4F87202EB011218
:1057B00003F00703216813448B60D4E70010014015
:1057C0001F85EB5160B310B5044690F8413013B318
:1057D000242384F841302268D36823F40053D36033
:1057E0002046FFF767FF2268136923F49043136193
:1057F0002268536923F02A0353612268D36843F473
:105800000053D36000206064202384F8413084F882
:105810004230606310BD80F84030FCF7BBFED7E734
:105820000120704738B5134690F84120D2B2202AA3
:105830002FD1044600292ED00BB9012038BD0162BA
:105840008384C38400224264212084F84100A06B39
:10585000124DC563A06B124D0564A06B114DC5645C
:10586000A06B026522680432A06BFDF735F923684E
:105870006FF040021A60226802F1140353E8003FFF
:1058800043F08003143242E800310029F3D10020B4
:10589000D4E70220D2E70120D0E700BFA9580008D2
:1058A000115900081F59000808B50346806B1B6892
:1058B0001B6813F4807F1AD10023C384026802F1AD
:1058C000140353E8003F23F08003143242E8003110
:1058D0000029F3D1026802F10C0353E8003F43F0C2
:1058E00040030C3242E800310029F3D108BDFCF737
:1058F0000FFEFBE708B50168CA6822F04002CA60E3
:10590000202280F84120FCF703FE002008BD7047EC
:1059100008B5806BFFF7FBFF08BD7047704710B5F7
:10592000846B23685A6994F84130DBB2212B10D084
:1059300023685A6902F0400294F84230DBB2222B0D
:1059400011D0636C43F0100363642046FFF7E6FF59
:1059500010BD02F08002002AEAD00023E384204632
:10596000FFF73AFEE4E7002AEBD00023E385204668
:10597000FFF742FEE5E708B5806B0023C385C384CB
:10598000FFF7CCFF08BD704790F84230DBB2222B06
:1059900069D18368B3F5805F4FD0826AB3F5805FC9
:1059A00004D0002B56D10369002B53D103685B68E8
:1059B0001370836A01338362C38D9BB2013B9BB238
:1059C000C385002B51D100B583B00268D36823F0A2
:1059D0002003D3600268D36823F48073D360026825
:1059E000536923F001035361202380F842300023E0
:1059F0004363036B012B33D100230363026802F17D
:105A00000C0353E8003F23F010030C3242E800314E
:105A10000029F3D103681A6812F0100F06D0002293
:105A200001921A6801925B680193019B818DFFF7D7
:105A3000AAFF002003B05DF804FB0269002AACD184
:105A4000826A03685B68C3F308031380836A0233C6
:105A50008362B1E703685B6803F07F031370A8E714
:105A6000FCF71AFDE5E702207047002070470000B0
:105A700010B582B0044602681368D068516913F00B
:105A80000F0F09D113F0200F0CD010F0200F09D008
:105A90002046FFF779FF16E011F0010115D110F44F
:105AA000907F12D1216B012979D013F0800F03D0A0
:105AB00010F0800F40F0148113F0400F03D010F06D
:105AC000400F40F0118102B010BD13F0010F06D05D
:105AD00010F4807F03D0626C42F00102626413F024
